{
    "abi": [
        {
            "inputs": [
                {
                    "internalType": "string",
                    "name": "legacyUri",
                    "type": "string"
                },
                {
                    "internalType": "address",
                    "name": "owner",
                    "type": "address"
                }
            ],
            "stateMutability": "nonpayable",
            "type": "constructor"
        },
        {
            "inputs": [
                {
                    "internalType": "enum AuthType",
                    "name": "authType",
                    "type": "uint8"
                }
            ],
            "name": "AuthTypeNotFoundInVerifiedResult",
            "type": "error"
        },
        {
            "inputs": [],
            "name": "BadgesNonTransferrable",
            "type": "error"
        },
        {
            "inputs": [
                {
                    "internalType": "bytes16",
                    "name": "appId",
                    "type": "bytes16"
                },
                {
                    "internalType": "address",
                    "name": "configOwner",
                    "type": "address"
                },
                {
                    "internalType": "address",
                    "name": "attacker",
                    "type": "address"
                }
            ],
            "name": "NotZKBadgeConfigOwner",
            "type": "error"
        },
        {
            "inputs": [
                {
                    "internalType": "uint256",
                    "name": "tokenId",
                    "type": "uint256"
                }
            ],
            "name": "TokenIdAlreadyUsedFromLegacy",
            "type": "error"
        },
        {
            "inputs": [
                {
                    "internalType": "uint256",
                    "name": "tokenId",
                    "type": "uint256"
                },
                {
                    "internalType": "uint256",
                    "name": "vaultId",
                    "type": "uint256"
                }
            ],
            "name": "VaultIdNotUsedForTokenId",
            "type": "error"
        },
        {
            "inputs": [
                {
                    "internalType": "uint256",
                    "name": "tokenId",
                    "type": "uint256"
                },
                {
                    "internalType": "uint256",
                    "name": "vaultId",
                    "type": "uint256"
                },
                {
                    "internalType": "uint256",
                    "name": "vaultIdWithZKBadge",
                    "type": "uint256"
                }
            ],
            "name": "ZKBadgeAlreadyMintedWithAnotherVaultId",
            "type": "error"
        },
        {
            "inputs": [
                {
                    "internalType": "uint256",
                    "name": "tokenId",
                    "type": "uint256"
                },
                {
                    "internalType": "uint256",
                    "name": "vaultId",
                    "type": "uint256"
                }
            ],
            "name": "ZKBadgeAlreadyMintedWithVaultId",
            "type": "error"
        },
        {
            "inputs": [
                {
                    "internalType": "uint256",
                    "name": "tokenId",
                    "type": "uint256"
                }
            ],
            "name": "ZKBadgeConfigAlreadyRegistered",
            "type": "error"
        },
        {
            "anonymous": false,
            "inputs": [
                {
                    "indexed": true,
                    "internalType": "address",
                    "name": "account",
                    "type": "address"
                },
                {
                    "indexed": true,
                    "internalType": "address",
                    "name": "operator",
                    "type": "address"
                },
                {
                    "indexed": false,
                    "internalType": "bool",
                    "name": "approved",
                    "type": "bool"
                }
            ],
            "name": "ApprovalForAll",
            "type": "event"
        },
        {
            "anonymous": false,
            "inputs": [
                {
                    "indexed": false,
                    "internalType": "uint8",
                    "name": "version",
                    "type": "uint8"
                }
            ],
            "name": "Initialized",
            "type": "event"
        },
        {
            "anonymous": false,
            "inputs": [
                {
                    "indexed": true,
                    "internalType": "bytes32",
                    "name": "role",
                    "type": "bytes32"
                },
                {
                    "indexed": true,
                    "internalType": "bytes32",
                    "name": "previousAdminRole",
                    "type": "bytes32"
                },
                {
                    "indexed": true,
                    "internalType": "bytes32",
                    "name": "newAdminRole",
                    "type": "bytes32"
                }
            ],
            "name": "RoleAdminChanged",
            "type": "event"
        },
        {
            "anonymous": false,
            "inputs": [
                {
                    "indexed": true,
                    "internalType": "bytes32",
                    "name": "role",
                    "type": "bytes32"
                },
                {
                    "indexed": true,
                    "internalType": "address",
                    "name": "account",
                    "type": "address"
                },
                {
                    "indexed": true,
                    "internalType": "address",
                    "name": "sender",
                    "type": "address"
                }
            ],
            "name": "RoleGranted",
            "type": "event"
        },
        {
            "anonymous": false,
            "inputs": [
                {
                    "indexed": true,
                    "internalType": "bytes32",
                    "name": "role",
                    "type": "bytes32"
                },
                {
                    "indexed": true,
                    "internalType": "address",
                    "name": "account",
                    "type": "address"
                },
                {
                    "indexed": true,
                    "internalType": "address",
                    "name": "sender",
                    "type": "address"
                }
            ],
            "name": "RoleRevoked",
            "type": "event"
        },
        {
            "anonymous": false,
            "inputs": [
                {
                    "indexed": true,
                    "internalType": "address",
                    "name": "operator",
                    "type": "address"
                },
                {
                    "indexed": true,
                    "internalType": "address",
                    "name": "from",
                    "type": "address"
                },
                {
                    "indexed": true,
                    "internalType": "address",
                    "name": "to",
                    "type": "address"
                },
                {
                    "indexed": false,
                    "internalType": "uint256[]",
                    "name": "ids",
                    "type": "uint256[]"
                },
                {
                    "indexed": false,
                    "internalType": "uint256[]",
                    "name": "values",
                    "type": "uint256[]"
                }
            ],
            "name": "TransferBatch",
            "type": "event"
        },
        {
            "anonymous": false,
            "inputs": [
                {
                    "indexed": true,
                    "internalType": "address",
                    "name": "operator",
                    "type": "address"
                },
                {
                    "indexed": true,
                    "internalType": "address",
                    "name": "from",
                    "type": "address"
                },
                {
                    "indexed": true,
                    "internalType": "address",
                    "name": "to",
                    "type": "address"
                },
                {
                    "indexed": false,
                    "internalType": "uint256",
                    "name": "id",
                    "type": "uint256"
                },
                {
                    "indexed": false,
                    "internalType": "uint256",
                    "name": "value",
                    "type": "uint256"
                }
            ],
            "name": "TransferSingle",
            "type": "event"
        },
        {
            "anonymous": false,
            "inputs": [
                {
                    "indexed": false,
                    "internalType": "string",
                    "name": "value",
                    "type": "string"
                },
                {
                    "indexed": true,
                    "internalType": "uint256",
                    "name": "id",
                    "type": "uint256"
                }
            ],
            "name": "URI",
            "type": "event"
        },
        {
            "anonymous": false,
            "inputs": [
                {
                    "indexed": true,
                    "internalType": "uint256",
                    "name": "tokenId",
                    "type": "uint256"
                },
                {
                    "components": [
                        {
                            "components": [
                                {
                                    "internalType": "bytes16",
                                    "name": "appId",
                                    "type": "bytes16"
                                },
                                {
                                    "components": [
                                        {
                                            "internalType": "bool",
                                            "name": "isImpersonationMode",
                                            "type": "bool"
                                        }
                                    ],
                                    "internalType": "struct VaultConfig",
                                    "name": "vault",
                                    "type": "tuple"
                                }
                            ],
                            "internalType": "struct SismoConnectConfig",
                            "name": "config",
                            "type": "tuple"
                        },
                        {
                            "internalType": "string",
                            "name": "uri",
                            "type": "string"
                        },
                        {
                            "components": [
                                {
                                    "internalType": "enum AuthType",
                                    "name": "authType",
                                    "type": "uint8"
                                },
                                {
                                    "internalType": "uint256",
                                    "name": "userId",
                                    "type": "uint256"
                                },
                                {
                                    "internalType": "bool",
                                    "name": "isAnon",
                                    "type": "bool"
                                },
                                {
                                    "internalType": "bool",
                                    "name": "isOptional",
                                    "type": "bool"
                                },
                                {
                                    "internalType": "bool",
                                    "name": "isSelectableByUser",
                                    "type": "bool"
                                },
                                {
                                    "internalType": "bytes",
                                    "name": "extraData",
                                    "type": "bytes"
                                }
                            ],
                            "internalType": "struct AuthRequest[]",
                            "name": "authRequests",
                            "type": "tuple[]"
                        },
                        {
                            "components": [
                                {
                                    "internalType": "enum ClaimType",
                                    "name": "claimType",
                                    "type": "uint8"
                                },
                                {
                                    "internalType": "bytes16",
                                    "name": "groupId",
                                    "type": "bytes16"
                                },
                                {
                                    "internalType": "bytes16",
                                    "name": "groupTimestamp",
                                    "type": "bytes16"
                                },
                                {
                                    "internalType": "uint256",
                                    "name": "value",
                                    "type": "uint256"
                                },
                                {
                                    "internalType": "bool",
                                    "name": "isOptional",
                                    "type": "bool"
                                },
                                {
                                    "internalType": "bool",
                                    "name": "isSelectableByUser",
                                    "type": "bool"
                                },
                                {
                                    "internalType": "bytes",
                                    "name": "extraData",
                                    "type": "bytes"
                                }
                            ],
                            "internalType": "struct ClaimRequest[]",
                            "name": "claimRequests",
                            "type": "tuple[]"
                        },
                        {
                            "internalType": "address",
                            "name": "owner",
                            "type": "address"
                        },
                        {
                            "internalType": "uint256",
                            "name": "tokenId",
                            "type": "uint256"
                        }
                    ],
                    "indexed": false,
                    "internalType": "struct IZKBadgeMinter.ZKBadgeConfig",
                    "name": "config",
                    "type": "tuple"
                }
            ],
            "name": "ZKBadgeConfigRegistered",
            "type": "event"
        },
        {
            "anonymous": false,
            "inputs": [
                {
                    "indexed": true,
                    "internalType": "uint256",
                    "name": "tokenId",
                    "type": "uint256"
                },
                {
                    "components": [
                        {
                            "components": [
                                {
                                    "internalType": "bytes16",
                                    "name": "appId",
                                    "type": "bytes16"
                                },
                                {
                                    "components": [
                                        {
                                            "internalType": "bool",
                                            "name": "isImpersonationMode",
                                            "type": "bool"
                                        }
                                    ],
                                    "internalType": "struct VaultConfig",
                                    "name": "vault",
                                    "type": "tuple"
                                }
                            ],
                            "internalType": "struct SismoConnectConfig",
                            "name": "config",
                            "type": "tuple"
                        },
                        {
                            "internalType": "string",
                            "name": "uri",
                            "type": "string"
                        },
                        {
                            "components": [
                                {
                                    "internalType": "enum AuthType",
                                    "name": "authType",
                                    "type": "uint8"
                                },
                                {
                                    "internalType": "uint256",
                                    "name": "userId",
                                    "type": "uint256"
                                },
                                {
                                    "internalType": "bool",
                                    "name": "isAnon",
                                    "type": "bool"
                                },
                                {
                                    "internalType": "bool",
                                    "name": "isOptional",
                                    "type": "bool"
                                },
                                {
                                    "internalType": "bool",
                                    "name": "isSelectableByUser",
                                    "type": "bool"
                                },
                                {
                                    "internalType": "bytes",
                                    "name": "extraData",
                                    "type": "bytes"
                                }
                            ],
                            "internalType": "struct AuthRequest[]",
                            "name": "authRequests",
                            "type": "tuple[]"
                        },
                        {
                            "components": [
                                {
                                    "internalType": "enum ClaimType",
                                    "name": "claimType",
                                    "type": "uint8"
                                },
                                {
                                    "internalType": "bytes16",
                                    "name": "groupId",
                                    "type": "bytes16"
                                },
                                {
                                    "internalType": "bytes16",
                                    "name": "groupTimestamp",
                                    "type": "bytes16"
                                },
                                {
                                    "internalType": "uint256",
                                    "name": "value",
                                    "type": "uint256"
                                },
                                {
                                    "internalType": "bool",
                                    "name": "isOptional",
                                    "type": "bool"
                                },
                                {
                                    "internalType": "bool",
                                    "name": "isSelectableByUser",
                                    "type": "bool"
                                },
                                {
                                    "internalType": "bytes",
                                    "name": "extraData",
                                    "type": "bytes"
                                }
                            ],
                            "internalType": "struct ClaimRequest[]",
                            "name": "claimRequests",
                            "type": "tuple[]"
                        },
                        {
                            "internalType": "address",
                            "name": "owner",
                            "type": "address"
                        },
                        {
                            "internalType": "uint256",
                            "name": "tokenId",
                            "type": "uint256"
                        }
                    ],
                    "indexed": false,
                    "internalType": "struct IZKBadgeMinter.ZKBadgeConfig",
                    "name": "config",
                    "type": "tuple"
                }
            ],
            "name": "ZKBadgeConfigUpdated",
            "type": "event"
        },
        {
            "anonymous": false,
            "inputs": [
                {
                    "indexed": true,
                    "internalType": "uint256",
                    "name": "tokenId",
                    "type": "uint256"
                },
                {
                    "indexed": true,
                    "internalType": "uint256",
                    "name": "vaultId",
                    "type": "uint256"
                },
                {
                    "components": [
                        {
                            "internalType": "uint256",
                            "name": "balance",
                            "type": "uint256"
                        },
                        {
                            "internalType": "address",
                            "name": "owner",
                            "type": "address"
                        },
                        {
                            "internalType": "uint32",
                            "name": "timestamp",
                            "type": "uint32"
                        }
                    ],
                    "indexed": false,
                    "internalType": "struct IZKBadgeMinter.ZKBadgeData",
                    "name": "zkBadgeData",
                    "type": "tuple"
                }
            ],
            "name": "ZKBadgeMinted",
            "type": "event"
        },
        {
            "anonymous": false,
            "inputs": [
                {
                    "indexed": true,
                    "internalType": "uint256",
                    "name": "tokenId",
                    "type": "uint256"
                },
                {
                    "indexed": true,
                    "internalType": "uint256",
                    "name": "vaultId",
                    "type": "uint256"
                },
                {
                    "components": [
                        {
                            "internalType": "uint256",
                            "name": "balance",
                            "type": "uint256"
                        },
                        {
                            "internalType": "address",
                            "name": "owner",
                            "type": "address"
                        },
                        {
                            "internalType": "uint32",
                            "name": "timestamp",
                            "type": "uint32"
                        }
                    ],
                    "indexed": false,
                    "internalType": "struct IZKBadgeMinter.ZKBadgeData",
                    "name": "zkBadgeData",
                    "type": "tuple"
                }
            ],
            "name": "ZKBadgeRenewed",
            "type": "event"
        },
        {
            "inputs": [],
            "name": "ADDRESSES_PROVIDER_V2",
            "outputs": [
                {
                    "internalType": "contract IAddressesProvider",
                    "name": "",
                    "type": "address"
                }
            ],
            "stateMutability": "view",
            "type": "function"
        },
        {
            "inputs": [],
            "name": "APP_ID",
            "outputs": [
                {
                    "internalType": "bytes16",
                    "name": "",
                    "type": "bytes16"
                }
            ],
            "stateMutability": "view",
            "type": "function"
        },
        {
            "inputs": [],
            "name": "CONFIG_REGISTRANT_ROLE",
            "outputs": [
                {
                    "internalType": "bytes32",
                    "name": "",
                    "type": "bytes32"
                }
            ],
            "stateMutability": "view",
            "type": "function"
        },
        {
            "inputs": [],
            "name": "DEFAULT_ADMIN_ROLE",
            "outputs": [
                {
                    "internalType": "bytes32",
                    "name": "",
                    "type": "bytes32"
                }
            ],
            "stateMutability": "view",
            "type": "function"
        },
        {
            "inputs": [],
            "name": "DEFAULT_ZK_BADGE_CONFIG_OWNER",
            "outputs": [
                {
                    "internalType": "address",
                    "name": "",
                    "type": "address"
                }
            ],
            "stateMutability": "view",
            "type": "function"
        },
        {
            "inputs": [],
            "name": "EVENT_TRIGGERER_ROLE",
            "outputs": [
                {
                    "internalType": "bytes32",
                    "name": "",
                    "type": "bytes32"
                }
            ],
            "stateMutability": "view",
            "type": "function"
        },
        {
            "inputs": [],
            "name": "IMPLEMENTATION_VERSION",
            "outputs": [
                {
                    "internalType": "uint8",
                    "name": "",
                    "type": "uint8"
                }
            ],
            "stateMutability": "view",
            "type": "function"
        },
        {
            "inputs": [],
            "name": "IS_IMPERSONATION_MODE",
            "outputs": [
                {
                    "internalType": "bool",
                    "name": "",
                    "type": "bool"
                }
            ],
            "stateMutability": "view",
            "type": "function"
        },
        {
            "inputs": [],
            "name": "SISMO_CONNECT_LIB_VERSION",
            "outputs": [
                {
                    "internalType": "uint256",
                    "name": "",
                    "type": "uint256"
                }
            ],
            "stateMutability": "view",
            "type": "function"
        },
        {
            "inputs": [
                {
                    "internalType": "address",
                    "name": "account",
                    "type": "address"
                },
                {
                    "internalType": "uint256",
                    "name": "tokenId",
                    "type": "uint256"
                }
            ],
            "name": "balanceOf",
            "outputs": [
                {
                    "internalType": "uint256",
                    "name": "",
                    "type": "uint256"
                }
            ],
            "stateMutability": "view",
            "type": "function"
        },
        {
            "inputs": [
                {
                    "internalType": "address[]",
                    "name": "accounts",
                    "type": "address[]"
                },
                {
                    "internalType": "uint256[]",
                    "name": "ids",
                    "type": "uint256[]"
                }
            ],
            "name": "balanceOfBatch",
            "outputs": [
                {
                    "internalType": "uint256[]",
                    "name": "",
                    "type": "uint256[]"
                }
            ],
            "stateMutability": "view",
            "type": "function"
        },
        {
            "inputs": [
                {
                    "internalType": "uint256",
                    "name": "tokenId",
                    "type": "uint256"
                },
                {
                    "internalType": "uint256",
                    "name": "vaultId",
                    "type": "uint256"
                }
            ],
            "name": "balanceOfVaultId",
            "outputs": [
                {
                    "internalType": "uint256",
                    "name": "",
                    "type": "uint256"
                }
            ],
            "stateMutability": "view",
            "type": "function"
        },
        {
            "inputs": [
                {
                    "internalType": "bool",
                    "name": "isSelectableByUser",
                    "type": "bool"
                }
            ],
            "name": "buildSignature",
            "outputs": [
                {
                    "components": [
                        {
                            "internalType": "bytes",
                            "name": "message",
                            "type": "bytes"
                        },
                        {
                            "internalType": "bool",
                            "name": "isSelectableByUser",
                            "type": "bool"
                        },
                        {
                            "internalType": "bytes",
                            "name": "extraData",
                            "type": "bytes"
                        }
                    ],
                    "internalType": "struct SignatureRequest",
                    "name": "",
                    "type": "tuple"
                }
            ],
            "stateMutability": "view",
            "type": "function"
        },
        {
            "inputs": [
                {
                    "internalType": "bytes",
                    "name": "message",
                    "type": "bytes"
                },
                {
                    "internalType": "bytes",
                    "name": "extraData",
                    "type": "bytes"
                }
            ],
            "name": "buildSignature",
            "outputs": [
                {
                    "components": [
                        {
                            "internalType": "bytes",
                            "name": "message",
                            "type": "bytes"
                        },
                        {
                            "internalType": "bool",
                            "name": "isSelectableByUser",
                            "type": "bool"
                        },
                        {
                            "internalType": "bytes",
                            "name": "extraData",
                            "type": "bytes"
                        }
                    ],
                    "internalType": "struct SignatureRequest",
                    "name": "",
                    "type": "tuple"
                }
            ],
            "stateMutability": "view",
            "type": "function"
        },
        {
            "inputs": [
                {
                    "internalType": "bool",
                    "name": "isSelectableByUser",
                    "type": "bool"
                },
                {
                    "internalType": "bytes",
                    "name": "extraData",
                    "type": "bytes"
                }
            ],
            "name": "buildSignature",
            "outputs": [
                {
                    "components": [
                        {
                            "internalType": "bytes",
                            "name": "message",
                            "type": "bytes"
                        },
                        {
                            "internalType": "bool",
                            "name": "isSelectableByUser",
                            "type": "bool"
                        },
                        {
                            "internalType": "bytes",
                            "name": "extraData",
                            "type": "bytes"
                        }
                    ],
                    "internalType": "struct SignatureRequest",
                    "name": "",
                    "type": "tuple"
                }
            ],
            "stateMutability": "view",
            "type": "function"
        },
        {
            "inputs": [
                {
                    "internalType": "bytes",
                    "name": "message",
                    "type": "bytes"
                },
                {
                    "internalType": "bool",
                    "name": "isSelectableByUser",
                    "type": "bool"
                },
                {
                    "internalType": "bytes",
                    "name": "extraData",
                    "type": "bytes"
                }
            ],
            "name": "buildSignature",
            "outputs": [
                {
                    "components": [
                        {
                            "internalType": "bytes",
                            "name": "message",
                            "type": "bytes"
                        },
                        {
                            "internalType": "bool",
                            "name": "isSelectableByUser",
                            "type": "bool"
                        },
                        {
                            "internalType": "bytes",
                            "name": "extraData",
                            "type": "bytes"
                        }
                    ],
                    "internalType": "struct SignatureRequest",
                    "name": "",
                    "type": "tuple"
                }
            ],
            "stateMutability": "view",
            "type": "function"
        },
        {
            "inputs": [
                {
                    "internalType": "bytes",
                    "name": "responseBytes",
                    "type": "bytes"
                },
                {
                    "internalType": "address",
                    "name": "to",
                    "type": "address"
                },
                {
                    "internalType": "uint256",
                    "name": "tokenId",
                    "type": "uint256"
                }
            ],
            "name": "claimWithSismoConnect",
            "outputs": [],
            "stateMutability": "nonpayable",
            "type": "function"
        },
        {
            "inputs": [],
            "name": "config",
            "outputs": [
                {
                    "components": [
                        {
                            "internalType": "bytes16",
                            "name": "appId",
                            "type": "bytes16"
                        },
                        {
                            "components": [
                                {
                                    "internalType": "bool",
                                    "name": "isImpersonationMode",
                                    "type": "bool"
                                }
                            ],
                            "internalType": "struct VaultConfig",
                            "name": "vault",
                            "type": "tuple"
                        }
                    ],
                    "internalType": "struct SismoConnectConfig",
                    "name": "",
                    "type": "tuple"
                }
            ],
            "stateMutability": "view",
            "type": "function"
        },
        {
            "inputs": [],
            "name": "getAttestationsRegistry",
            "outputs": [
                {
                    "internalType": "address",
                    "name": "",
                    "type": "address"
                }
            ],
            "stateMutability": "view",
            "type": "function"
        },
        {
            "inputs": [
                {
                    "internalType": "uint256",
                    "name": "id",
                    "type": "uint256"
                },
                {
                    "internalType": "uint8",
                    "name": "index",
                    "type": "uint8"
                }
            ],
            "name": "getAttributeValueForBadge",
            "outputs": [
                {
                    "internalType": "uint8",
                    "name": "",
                    "type": "uint8"
                }
            ],
            "stateMutability": "view",
            "type": "function"
        },
        {
            "inputs": [
                {
                    "internalType": "uint256",
                    "name": "id",
                    "type": "uint256"
                }
            ],
            "name": "getAttributesNamesAndValuesForBadge",
            "outputs": [
                {
                    "internalType": "bytes32[]",
                    "name": "",
                    "type": "bytes32[]"
                },
                {
                    "internalType": "uint8[]",
                    "name": "",
                    "type": "uint8[]"
                }
            ],
            "stateMutability": "view",
            "type": "function"
        },
        {
            "inputs": [
                {
                    "internalType": "address",
                    "name": "account",
                    "type": "address"
                },
                {
                    "internalType": "uint256",
                    "name": "id",
                    "type": "uint256"
                }
            ],
            "name": "getBadgeExtraData",
            "outputs": [
                {
                    "internalType": "bytes",
                    "name": "",
                    "type": "bytes"
                }
            ],
            "stateMutability": "view",
            "type": "function"
        },
        {
            "inputs": [
                {
                    "internalType": "address",
                    "name": "account",
                    "type": "address"
                },
                {
                    "internalType": "uint256",
                    "name": "id",
                    "type": "uint256"
                }
            ],
            "name": "getBadgeIssuer",
            "outputs": [
                {
                    "internalType": "address",
                    "name": "",
                    "type": "address"
                }
            ],
            "stateMutability": "view",
            "type": "function"
        },
        {
            "inputs": [
                {
                    "internalType": "address",
                    "name": "account",
                    "type": "address"
                },
                {
                    "internalType": "uint256",
                    "name": "id",
                    "type": "uint256"
                }
            ],
            "name": "getBadgeTimestamp",
            "outputs": [
                {
                    "internalType": "uint32",
                    "name": "",
                    "type": "uint32"
                }
            ],
            "stateMutability": "view",
            "type": "function"
        },
        {
            "inputs": [
                {
                    "internalType": "bytes32",
                    "name": "role",
                    "type": "bytes32"
                }
            ],
            "name": "getRoleAdmin",
            "outputs": [
                {
                    "internalType": "bytes32",
                    "name": "",
                    "type": "bytes32"
                }
            ],
            "stateMutability": "view",
            "type": "function"
        },
        {
            "inputs": [
                {
                    "internalType": "uint256",
                    "name": "tokenId",
                    "type": "uint256"
                }
            ],
            "name": "getZKBadgeConfig",
            "outputs": [
                {
                    "components": [
                        {
                            "components": [
                                {
                                    "internalType": "bytes16",
                                    "name": "appId",
                                    "type": "bytes16"
                                },
                                {
                                    "components": [
                                        {
                                            "internalType": "bool",
                                            "name": "isImpersonationMode",
                                            "type": "bool"
                                        }
                                    ],
                                    "internalType": "struct VaultConfig",
                                    "name": "vault",
                                    "type": "tuple"
                                }
                            ],
                            "internalType": "struct SismoConnectConfig",
                            "name": "config",
                            "type": "tuple"
                        },
                        {
                            "internalType": "string",
                            "name": "uri",
                            "type": "string"
                        },
                        {
                            "components": [
                                {
                                    "internalType": "enum AuthType",
                                    "name": "authType",
                                    "type": "uint8"
                                },
                                {
                                    "internalType": "uint256",
                                    "name": "userId",
                                    "type": "uint256"
                                },
                                {
                                    "internalType": "bool",
                                    "name": "isAnon",
                                    "type": "bool"
                                },
                                {
                                    "internalType": "bool",
                                    "name": "isOptional",
                                    "type": "bool"
                                },
                                {
                                    "internalType": "bool",
                                    "name": "isSelectableByUser",
                                    "type": "bool"
                                },
                                {
                                    "internalType": "bytes",
                                    "name": "extraData",
                                    "type": "bytes"
                                }
                            ],
                            "internalType": "struct AuthRequest[]",
                            "name": "authRequests",
                            "type": "tuple[]"
                        },
                        {
                            "components": [
                                {
                                    "internalType": "enum ClaimType",
                                    "name": "claimType",
                                    "type": "uint8"
                                },
                                {
                                    "internalType": "bytes16",
                                    "name": "groupId",
                                    "type": "bytes16"
                                },
                                {
                                    "internalType": "bytes16",
                                    "name": "groupTimestamp",
                                    "type": "bytes16"
                                },
                                {
                                    "internalType": "uint256",
                                    "name": "value",
                                    "type": "uint256"
                                },
                                {
                                    "internalType": "bool",
                                    "name": "isOptional",
                                    "type": "bool"
                                },
                                {
                                    "internalType": "bool",
                                    "name": "isSelectableByUser",
                                    "type": "bool"
                                },
                                {
                                    "internalType": "bytes",
                                    "name": "extraData",
                                    "type": "bytes"
                                }
                            ],
                            "internalType": "struct ClaimRequest[]",
                            "name": "claimRequests",
                            "type": "tuple[]"
                        },
                        {
                            "internalType": "address",
                            "name": "owner",
                            "type": "address"
                        },
                        {
                            "internalType": "uint256",
                            "name": "tokenId",
                            "type": "uint256"
                        }
                    ],
                    "internalType": "struct IZKBadgeMinter.ZKBadgeConfig",
                    "name": "",
                    "type": "tuple"
                }
            ],
            "stateMutability": "view",
            "type": "function"
        },
        {
            "inputs": [
                {
                    "internalType": "bytes32",
                    "name": "role",
                    "type": "bytes32"
                },
                {
                    "internalType": "address",
                    "name": "account",
                    "type": "address"
                }
            ],
            "name": "grantRole",
            "outputs": [],
            "stateMutability": "nonpayable",
            "type": "function"
        },
        {
            "inputs": [
                {
                    "internalType": "bytes32",
                    "name": "role",
                    "type": "bytes32"
                },
                {
                    "internalType": "address",
                    "name": "account",
                    "type": "address"
                }
            ],
            "name": "hasRole",
            "outputs": [
                {
                    "internalType": "bool",
                    "name": "",
                    "type": "bool"
                }
            ],
            "stateMutability": "view",
            "type": "function"
        },
        {
            "inputs": [
                {
                    "internalType": "string",
                    "name": "newUri",
                    "type": "string"
                },
                {
                    "internalType": "address",
                    "name": "owner",
                    "type": "address"
                }
            ],
            "name": "initialize",
            "outputs": [],
            "stateMutability": "nonpayable",
            "type": "function"
        },
        {
            "inputs": [
                {
                    "internalType": "address",
                    "name": "",
                    "type": "address"
                },
                {
                    "internalType": "address",
                    "name": "",
                    "type": "address"
                }
            ],
            "name": "isApprovedForAll",
            "outputs": [
                {
                    "internalType": "bool",
                    "name": "",
                    "type": "bool"
                }
            ],
            "stateMutability": "view",
            "type": "function"
        },
        {
            "inputs": [
                {
                    "internalType": "uint256",
                    "name": "tokenId",
                    "type": "uint256"
                },
                {
                    "internalType": "uint256",
                    "name": "vaultId",
                    "type": "uint256"
                }
            ],
            "name": "isVaultIdUsedForTokenId",
            "outputs": [
                {
                    "internalType": "bool",
                    "name": "",
                    "type": "bool"
                }
            ],
            "stateMutability": "view",
            "type": "function"
        },
        {
            "inputs": [
                {
                    "internalType": "bytes16",
                    "name": "appId",
                    "type": "bytes16"
                },
                {
                    "internalType": "bool",
                    "name": "isImpersonationMode",
                    "type": "bool"
                },
                {
                    "internalType": "string",
                    "name": "tokenURI",
                    "type": "string"
                },
                {
                    "components": [
                        {
                            "internalType": "enum AuthType",
                            "name": "authType",
                            "type": "uint8"
                        },
                        {
                            "internalType": "uint256",
                            "name": "userId",
                            "type": "uint256"
                        },
                        {
                            "internalType": "bool",
                            "name": "isAnon",
                            "type": "bool"
                        },
                        {
                            "internalType": "bool",
                            "name": "isOptional",
                            "type": "bool"
                        },
                        {
                            "internalType": "bool",
                            "name": "isSelectableByUser",
                            "type": "bool"
                        },
                        {
                            "internalType": "bytes",
                            "name": "extraData",
                            "type": "bytes"
                        }
                    ],
                    "internalType": "struct AuthRequest[]",
                    "name": "authRequests",
                    "type": "tuple[]"
                },
                {
                    "components": [
                        {
                            "internalType": "enum ClaimType",
                            "name": "claimType",
                            "type": "uint8"
                        },
                        {
                            "internalType": "bytes16",
                            "name": "groupId",
                            "type": "bytes16"
                        },
                        {
                            "internalType": "bytes16",
                            "name": "groupTimestamp",
                            "type": "bytes16"
                        },
                        {
                            "internalType": "uint256",
                            "name": "value",
                            "type": "uint256"
                        },
                        {
                            "internalType": "bool",
                            "name": "isOptional",
                            "type": "bool"
                        },
                        {
                            "internalType": "bool",
                            "name": "isSelectableByUser",
                            "type": "bool"
                        },
                        {
                            "internalType": "bytes",
                            "name": "extraData",
                            "type": "bytes"
                        }
                    ],
                    "internalType": "struct ClaimRequest[]",
                    "name": "claimRequests",
                    "type": "tuple[]"
                },
                {
                    "internalType": "address",
                    "name": "owner",
                    "type": "address"
                },
                {
                    "internalType": "uint256",
                    "name": "tokenId",
                    "type": "uint256"
                }
            ],
            "name": "registerZKBadgeConfig",
            "outputs": [],
            "stateMutability": "nonpayable",
            "type": "function"
        },
        {
            "inputs": [
                {
                    "internalType": "bytes",
                    "name": "responseBytes",
                    "type": "bytes"
                },
                {
                    "internalType": "uint256",
                    "name": "tokenId",
                    "type": "uint256"
                }
            ],
            "name": "renewWithSismoConnect",
            "outputs": [],
            "stateMutability": "nonpayable",
            "type": "function"
        },
        {
            "inputs": [
                {
                    "internalType": "bytes32",
                    "name": "role",
                    "type": "bytes32"
                },
                {
                    "internalType": "address",
                    "name": "account",
                    "type": "address"
                }
            ],
            "name": "renounceRole",
            "outputs": [],
            "stateMutability": "nonpayable",
            "type": "function"
        },
        {
            "inputs": [
                {
                    "internalType": "bytes32",
                    "name": "role",
                    "type": "bytes32"
                },
                {
                    "internalType": "address",
                    "name": "account",
                    "type": "address"
                }
            ],
            "name": "revokeRole",
            "outputs": [],
            "stateMutability": "nonpayable",
            "type": "function"
        },
        {
            "inputs": [
                {
                    "internalType": "address",
                    "name": "from",
                    "type": "address"
                },
                {
                    "internalType": "address",
                    "name": "to",
                    "type": "address"
                },
                {
                    "internalType": "uint256[]",
                    "name": "ids",
                    "type": "uint256[]"
                },
                {
                    "internalType": "uint256[]",
                    "name": "amounts",
                    "type": "uint256[]"
                },
                {
                    "internalType": "bytes",
                    "name": "data",
                    "type": "bytes"
                }
            ],
            "name": "safeBatchTransferFrom",
            "outputs": [],
            "stateMutability": "nonpayable",
            "type": "function"
        },
        {
            "inputs": [
                {
                    "internalType": "address",
                    "name": "from",
                    "type": "address"
                },
                {
                    "internalType": "address",
                    "name": "to",
                    "type": "address"
                },
                {
                    "internalType": "uint256",
                    "name": "id",
                    "type": "uint256"
                },
                {
                    "internalType": "uint256",
                    "name": "amount",
                    "type": "uint256"
                },
                {
                    "internalType": "bytes",
                    "name": "data",
                    "type": "bytes"
                }
            ],
            "name": "safeTransferFrom",
            "outputs": [],
            "stateMutability": "nonpayable",
            "type": "function"
        },
        {
            "inputs": [
                {
                    "internalType": "address",
                    "name": "",
                    "type": "address"
                },
                {
                    "internalType": "bool",
                    "name": "",
                    "type": "bool"
                }
            ],
            "name": "setApprovalForAll",
            "outputs": [],
            "stateMutability": "nonpayable",
            "type": "function"
        },
        {
            "inputs": [
                {
                    "internalType": "address",
                    "name": "attestationsRegistry",
                    "type": "address"
                }
            ],
            "name": "setAttestationsRegistry",
            "outputs": [],
            "stateMutability": "nonpayable",
            "type": "function"
        },
        {
            "inputs": [
                {
                    "internalType": "string",
                    "name": "legacyUri",
                    "type": "string"
                }
            ],
            "name": "setLegacyUri",
            "outputs": [],
            "stateMutability": "nonpayable",
            "type": "function"
        },
        {
            "inputs": [
                {
                    "internalType": "string",
                    "name": "newUri",
                    "type": "string"
                }
            ],
            "name": "setUri",
            "outputs": [],
            "stateMutability": "nonpayable",
            "type": "function"
        },
        {
            "inputs": [
                {
                    "internalType": "bytes4",
                    "name": "interfaceId",
                    "type": "bytes4"
                }
            ],
            "name": "supportsInterface",
            "outputs": [
                {
                    "internalType": "bool",
                    "name": "",
                    "type": "bool"
                }
            ],
            "stateMutability": "view",
            "type": "function"
        },
        {
            "inputs": [
                {
                    "internalType": "address",
                    "name": "operator",
                    "type": "address"
                },
                {
                    "internalType": "address",
                    "name": "from",
                    "type": "address"
                },
                {
                    "internalType": "address",
                    "name": "to",
                    "type": "address"
                },
                {
                    "internalType": "uint256",
                    "name": "id",
                    "type": "uint256"
                },
                {
                    "internalType": "uint256",
                    "name": "value",
                    "type": "uint256"
                }
            ],
            "name": "triggerTransferEvent",
            "outputs": [],
            "stateMutability": "nonpayable",
            "type": "function"
        },
        {
            "inputs": [
                {
                    "internalType": "bytes16",
                    "name": "appId",
                    "type": "bytes16"
                },
                {
                    "internalType": "bool",
                    "name": "isImpersonationMode",
                    "type": "bool"
                },
                {
                    "internalType": "string",
                    "name": "tokenURI",
                    "type": "string"
                },
                {
                    "components": [
                        {
                            "internalType": "enum AuthType",
                            "name": "authType",
                            "type": "uint8"
                        },
                        {
                            "internalType": "uint256",
                            "name": "userId",
                            "type": "uint256"
                        },
                        {
                            "internalType": "bool",
                            "name": "isAnon",
                            "type": "bool"
                        },
                        {
                            "internalType": "bool",
                            "name": "isOptional",
                            "type": "bool"
                        },
                        {
                            "internalType": "bool",
                            "name": "isSelectableByUser",
                            "type": "bool"
                        },
                        {
                            "internalType": "bytes",
                            "name": "extraData",
                            "type": "bytes"
                        }
                    ],
                    "internalType": "struct AuthRequest[]",
                    "name": "authRequests",
                    "type": "tuple[]"
                },
                {
                    "components": [
                        {
                            "internalType": "enum ClaimType",
                            "name": "claimType",
                            "type": "uint8"
                        },
                        {
                            "internalType": "bytes16",
                            "name": "groupId",
                            "type": "bytes16"
                        },
                        {
                            "internalType": "bytes16",
                            "name": "groupTimestamp",
                            "type": "bytes16"
                        },
                        {
                            "internalType": "uint256",
                            "name": "value",
                            "type": "uint256"
                        },
                        {
                            "internalType": "bool",
                            "name": "isOptional",
                            "type": "bool"
                        },
                        {
                            "internalType": "bool",
                            "name": "isSelectableByUser",
                            "type": "bool"
                        },
                        {
                            "internalType": "bytes",
                            "name": "extraData",
                            "type": "bytes"
                        }
                    ],
                    "internalType": "struct ClaimRequest[]",
                    "name": "claimRequests",
                    "type": "tuple[]"
                },
                {
                    "internalType": "address",
                    "name": "owner",
                    "type": "address"
                },
                {
                    "internalType": "uint256",
                    "name": "tokenId",
                    "type": "uint256"
                }
            ],
            "name": "updateZKBadgeConfig",
            "outputs": [],
            "stateMutability": "nonpayable",
            "type": "function"
        },
        {
            "inputs": [
                {
                    "internalType": "uint256",
                    "name": "tokenId",
                    "type": "uint256"
                }
            ],
            "name": "uri",
            "outputs": [
                {
                    "internalType": "string",
                    "name": "",
                    "type": "string"
                }
            ],
            "stateMutability": "view",
            "type": "function"
        }
    ],
    "bytecode": {
        "object": "0x6101606040523480156200001257600080fd5b50604051620068d7380380620068d7833981016040819052620000359162000731565b6200004260008062000425565b826200004e8162000487565b5080516001600160801b0319166101205260208082015151151561014052604080518082018252601981527f7369736d6f436f6e6e65637456657269666965722d76312e3100000000000000928101929092525163349f642f60e11b8152733cd5334eb64ebbd4003b72022cc25465f1bfcee69163693ec85e91620000d79190600401620007fe565b602060405180830381865afa158015620000f5573d6000803e3d6000fd5b505050506040513d601f19601f820116820180604052508101906200011b919062000833565b6001600160a01b0316608052604080518082018252601781527f61757468526571756573744275696c6465722d76312e310000000000000000006020820152905163349f642f60e11b8152733cd5334eb64ebbd4003b72022cc25465f1bfcee69163693ec85e91620001919190600401620007fe565b602060405180830381865afa158015620001af573d6000803e3d6000fd5b505050506040513d601f19601f82011682018060405250810190620001d5919062000833565b6001600160a01b031660a052604080518082018252601881527f636c61696d526571756573744275696c6465722d76312e3100000000000000006020820152905163349f642f60e11b8152733cd5334eb64ebbd4003b72022cc25465f1bfcee69163693ec85e916200024b9190600401620007fe565b602060405180830381865afa15801562000269573d6000803e3d6000fd5b505050506040513d601f19601f820116820180604052508101906200028f919062000833565b6001600160a01b031660c052604080518082018252601581527f7369676e61747572654275696c6465722d76312e3100000000000000000000006020820152905163349f642f60e11b8152733cd5334eb64ebbd4003b72022cc25465f1bfcee69163693ec85e91620003059190600401620007fe565b602060405180830381865afa15801562000323573d6000803e3d6000fd5b505050506040513d601f19601f8201168201806040525081019062000349919062000833565b6001600160a01b031660e052604080518082018252601381527f726571756573744275696c6465722d76312e31000000000000000000000000006020820152905163349f642f60e11b8152733cd5334eb64ebbd4003b72022cc25465f1bfcee69163693ec85e91620003bf9190600401620007fe565b602060405180830381865afa158015620003dd573d6000803e3d6000fd5b505050506040513d601f19601f8201168201806040525081019062000403919062000833565b6001600160a01b031661010052506200041d828262000499565b5050620009b3565b6200044c604080518082018252600080825282516020818101909452908152909182015290565b506040805180820182526001600160801b03199390931683528051602080820183526000909152815180820190925291151581529082015290565b6004620004958282620008e7565b5050565b600054600490610100900460ff16158015620004bc575060005460ff8083169116105b620005245760405162461bcd60e51b815260206004820152602e60248201527f496e697469616c697a61626c653a20636f6e747261637420697320616c72656160448201526d191e481a5b9a5d1a585b1a5e995960921b606482015260840160405180910390fd5b6000805461ffff191660ff8316176101001781556200054390620005b4565b511580620005505750303b155b156200056e57620005618362000487565b6200056e60008362000650565b6000805461ff001916905560405160ff821681527f7f26b83ff96e1f2b6a682f133852f6798a09c465da95921460cefb38474024989060200160405180910390a1505050565b606060048054620005c59062000858565b80601f0160208091040260200160405190810160405280929190818152602001828054620005f39062000858565b8015620006445780601f10620006185761010080835404028352916020019162000644565b820191906000526020600020905b8154815290600101906020018083116200062657829003601f168201915b50505050509050919050565b60008281526001602090815260408083206001600160a01b038516845290915290205460ff16620004955760008281526001602081815260408084206001600160a01b0386168086529252808420805460ff19169093179092559051339285917f2f8788117e7eff1d82e926ec794901d17c78024a50270940304540a733656f0d9190a45050565b634e487b7160e01b600052604160045260246000fd5b60005b838110156200070b578181015183820152602001620006f1565b50506000910152565b80516001600160a01b03811681146200072c57600080fd5b919050565b600080604083850312156200074557600080fd5b82516001600160401b03808211156200075d57600080fd5b818501915085601f8301126200077257600080fd5b815181811115620007875762000787620006d8565b604051601f8201601f19908116603f01168101908382118183101715620007b257620007b2620006d8565b81604052828152886020848701011115620007cc57600080fd5b620007df836020830160208801620006ee565b8096505050505050620007f56020840162000714565b90509250929050565b60208152600082518060208401526200081f816040850160208701620006ee565b601f01601f19169190910160400192915050565b6000602082840312156200084657600080fd5b620008518262000714565b9392505050565b600181811c908216806200086d57607f821691505b6020821081036200088e57634e487b7160e01b600052602260045260246000fd5b50919050565b601f821115620008e257600081815260208120601f850160051c81016020861015620008bd5750805b601f850160051c820191505b81811015620008de57828155600101620008c9565b5050505b505050565b81516001600160401b03811115620009035762000903620006d8565b6200091b8162000914845462000858565b8462000894565b602080601f8311600181146200095357600084156200093a5750858301515b600019600386901b1c1916600185901b178555620008de565b600085815260208120601f198616915b82811015620009845788860151825594840194600190910190840162000963565b5085821015620009a35787850151600019600388901b60f8161c191681555b5050505050600190811b01905550565b60805160a05160c05160e051610100516101205161014051615e9e62000a3960003960008181610554015261157c0152600081816105ef015261155b0152600061263e01526000818161125a0152818161141a0152818161234c015281816123d801526125e20152600050506000505060008181610c860152611bb70152615e9e6000f3fe608060405234801561001057600080fd5b506004361061027e5760003560e01c80637ab4339d1161015c578063b3c1cb21116100ce578063dc0ec5e811610087578063dc0ec5e81461066b578063e0689703146106a8578063e37ffe7c146106bb578063e985e9c5146106dc578063f242432a146106ef578063ff4468c41461070257600080fd5b8063b3c1cb21146105d7578063c187bbc1146105ea578063c9512d991461062a578063cdb7e66414610632578063cea8eb4e14610645578063d547741f1461065857600080fd5b8063a183dc2711610120578063a183dc271461054f578063a217fddf14610576578063a22cb4651461057e578063a75400b314610591578063ac6c3e69146105a4578063aed8c6bc146105c457600080fd5b80637ab4339d146104f0578063869f023e1461050357806391d148541461051657806396d75b93146105295780639b642de11461053c57600080fd5b806344112ed8116101f55780636bd14dfa116101b95780636bd14dfa1461045f5780636e01370e1461048a578063710b30961461049d578063730cb7d5146104b0578063754b377c146104c157806379502c55146104db57600080fd5b806344112ed8146103b657806346916301146103dd57806349161195146103f85780634e1273f4146104185780635a3285961461043857600080fd5b8063248a9ca311610247578063248a9ca31461032c5780632eb2c2d6146103505780632f2ff15d1461036357806336568abe146103765780633e1f3c27146103895780633eca99831461039c57600080fd5b8062fdd58e1461028357806301d682dd146102a957806301ffc9a7146102be5780630e064366146102e15780630e89341c1461030c575b600080fd5b6102966102913660046134f6565b61072a565b6040519081526020015b60405180910390f35b6102bc6102b736600461368d565b6107f8565b005b6102d16102cc3660046136fc565b610f0b565b60405190151581526020016102a0565b6102f46102ef3660046134f6565b610f16565b6040516001600160a01b0390911681526020016102a0565b61031f61031a366004613719565b610f93565b6040516102a09190613782565b61029661033a366004613719565b6000908152600160208190526040909120015490565b6102bc61035e366004613829565b6110b4565b6102bc6103713660046138d6565b611100565b6102bc6103843660046138d6565b61112b565b61031f6103973660046134f6565b6111a9565b6102f472c92065f759c3d1c94d08c27a2ab97a1c874cbc81565b6102967fe6cd5415a09470f57cb652d653ef635ecd9a997fef2537decaf18eb7545b7fa481565b6102f4733cd5334eb64ebbd4003b72022cc25465f1bfcee681565b61040b61040636600461391f565b611223565b6040516102a0919061397f565b61042b610426366004613992565b6112ca565b6040516102a09190613a99565b6102967f401f66d300c59cfc80f7c726a9eb9d21ee04bdd3629511a0cfec7a609c00328581565b61029661046d366004613aac565b600091825260086020908152604080842092845291905290205490565b61040b610498366004613ace565b6113f3565b6102bc6104ab366004613b27565b61149e565b6005546001600160a01b03166102f4565b6104c9600481565b60405160ff90911681526020016102a0565b6104e3611530565b6040516102a09190613b82565b6102bc6104fe366004613ba6565b6115a5565b6102bc610511366004613e79565b6116b2565b6102d16105243660046138d6565b611731565b6102bc610537366004613f40565b61175c565b6102bc61054a366004613f84565b611d47565b6102d17f000000000000000000000000000000000000000000000000000000000000000081565b610296600081565b6102bc61058c366004613fb8565b611d5b565b6102bc61059f366004613e79565b611d74565b6105b76105b2366004613719565b611e33565b6040516102a09190614168565b6104c96105d236600461421a565b61226c565b6102bc6105e536600461423f565b6122e3565b6106117f000000000000000000000000000000000000000000000000000000000000000081565b6040516001600160801b031990911681526020016102a0565b610296600281565b6102bc610640366004613f84565b612311565b61040b61065336600461425c565b612325565b6102bc6106663660046138d6565b61238b565b6102d1610679366004613aac565b6000918252600860209081526040808420928452919052902060010154600160a01b900463ffffffff16151590565b61040b6106b63660046142a1565b6123b1565b6106ce6106c9366004613719565b612466565b6040516102a0929190614318565b6102d16106ea366004614396565b6124e5565b6102bc6106fd3660046143c4565b612500565b6107156107103660046134f6565b612545565b60405163ffffffff90911681526020016102a0565b6000610739826302625a001190565b156107ba5760055460405163461e4f1960e11b8152600481018490526001600160a01b03858116602483015290911690638c3c9e3290604401602060405180830381865afa15801561078f573d6000803e3d6000fd5b505050506040513d601f19601f820116820180604052508101906107b3919061442c565b90506107f2565b5060008181526009602090815260408083206001600160a01b0386168452825280832054848452600883528184209084529091529020545b92915050565b600060019050600084806020019051810190610814919061481b565b6000848152600760209081526040808320815161010081018352815460801b6001600160801b03191660c082019081528351808601909452600183015460ff161515845260e082019390935291825260028101805495965093949193909284019161087e906148dd565b80601f01602080910402602001604051908101604052809291908181526020018280546108aa906148dd565b80156108f75780601f106108cc576101008083540402835291602001916108f7565b820191906000526020600020905b8154815290600101906020018083116108da57829003601f168201915b5050505050815260200160038201805480602002602001604051908101604052809291908181526020016000905b82821015610a51576000848152602090206040805160c08101909152600484029091018054829060ff16600581111561096057610960613fe6565b600581111561097157610971613fe6565b815260018201546020820152600282015460ff80821615156040840152610100820481161515606084015262010000909104161515608082015260038201805460a0909201916109c0906148dd565b80601f01602080910402602001604051908101604052809291908181526020018280546109ec906148dd565b8015610a395780601f10610a0e57610100808354040283529160200191610a39565b820191906000526020600020905b815481529060010190602001808311610a1c57829003601f168201915b50505050508152505081526020019060010190610925565b50505050815260200160048201805480602002602001604051908101604052809291908181526020016000905b82821015610bc7576000848152602090206040805160e08101909152600584029091018054829060ff166004811115610ab957610ab9613fe6565b6004811115610aca57610aca613fe6565b8152815461010090819004608090811b6001600160801b031990811660208501526001850154821b16604084015260028401546060840152600384015460ff8082161515928501929092529190910416151560a082015260048201805460c090920191610b36906148dd565b80601f0160208091040260200160405190810160405280929190818152602001828054610b62906148dd565b8015610baf5780601f10610b8457610100808354040283529160200191610baf565b820191906000526020600020905b815481529060010190602001808311610b9257829003601f168201915b50505050508152505081526020019060010190610a7e565b5050505081526020016005820160009054906101000a90046001600160a01b03166001600160a01b03166001600160a01b0316815260200160068201548152505090506000610c5c82604001518360600151610c578989604051602001610c439291906001600160a01b03929092168252602082015260400190565b6040516020818303038152906040526125bb565b61261f565b60008681526007602052604080822090516312b037ff60e01b815292935090916001600160a01b037f000000000000000000000000000000000000000000000000000000000000000016916312b037ff91610cbe918891879190600401614a10565b6000604051808303816000875af1158015610cdd573d6000803e3d6000fd5b505050506040513d6000823e601f3d908101601f19168201604052610d059190810190614e2e565b90506000610d1382826126bc565b6000888152600860209081526040808320848452909152902060010154909150600160a01b900463ffffffff1615610d6d576040516384e5f13b60e01b815260048101889052602481018290526044015b60405180910390fd5b610d77888861072a565b15610dcb5760008781526009602090815260408083206001600160a01b038c168452909152908190205490516313c35aa360e11b815260048101899052602481018390526044810191909152606401610d64565b604080516060810182528781526001600160a01b03808b16602080840182815263ffffffff42811686880190815260008f8152600885528881208a82528086528982209851895593516001890180549351909416600160a01b026001600160c01b03199093169716969096171790558c8452600982528584209284529181528483208690559185905290529051829189917f151b096e8a345f14b4b6978a01ec99e538cea7208101aca08ab7582edc14a7aa91610eaf91815481526001909101546001600160a01b038116602083015260a01c63ffffffff16604082015260600190565b60405180910390a360408051888152602081018890526001600160a01b038a169160009130917fc3d58168c5ae7397731d063d5bbf3d657854427343f4c083240f7aacaa2d0f62910160405180910390a4505050505050505050565b60006107f28261276f565b6005546040516363ed4d5360e11b8152600481018390526001600160a01b038481166024830152600092169063c7da9aa690604401602060405180830381865afa158015610f68573d6000803e3d6000fd5b505050506040513d601f19601f82011682018060405250810190610f8c9190614f0e565b9392505050565b6060610fa2826302625a001190565b15610fb0576107f2826127af565b60408051602080820183526000918290528482526007905281902090517fc5d2460186f7233c927e7db2dcc703c0e500b653ca82273b7bfad8045d85a47091610ffe91600290910190614f2b565b604051809103902014611021576000828152600760205260409020600201611024565b60065b805461102f906148dd565b80601f016020809104026020016040519081016040528092919081815260200182805461105b906148dd565b80156110a85780601f1061107d576101008083540402835291602001916110a8565b820191906000526020600020905b81548152906001019060200180831161108b57829003601f168201915b50505050509050919050565b6001600160a01b0385163314806110d057506110d085336124e5565b6110ec5760405162461bcd60e51b8152600401610d6490614fa1565b6110f985858585856127be565b5050505050565b6000828152600160208190526040909120015461111c816129ac565b61112683836129b9565b505050565b6001600160a01b038116331461119b5760405162461bcd60e51b815260206004820152602f60248201527f416363657373436f6e74726f6c3a2063616e206f6e6c792072656e6f756e636560448201526e103937b632b9903337b91039b2b63360891b6064820152608401610d64565b6111a58282612a24565b5050565b600554604051636d7fbb6760e01b8152600481018390526001600160a01b0384811660248301526060921690636d7fbb6790604401600060405180830381865afa1580156111fb573d6000803e3d6000fd5b505050506040513d6000823e601f3d908101601f19168201604052610f8c9190810190614fef565b604080516060808201835280825260006020830152818301529051631f6c2b9760e11b815282151560048201526001600160a01b037f00000000000000000000000000000000000000000000000000000000000000001690633ed8572e906024015b600060405180830381865afa1580156112a2573d6000803e3d6000fd5b505050506040513d6000823e601f3d908101601f191682016040526107f291908101906150c2565b6060815183511461132f5760405162461bcd60e51b815260206004820152602960248201527f455243313135353a206163636f756e747320616e6420696473206c656e677468604482015268040dad2e6dac2e8c6d60bb1b6064820152608401610d64565b600083516001600160401b0381111561134a5761134a613522565b604051908082528060200260200182016040528015611373578160200160208202803683370190505b50905060005b84518110156113eb576113be858281518110611397576113976150f6565b60200260200101518583815181106113b1576113b16150f6565b602002602001015161072a565b8282815181106113d0576113d06150f6565b60209081029190910101526113e481615122565b9050611379565b509392505050565b604080516060808201835280825260006020830152818301529051631778ed1360e21b81527f00000000000000000000000000000000000000000000000000000000000000006001600160a01b031690635de3b44c90611459908690869060040161513b565b600060405180830381865afa158015611476573d6000803e3d6000fd5b505050506040513d6000823e601f3d908101601f19168201604052610f8c91908101906150c2565b7fe6cd5415a09470f57cb652d653ef635ecd9a997fef2537decaf18eb7545b7fa46114c8816129ac565b836001600160a01b0316856001600160a01b0316876001600160a01b03167fc3d58168c5ae7397731d063d5bbf3d657854427343f4c083240f7aacaa2d0f628686604051611520929190918252602082015260400190565b60405180910390a4505050505050565b611556604080518082018252600080825282516020818101909452908152909182015290565b6115a07f00000000000000000000000000000000000000000000000000000000000000007f0000000000000000000000000000000000000000000000000000000000000000612a8b565b905090565b600054600490610100900460ff161580156115c7575060005460ff8083169116105b61162a5760405162461bcd60e51b815260206004820152602e60248201527f496e697469616c697a61626c653a20636f6e747261637420697320616c72656160448201526d191e481a5b9a5d1a585b1a5e995960921b6064820152608401610d64565b6000805461ffff191660ff831617610100178155611647906127af565b5115806116535750303b155b1561166c5761166183612af9565b61166c6000836129b9565b6000805461ff001916905560405160ff821681527f7f26b83ff96e1f2b6a682f133852f6798a09c465da95921460cefb38474024989060200160405180910390a1505050565b7f401f66d300c59cfc80f7c726a9eb9d21ee04bdd3629511a0cfec7a609c0032856116dc816129ac565b6000828152600760205260409020600501546001600160a01b03161561171857604051639c454f9760e01b815260048101839052602401610d64565b61172788888888888888612b05565b5050505050505050565b60009182526001602090815260408084206001600160a01b0393909316845291905290205460ff1690565b600082806020019051810190611772919061481b565b6000838152600760209081526040808320815161010081018352815460801b6001600160801b03191660c082019081528351808601909452600183015460ff161515845260e08201939093529182526002810180549596509394919390928401916117dc906148dd565b80601f0160208091040260200160405190810160405280929190818152602001828054611808906148dd565b80156118555780601f1061182a57610100808354040283529160200191611855565b820191906000526020600020905b81548152906001019060200180831161183857829003601f168201915b5050505050815260200160038201805480602002602001604051908101604052809291908181526020016000905b828210156119af576000848152602090206040805160c08101909152600484029091018054829060ff1660058111156118be576118be613fe6565b60058111156118cf576118cf613fe6565b815260018201546020820152600282015460ff80821615156040840152610100820481161515606084015262010000909104161515608082015260038201805460a09092019161191e906148dd565b80601f016020809104026020016040519081016040528092919081815260200182805461194a906148dd565b80156119975780601f1061196c57610100808354040283529160200191611997565b820191906000526020600020905b81548152906001019060200180831161197a57829003601f168201915b50505050508152505081526020019060010190611883565b50505050815260200160048201805480602002602001604051908101604052809291908181526020016000905b82821015611b25576000848152602090206040805160e08101909152600584029091018054829060ff166004811115611a1757611a17613fe6565b6004811115611a2857611a28613fe6565b8152815461010090819004608090811b6001600160801b031990811660208501526001850154821b16604084015260028401546060840152600384015460ff8082161515928501929092529190910416151560a082015260048201805460c090920191611a94906148dd565b80601f0160208091040260200160405190810160405280929190818152602001828054611ac0906148dd565b8015611b0d5780601f10611ae257610100808354040283529160200191611b0d565b820191906000526020600020905b815481529060010190602001808311611af057829003601f168201915b505050505081525050815260200190600101906119dc565b5050505081526020016005820160009054906101000a90046001600160a01b03166001600160a01b03166001600160a01b0316815260200160068201548152505090506000611b8d82604001518360600151610c5787604051602001610c4391815260200190565b60008581526007602052604080822090516312b037ff60e01b815292935090916001600160a01b037f000000000000000000000000000000000000000000000000000000000000000016916312b037ff91611bef918891879190600401614a10565b6000604051808303816000875af1158015611c0e573d6000803e3d6000fd5b505050506040513d6000823e601f3d908101601f19168201604052611c369190810190614e2e565b90506000611c4482826126bc565b6000878152600860209081526040808320848452909152812060010154919250600160a01b90910463ffffffff169003611c9b5760405163e39a92b760e01b81526004810187905260248101829052604401610d64565b600086815260086020908152604080832084845280835281842060018101805463ffffffff4216600160a01b0263ffffffff60a01b199091161790559385905290915251829188917f143614a05a1facad63ed89ba02e510ec8c36cdc2e98a186044de5d3c30195a4391611d3691815481526001909101546001600160a01b038116602083015260a01c63ffffffff16604082015260600190565b60405180910390a350505050505050565b6000611d52816129ac565b6111a582612b70565b6040516309a711b960e31b815260040160405180910390fd5b6000818152600760205260409020600501546001600160a01b0316338114611dd0576040516327310c2560e21b81526001600160801b0319891660048201526001600160a01b0382166024820152336044820152606401610d64565b611ddf88888888888888612b7c565b817f8ed7a0bc75f77e269c7a6adb735cfc724fd2c5d7e57df975414e59e9c2592a7b60076000858152602001908152602001600020604051611e2191906152b3565b60405180910390a25050505050505050565b611e936040805161010081018252600060c0820181815283516020810190945290835260e0820192909252908190815260200160608152602001606081526020016060815260200160006001600160a01b03168152602001600081525090565b600082815260076020908152604091829020825161010081018452815460801b6001600160801b03191660c082019081528451808501909552600183015460ff161515855260e08201949094529283526002810180549192840191611ef7906148dd565b80601f0160208091040260200160405190810160405280929190818152602001828054611f23906148dd565b8015611f705780601f10611f4557610100808354040283529160200191611f70565b820191906000526020600020905b815481529060010190602001808311611f5357829003601f168201915b5050505050815260200160038201805480602002602001604051908101604052809291908181526020016000905b828210156120ca576000848152602090206040805160c08101909152600484029091018054829060ff166005811115611fd957611fd9613fe6565b6005811115611fea57611fea613fe6565b815260018201546020820152600282015460ff80821615156040840152610100820481161515606084015262010000909104161515608082015260038201805460a090920191612039906148dd565b80601f0160208091040260200160405190810160405280929190818152602001828054612065906148dd565b80156120b25780601f10612087576101008083540402835291602001916120b2565b820191906000526020600020905b81548152906001019060200180831161209557829003601f168201915b50505050508152505081526020019060010190611f9e565b50505050815260200160048201805480602002602001604051908101604052809291908181526020016000905b82821015612240576000848152602090206040805160e08101909152600584029091018054829060ff16600481111561213257612132613fe6565b600481111561214357612143613fe6565b8152815461010090819004608090811b6001600160801b031990811660208501526001850154821b16604084015260028401546060840152600384015460ff8082161515928501929092529190910416151560a082015260048201805460c0909201916121af906148dd565b80601f01602080910402602001604051908101604052809291908181526020018280546121db906148dd565b80156122285780601f106121fd57610100808354040283529160200191612228565b820191906000526020600020905b81548152906001019060200180831161220b57829003601f168201915b505050505081525050815260200190600101906120f7565b5050509082525060058201546001600160a01b0316602082015260069091015460409091015292915050565b600554604051630e972f9160e41b81526004810184905260ff831660248201526000916001600160a01b03169063e972f91090604401602060405180830381865afa1580156122bf573d6000803e3d6000fd5b505050506040513d601f19601f82011682018060405250810190610f8c919061540a565b60006122ee816129ac565b50600580546001600160a01b0319166001600160a01b0392909216919091179055565b600061231c816129ac565b6111a582612af9565b604080516060808201835280825260006020830152818301529051631d1db46b60e21b81527f00000000000000000000000000000000000000000000000000000000000000006001600160a01b031690637476d1ac906114599086908690600401615427565b600082815260016020819052604090912001546123a7816129ac565b6111268383612a24565b604080516060808201835280825260006020830152818301529051631f785c9560e01b81527f00000000000000000000000000000000000000000000000000000000000000006001600160a01b031690631f785c959061241990879087908790600401615442565b600060405180830381865afa158015612436573d6000803e3d6000fd5b505050506040513d6000823e601f3d908101601f1916820160405261245e91908101906150c2565b949350505050565b600554604051632b2bf81b60e11b81526004810183905260609182916001600160a01b0390911690635657f03690602401600060405180830381865afa1580156124b4573d6000803e3d6000fd5b505050506040513d6000823e601f3d908101601f191682016040526124dc91908101906154e8565b91509150915091565b60006040516309a711b960e31b815260040160405180910390fd5b6001600160a01b03851633148061251c575061251c85336124e5565b6125385760405162461bcd60e51b8152600401610d6490614fa1565b6110f98585858585612c31565b6005546040516314067f8b60e01b8152600481018390526001600160a01b03848116602483015260009216906314067f8b90604401602060405180830381865afa158015612597573d6000803e3d6000fd5b505050506040513d601f19601f82011682018060405250810190610f8c91906155a4565b604080516060808201835280825260006020830152818301529051631a0d7ccb60e21b81527f00000000000000000000000000000000000000000000000000000000000000006001600160a01b031690636835f32c90611285908590600401613782565b612627613481565b604051634c92019b60e11b81526001600160a01b037f0000000000000000000000000000000000000000000000000000000000000000169063992403369061267790879087908790600401615673565b600060405180830381865afa158015612694573d6000803e3d6000fd5b505050506040513d6000823e601f3d908101601f1916820160405261245e9190810190615976565b6000805b836060015151811015612753578260058111156126df576126df613fe6565b846060015182815181106126f5576126f56150f6565b602002602001015160000151600581111561271257612712613fe6565b03612741578360600151818151811061272d5761272d6150f6565b6020026020010151604001519150506107f2565b8061274b81615122565b9150506126c0565b508160405163267ac2cf60e01b8152600401610d649190615a3f565b60006001600160e01b03198216636cdb3d1360e11b14806127a057506001600160e01b031982166303a24d0760e21b145b806107f257506107f282612d6d565b60606004805461102f906148dd565b81518351146128205760405162461bcd60e51b815260206004820152602860248201527f455243313135353a2069647320616e6420616d6f756e7473206c656e677468206044820152670dad2e6dac2e8c6d60c31b6064820152608401610d64565b6001600160a01b0384166128465760405162461bcd60e51b8152600401610d6490615a4d565b33612855818787878787611d5b565b60005b845181101561293e576000858281518110612875576128756150f6565b602002602001015190506000858381518110612893576128936150f6565b60209081029190910181015160008481526002835260408082206001600160a01b038e1683529093529190912054909150818110156128e45760405162461bcd60e51b8152600401610d6490615a92565b60008381526002602090815260408083206001600160a01b038e8116855292528083208585039055908b16825281208054849290612923908490615adc565b925050819055505050508061293790615122565b9050612858565b50846001600160a01b0316866001600160a01b0316826001600160a01b03167f4a39dc06d4c0dbc64b70af90fd698a233a518aa5d07e595d983b8c0526c8f7fb878760405161298e929190615aef565b60405180910390a46129a4818787878787612da2565b505050505050565b6129b68133612f06565b50565b6129c38282611731565b6111a55760008281526001602081815260408084206001600160a01b0386168086529252808420805460ff19169093179092559051339285917f2f8788117e7eff1d82e926ec794901d17c78024a50270940304540a733656f0d9190a45050565b612a2e8282611731565b156111a55760008281526001602090815260408083206001600160a01b0385168085529252808320805460ff1916905551339285917ff6391f5c32d9c69d2a47ea670b442974b53935d1edc7fd64eb21e047a839171b9190a45050565b612ab1604080518082018252600080825282516020818101909452908152909182015290565b6040518060400160405280846001600160801b0319168152602001612af084604080516020808201835260009091528151908101909152901515815290565b90529392505050565b60046111a58282615b5a565b612b0e81612f5f565b612b1d87878787878787612b7c565b807f2ca78c31fd1a7ac9bf2b3458f3f8376fa02d7b7022de5b91be03587a3619fc7e60076000848152602001908152602001600020604051612b5f91906152b3565b60405180910390a250505050505050565b60066111a58282615b5a565b600081815260076020526040902080546001600160801b031916608089901c17815560018101805460ff1916881515179055600201612bbb8682615b5a565b50612bc68185612fa1565b612bd081846130a4565b6001600160a01b03821615612be55781612bfa565b72c92065f759c3d1c94d08c27a2ab97a1c874cbc5b60009182526007602052604090912060050180546001600160a01b0319166001600160a01b03909216919091179055505050505050565b6001600160a01b038416612c575760405162461bcd60e51b8152600401610d6490615a4d565b336000612c63856131c9565b90506000612c70856131c9565b9050612c80838989858589611d5b565b60008681526002602090815260408083206001600160a01b038c16845290915290205485811015612cc35760405162461bcd60e51b8152600401610d6490615a92565b60008781526002602090815260408083206001600160a01b038d8116855292528083208985039055908a16825281208054889290612d02908490615adc565b909155505060408051888152602081018890526001600160a01b03808b16928c821692918816917fc3d58168c5ae7397731d063d5bbf3d657854427343f4c083240f7aacaa2d0f62910160405180910390a4612d62848a8a8a8a8a613214565b505050505050505050565b60006001600160e01b03198216637965db0b60e01b14806107f257506301ffc9a760e01b6001600160e01b03198316146107f2565b6001600160a01b0384163b156129a45760405163bc197c8160e01b81526001600160a01b0385169063bc197c8190612de69089908990889088908890600401615c19565b6020604051808303816000875af1925050508015612e21575060408051601f3d908101601f19168201909252612e1e91810190615c77565b60015b612ecd57612e2d615c94565b806308c379a003612e665750612e41615caf565b80612e4c5750612e68565b8060405162461bcd60e51b8152600401610d649190613782565b505b60405162461bcd60e51b815260206004820152603460248201527f455243313135353a207472616e7366657220746f206e6f6e2d455243313135356044820152732932b1b2b4bb32b91034b6b83632b6b2b73a32b960611b6064820152608401610d64565b6001600160e01b0319811663bc197c8160e01b14612efd5760405162461bcd60e51b8152600401610d6490615d38565b50505050505050565b612f108282611731565b6111a557612f1d816132cf565b612f288360206132e1565b604051602001612f39929190615d80565b60408051601f198184030181529082905262461bcd60e51b8252610d6491600401613782565b612f6c816302625a001190565b15612f8d5760405163b061c8d760e01b815260048101829052602401610d64565b600081815260076020526040902060060155565b6000828152600760205260408120600301905b825181101561309e5781838281518110612fd057612fd06150f6565b60209081029190910181015182546001818101855560009485529290932081516004909402018054919390929091839160ff199091169083600581111561301957613019613fe6565b0217905550602082015160018201556040820151600282018054606085015160808601511515620100000262ff0000199115156101000261ff00199515159590951661ffff1990931692909217939093179290921691909117905560a082015160038201906130889082615b5a565b505050808061309690615122565b915050612fb4565b50505050565b6000828152600760205260408120600401905b825181101561309e57818382815181106130d3576130d36150f6565b60209081029190910181015182546001818101855560009485529290932081516005909402018054919390929091839160ff199091169083600481111561311c5761311c613fe6565b02179055506020820151815470ffffffffffffffffffffffffffffffff001916610100608092831c810291909117835560408401516001840180546001600160801b03191691841c919091179055606084015160028401559083015160038301805460a086015161ffff1990911692151561ff0019169290921791151590920217905560c082015160048201906131b39082615b5a565b50505080806131c190615122565b9150506130b7565b60408051600180825281830190925260609160009190602080830190803683370190505090508281600081518110613203576132036150f6565b602090810291909101015292915050565b6001600160a01b0384163b156129a45760405163f23a6e6160e01b81526001600160a01b0385169063f23a6e61906132589089908990889088908890600401615df5565b6020604051808303816000875af1925050508015613293575060408051601f3d908101601f1916820190925261329091810190615c77565b60015b61329f57612e2d615c94565b6001600160e01b0319811663f23a6e6160e01b14612efd5760405162461bcd60e51b8152600401610d6490615d38565b60606107f26001600160a01b03831660145b606060006132f0836002615e3a565b6132fb906002615adc565b6001600160401b0381111561331257613312613522565b6040519080825280601f01601f19166020018201604052801561333c576020820181803683370190505b509050600360fc1b81600081518110613357576133576150f6565b60200101906001600160f81b031916908160001a905350600f60fb1b81600181518110613386576133866150f6565b60200101906001600160f81b031916908160001a90535060006133aa846002615e3a565b6133b5906001615adc565b90505b600181111561342d576f181899199a1a9b1b9c1cb0b131b232b360811b85600f16601081106133e9576133e96150f6565b1a60f81b8282815181106133ff576133ff6150f6565b60200101906001600160f81b031916908160001a90535060049490941c9361342681615e51565b90506133b8565b508315610f8c5760405162461bcd60e51b815260206004820181905260248201527f537472696e67733a20686578206c656e67746820696e73756666696369656e746044820152606401610d64565b905290565b604051806080016040528060006001600160801b0319168152602001606081526020016060815260200161347c604051806060016040528060608152602001600015158152602001606081525090565b6001600160a01b03811681146129b657600080fd5b80356134f1816134d1565b919050565b6000806040838503121561350957600080fd5b8235613514816134d1565b946020939093013593505050565b634e487b7160e01b600052604160045260246000fd5b60c081018181106001600160401b038211171561355757613557613522565b60405250565b60a081018181106001600160401b038211171561355757613557613522565b608081018181106001600160401b038211171561355757613557613522565b601f8201601f191681016001600160401b03811182821017156135c0576135c0613522565b6040525050565b60405160e081016001600160401b03811182821017156135e9576135e9613522565b60405290565b6040516135fb8161355d565b90565b6040516135fb81613538565b60006001600160401b0382111561362357613623613522565b50601f01601f191660200190565b600082601f83011261364257600080fd5b813561364d8161360a565b60405161365a828261359b565b82815285602084870101111561366f57600080fd5b82602086016020830137600092810160200192909252509392505050565b6000806000606084860312156136a257600080fd5b83356001600160401b038111156136b857600080fd5b6136c486828701613631565b93505060208401356136d5816134d1565b929592945050506040919091013590565b6001600160e01b0319811681146129b657600080fd5b60006020828403121561370e57600080fd5b8135610f8c816136e6565b60006020828403121561372b57600080fd5b5035919050565b60005b8381101561374d578181015183820152602001613735565b50506000910152565b6000815180845261376e816020860160208601613732565b601f01601f19169290920160200192915050565b602081526000610f8c6020830184613756565b60006001600160401b038211156137ae576137ae613522565b5060051b60200190565b600082601f8301126137c957600080fd5b813560206137d682613795565b6040516137e3828261359b565b83815260059390931b850182019282810191508684111561380357600080fd5b8286015b8481101561381e5780358352918301918301613807565b509695505050505050565b600080600080600060a0868803121561384157600080fd5b853561384c816134d1565b9450602086013561385c816134d1565b935060408601356001600160401b038082111561387857600080fd5b61388489838a016137b8565b9450606088013591508082111561389a57600080fd5b6138a689838a016137b8565b935060808801359150808211156138bc57600080fd5b506138c988828901613631565b9150509295509295909350565b600080604083850312156138e957600080fd5b8235915060208301356138fb816134d1565b809150509250929050565b80151581146129b657600080fd5b80356134f181613906565b60006020828403121561393157600080fd5b8135610f8c81613906565b60008151606084526139516060850182613756565b9050602083015115156020850152604083015184820360408601526139768282613756565b95945050505050565b602081526000610f8c602083018461393c565b600080604083850312156139a557600080fd5b82356001600160401b03808211156139bc57600080fd5b818501915085601f8301126139d057600080fd5b813560206139dd82613795565b6040516139ea828261359b565b83815260059390931b8501820192828101915089841115613a0a57600080fd5b948201945b83861015613a31578535613a22816134d1565b82529482019490820190613a0f565b96505086013592505080821115613a4757600080fd5b50613a54858286016137b8565b9150509250929050565b600081518084526020808501945080840160005b83811015613a8e57815187529582019590820190600101613a72565b509495945050505050565b602081526000610f8c6020830184613a5e565b60008060408385031215613abf57600080fd5b50508035926020909101359150565b60008060408385031215613ae157600080fd5b82356001600160401b0380821115613af857600080fd5b613b0486838701613631565b93506020850135915080821115613b1a57600080fd5b50613a5485828601613631565b600080600080600060a08688031215613b3f57600080fd5b8535613b4a816134d1565b94506020860135613b5a816134d1565b93506040860135613b6a816134d1565b94979396509394606081013594506080013592915050565b81516001600160801b031916815260208083015151151590820152604081016107f2565b60008060408385031215613bb957600080fd5b82356001600160401b03811115613bcf57600080fd5b613bdb85828601613631565b92505060208301356138fb816134d1565b6001600160801b0319811681146129b657600080fd5b80356134f181613bec565b600681106129b657600080fd5b600082601f830112613c2b57600080fd5b81356020613c3882613795565b60408051613c46838261359b565b84815260059490941b8601830193838101925087851115613c6657600080fd5b8387015b85811015613d305780356001600160401b0380821115613c8a5760008081fd5b9089019060c0828c03601f1901811315613ca45760008081fd5b8551613caf81613538565b88840135613cbc81613c0d565b815283870135898201526060613cd3818601613914565b888301526080613ce4818701613914565b8284015260a09150613cf7828701613914565b90830152918401359183831115613d0e5760008081fd5b613d1c8e8b85880101613631565b908201528752505050928401928401613c6a565b50979650505050505050565b600581106129b657600080fd5b80356134f181613d3c565b600082601f830112613d6557600080fd5b81356020613d7282613795565b60408051613d80838261359b565b84815260059490941b8601830193838101925087851115613da057600080fd5b8387015b85811015613d305780356001600160401b0380821115613dc45760008081fd5b9089019060e0828c03601f1901811315613dde5760008081fd5b613de66135c7565b613df1898501613d49565b8152613dfe878501613c02565b898201526060613e0f818601613c02565b888301526080808601358284015260a09150613e2c828701613914565b9083015260c0613e3d868201613914565b83830152928501359284841115613e5657600091508182fd5b613e648f8c86890101613631565b90830152508752505050928401928401613da4565b600080600080600080600060e0888a031215613e9457600080fd5b8735613e9f81613bec565b96506020880135613eaf81613906565b955060408801356001600160401b0380821115613ecb57600080fd5b613ed78b838c01613631565b965060608a0135915080821115613eed57600080fd5b613ef98b838c01613c1a565b955060808a0135915080821115613f0f57600080fd5b50613f1c8a828b01613d54565b935050613f2b60a089016134e6565b915060c0880135905092959891949750929550565b60008060408385031215613f5357600080fd5b82356001600160401b03811115613f6957600080fd5b613f7585828601613631565b95602094909401359450505050565b600060208284031215613f9657600080fd5b81356001600160401b03811115613fac57600080fd5b61245e84828501613631565b60008060408385031215613fcb57600080fd5b8235613fd6816134d1565b915060208301356138fb81613906565b634e487b7160e01b600052602160045260246000fd5b6006811061400c5761400c613fe6565b9052565b600081518084526020808501808196508360051b8101915082860160005b858110156140a2578284038952815160c061404a868351613ffc565b818701518688015260408083015115159087015260608083015115159087015260808083015115159087015260a09182015191860181905261408e81870183613756565b9a87019a955050509084019060010161402e565b5091979650505050505050565b6005811061400c5761400c613fe6565b600081518084526020808501808196508360051b8101915082860160005b858110156140a2578284038952815160e06140f98683516140af565b818701516001600160801b031990811687890152604080840151909116908701526060808301519087015260808083015115159087015260a08083015115159087015260c09182015191860181905261415481870183613756565b9a87019a95505050908401906001016140dd565b6020808252825180516001600160801b03191683830152015151151560408201526000602083015160e060608401526141a5610100840182613756565b90506040840151601f19808584030160808601526141c38383614010565b925060608601519150808584030160a0860152506141e182826140bf565b60808601516001600160a01b031660c086015260a09095015160e090940193909352509192915050565b60ff811681146129b657600080fd5b6000806040838503121561422d57600080fd5b8235915060208301356138fb8161420b565b60006020828403121561425157600080fd5b8135610f8c816134d1565b6000806040838503121561426f57600080fd5b823561427a81613906565b915060208301356001600160401b0381111561429557600080fd5b613a5485828601613631565b6000806000606084860312156142b657600080fd5b83356001600160401b03808211156142cd57600080fd5b6142d987838801613631565b9450602086013591506142eb82613906565b9092506040850135908082111561430157600080fd5b5061430e86828701613631565b9150509250925092565b604080825283519082018190526000906020906060840190828701845b8281101561435157815184529284019290840190600101614335565b5050508381038285015284518082528583019183019060005b8181101561438957835160ff168352928401929184019160010161436a565b5090979650505050505050565b600080604083850312156143a957600080fd5b82356143b4816134d1565b915060208301356138fb816134d1565b600080600080600060a086880312156143dc57600080fd5b85356143e7816134d1565b945060208601356143f7816134d1565b9350604086013592506060860135915060808601356001600160401b0381111561442057600080fd5b6138c988828901613631565b60006020828403121561443e57600080fd5b5051919050565b80516134f181613bec565b600082601f83011261446157600080fd5b815161446c8161360a565b604051614479828261359b565b82815285602084870101111561448e57600080fd5b613976836020830160208801613732565b80516134f181613906565b600082601f8301126144bb57600080fd5b815160206144c882613795565b604080516144d6838261359b565b84815260059490941b86018301938381019250878511156144f657600080fd5b8387015b85811015613d305780516001600160401b038082111561451a5760008081fd5b9089019060a0828c03601f19018113156145345760008081fd5b855161453f8161355d565b8884015161454c81613c0d565b81528387015161455b81613906565b818a015260608481015161456e81613906565b828901526080858101518284015292850151928484111561459157600091508182fd5b61459f8f8c86890101614450565b908301525087525050509284019284016144fa565b80516134f181613d3c565b600082601f8301126145d057600080fd5b815160206145dd82613795565b604080516145eb838261359b565b84815260059490941b860183019383810192508785111561460b57600080fd5b8387015b85811015613d305780516001600160401b038082111561462f5760008081fd5b9089019060c0828c03601f19018113156146495760008081fd5b855161465481613538565b8884015161466181613d3c565b815261466e848801614445565b89820152606061467f818601614445565b88830152608061469081870161449f565b8284015260a09150818601518184015250828501519250838311156146b55760008081fd5b6146c38e8b85880101614450565b90820152875250505092840192840161460f565b600082601f8301126146e857600080fd5b815160206146f582613795565b604051614702828261359b565b83815260059390931b850182019282810191508684111561472257600080fd5b8286015b8481101561381e5780516001600160401b03808211156147465760008081fd5b9088019060a0828b03601f19018113156147605760008081fd5b6147686135ef565b878401518381111561477a5760008081fd5b6147888d8a838801016144aa565b82525060408401518381111561479e5760008081fd5b6147ac8d8a838801016145bf565b89830152506060808501516040830152608080860151858111156147d05760008081fd5b6147de8f8c838a0101614450565b84840152509285015192848411156147f857600091508182fd5b6148068e8b86890101614450565b90830152508652505050918301918301614726565b60006020828403121561482d57600080fd5b81516001600160401b038082111561484457600080fd5b9083019060a0828603121561485857600080fd5b6040516148648161355d565b825161486f81613bec565b815261487d60208401614445565b60208201526040830151604082015260608301518281111561489e57600080fd5b6148aa87828601614450565b6060830152506080830151828111156148c257600080fd5b6148ce878286016146d7565b60808301525095945050505050565b600181811c908216806148f157607f821691505b60208210810361491157634e487b7160e01b600052602260045260246000fd5b50919050565b600081518084526020808501808196508360051b8101915082860160005b858110156140a2578284038952815160c06149518683516140af565b818701516001600160801b031990811687890152604080840151909116908701526060808301511515908701526080808301519087015260a0918201519186018190526149a081870183613756565b9a87019a9550505090840190600101614935565b6001600160801b0319815116825260006020820151608060208501526149dd6080850182614010565b9050604083015184820360408601526149f682826140bf565b91505060608301518482036060860152613976828261393c565b600060808083526001600160801b0319808751168285015260208088015182811660a087015250604088015191508160c08601526060880151915060a060e0860152614a60610120860183613756565b88840151868203607f1901610100880152805180835291935082019082840190600581901b8501840160005b82811015614b9957601f198783030184528451805160a0808552815190850181905260c0600582901b86018101928a01919086019060005b81811015614b2e5760bf198886030183528351614ae2868251613ffc565b8c81015115158d870152604081015115156040870152606081015160608701528e810151905060a08f870152614b1b60a0870182613756565b955050928b0192918b0191600101614ac4565b505050508782015184820389860152614b478282614917565b9150506040820151604085015260608201518482036060860152614b6b8282613756565b9150508982015191508381038a850152614b858183613756565b968801969588019593505050600101614a8c565b50888103858a0152614bab818c6149b4565b97505050505050505061245e6040830184805460801b6001600160801b03191682526001015460ff161515602090910152565b600082601f830112614bef57600080fd5b81516020614bfc82613795565b60408051614c0a838261359b565b84815260059490941b8601830193838101925087851115614c2a57600080fd5b8387015b85811015613d305780516001600160401b0380821115614c4d57600080fd5b9089019060a0828c03601f19011215614c665760008081fd5b8451614c718161355d565b87830151614c7e81613c0d565b8152614c8b83870161449f565b888201526060808401518783015260808085015184811115614cad5760008081fd5b614cbb8f8c83890101614450565b838501525060a0850151915083821115614cd55760008081fd5b614ce38e8b84880101614450565b908301525086525050928401928401614c2e565b600082601f830112614d0857600080fd5b81516020614d1582613795565b604051614d22828261359b565b83815260059390931b8501820192828101915086841115614d4257600080fd5b8286015b8481101561381e5780516001600160401b0380821115614d665760008081fd5b9088019060e0828b03601f1901811315614d805760008081fd5b614d886135c7565b614d938885016145b4565b8152614da160408501614445565b888201526060614db2818601614445565b60408301526080808601518284015260a091508186015185811115614dd75760008081fd5b614de58f8c838a0101614450565b82850152505060c0808601518284015283860151935084841115614e0b57600091508182fd5b614e198e8b86890101614450565b90830152508652505050918301918301614d46565b600060208284031215614e4057600080fd5b81516001600160401b0380821115614e5757600080fd5b9083019060c08286031215614e6b57600080fd5b614e736135fe565b614e7c83614445565b8152614e8a60208401614445565b602082015260408301516040820152606083015182811115614eab57600080fd5b614eb787828601614bde565b606083015250608083015182811115614ecf57600080fd5b614edb87828601614cf7565b60808301525060a083015182811115614ef357600080fd5b614eff87828601614450565b60a08301525095945050505050565b600060208284031215614f2057600080fd5b8151610f8c816134d1565b6000808354614f39816148dd565b60018281168015614f515760018114614f6657614f95565b60ff1984168752821515830287019450614f95565b8760005260208060002060005b85811015614f8c5781548a820152908401908201614f73565b50505082870194505b50929695505050505050565b6020808252602e908201527f455243313135353a2063616c6c6572206973206e6f7420746f6b656e206f776e60408201526d195c881bdc88185c1c1c9bdd995960921b606082015260800190565b60006020828403121561500157600080fd5b81516001600160401b0381111561501757600080fd5b61245e84828501614450565b60006060828403121561503557600080fd5b604051606081016001600160401b03828210818311171561505857615058613522565b81604052829350845191508082111561507057600080fd5b61507c86838701614450565b83526020850151915061508e82613906565b81602084015260408501519150808211156150a857600080fd5b506150b585828601614450565b6040830152505092915050565b6000602082840312156150d457600080fd5b81516001600160401b038111156150ea57600080fd5b61245e84828501615023565b634e487b7160e01b600052603260045260246000fd5b634e487b7160e01b600052601160045260246000fd5b6000600182016151345761513461510c565b5060010190565b60408152600061514e6040830185613756565b82810360208401526139768185613756565b6000815461516d816148dd565b80855260206001838116801561518a57600181146151a4576151d2565b60ff1985168884015283151560051b8801830195506151d2565b866000528260002060005b858110156151ca5781548a82018601529083019084016151af565b890184019650505b505050505092915050565b600081548084526020808501808196506005915083821b8101866000528360002060005b868110156152a5578383038a5260e0825460ff615220868284166140af565b607882901b6001600160801b031916868a0152600185015460801b6001600160801b031981166040880152915060028501546060870152600385015481811615156080880152915061527b60a08701828460081c1615159052565b50508060c085015261529281850160048501615160565b9a87019a93505090840190600101615201565b509098975050505050505050565b600060208083526152e381840185805460801b6001600160801b03191682526001015460ff161515602090910152565b606060e0818501526152fc610100850160028701615160565b6003808701601f1960808189860301818a01528483548087528887019150888160051b8801018560005289600020955060005b828110156153b1578589830301845260c060ff61534f84828b5416613ffc565b60018901548d850152600289015481811615156040860152818160081c1615158d860152615385888601838360101c1615159052565b50508060a084015261539b8184018a8a01615160565b60049890980197948c019492505060010161532f565b50848c82030160a08d01526153c98160048f016151dd565b99505050505050505050506153e860058501546001600160a01b031690565b6001600160a01b031660c08401526006939093015460e0909201919091525090565b60006020828403121561541c57600080fd5b8151610f8c8161420b565b821515815260406020820152600061245e6040830184613756565b6060815260006154556060830186613756565b8415156020840152828103604084015261546f8185613756565b9695505050505050565b600082601f83011261548a57600080fd5b8151602061549782613795565b6040516154a4828261359b565b83815260059390931b85018201928281019150868411156154c457600080fd5b8286015b8481101561381e5780516154db8161420b565b83529183019183016154c8565b600080604083850312156154fb57600080fd5b82516001600160401b038082111561551257600080fd5b818501915085601f83011261552657600080fd5b8151602061553382613795565b604051615540828261359b565b83815260059390931b850182019282810191508984111561556057600080fd5b948201945b8386101561557e57855182529482019490820190615565565b9188015191965090935050508082111561559757600080fd5b50613a5485828601615479565b6000602082840312156155b657600080fd5b815163ffffffff81168114610f8c57600080fd5b600081518084526020808501808196508360051b8101915082860160005b858110156140a2578284038952815160e06156048683516140af565b818701516001600160801b031990811687890152604080840151909116908701526060808301519087015260808083015115159087015260a08083015115159087015260c09182015191860181905261565f81870183613756565b9a87019a95505050908401906001016155e8565b60006060808301818452808751808352608092508286019150828160051b8701016020808b0160005b8481101561571057607f198a8503018652815160c06156bc868351613ffc565b81850151868601526040808301511515908701528982015115158a8701528882015115158987015260a0918201519186018190526156fc81870183613756565b97850197955050509082019060010161569c565b505087820390880152615723818a6155ca565b945050505050828103604084015261546f818561393c565b600082601f83011261574c57600080fd5b8151602061575982613795565b60408051615767838261359b565b84815260059490941b860183019383810192508785111561578757600080fd5b8387015b85811015613d305780516001600160401b03808211156157ab5760008081fd5b9089019060c0828c03601f19018113156157c55760008081fd5b85516157d081613538565b888401516157dd81613c0d565b8152838701518982015260606157f481860161449f565b88830152608061580581870161449f565b8284015260a0915061581882870161449f565b9083015291840151918383111561582f5760008081fd5b61583d8e8b85880101614450565b90820152875250505092840192840161578b565b600082601f83011261586257600080fd5b8151602061586f82613795565b6040805161587d838261359b565b84815260059490941b860183019383810192508785111561589d57600080fd5b8387015b85811015613d305780516001600160401b03808211156158c15760008081fd5b9089019060e0828c03601f19018113156158db5760008081fd5b6158e36135c7565b6158ee8985016145b4565b81526158fb878501614445565b89820152606061590c818601614445565b888301526080808601518284015260a0915061592982870161449f565b9083015260c061593a86820161449f565b8383015292850151928484111561595357600091508182fd5b6159618f8c86890101614450565b908301525087525050509284019284016158a1565b60006020828403121561598857600080fd5b81516001600160401b038082111561599f57600080fd5b90830190608082860312156159b357600080fd5b6040516159bf8161357c565b6159c883614445565b81526020830151828111156159dc57600080fd5b6159e88782860161573b565b602083015250604083015182811115615a0057600080fd5b615a0c87828601615851565b604083015250606083015182811115615a2457600080fd5b615a3087828601615023565b60608301525095945050505050565b602081016107f28284613ffc565b60208082526025908201527f455243313135353a207472616e7366657220746f20746865207a65726f206164604082015264647265737360d81b606082015260800190565b6020808252602a908201527f455243313135353a20696e73756666696369656e742062616c616e636520666f60408201526939103a3930b739b332b960b11b606082015260800190565b808201808211156107f2576107f261510c565b604081526000615b026040830185613a5e565b82810360208401526139768185613a5e565b601f82111561112657600081815260208120601f850160051c81016020861015615b3b5750805b601f850160051c820191505b818110156129a457828155600101615b47565b81516001600160401b03811115615b7357615b73613522565b615b8781615b8184546148dd565b84615b14565b602080601f831160018114615bbc5760008415615ba45750858301515b600019600386901b1c1916600185901b1785556129a4565b600085815260208120601f198616915b82811015615beb57888601518255948401946001909101908401615bcc565b5085821015615c095787850151600019600388901b60f8161c191681555b5050505050600190811b01905550565b6001600160a01b0386811682528516602082015260a060408201819052600090615c4590830186613a5e565b8281036060840152615c578186613a5e565b90508281036080840152615c6b8185613756565b98975050505050505050565b600060208284031215615c8957600080fd5b8151610f8c816136e6565b600060033d11156135fb5760046000803e5060005160e01c90565b600060443d1015615cbd5790565b6040516003193d81016004833e81513d6001600160401b038160248401118184111715615cec57505050505090565b8285019150815181811115615d045750505050505090565b843d8701016020828501011115615d1e5750505050505090565b615d2d6020828601018761359b565b509095945050505050565b60208082526028908201527f455243313135353a204552433131353552656365697665722072656a656374656040820152676420746f6b656e7360c01b606082015260800190565b7f416363657373436f6e74726f6c3a206163636f756e7420000000000000000000815260008351615db8816017850160208801613732565b7001034b99036b4b9b9b4b733903937b6329607d1b6017918401918201528351615de9816028840160208801613732565b01602801949350505050565b6001600160a01b03868116825285166020820152604081018490526060810183905260a060808201819052600090615e2f90830184613756565b979650505050505050565b80820281158282048414176107f2576107f261510c565b600081615e6057615e6061510c565b50600019019056fea2646970667358221220586e111116815ef1c957099025a493714ec95f41e3d1635dd08660f0de926e8964736f6c63430008140033",
        "linkReferences": {}
    },
    "methodIdentifiers": {
        "ADDRESSES_PROVIDER_V2()": "46916301",
        "APP_ID()": "c187bbc1",
        "CONFIG_REGISTRANT_ROLE()": "5a328596",
        "DEFAULT_ADMIN_ROLE()": "a217fddf",
        "DEFAULT_ZK_BADGE_CONFIG_OWNER()": "3eca9983",
        "EVENT_TRIGGERER_ROLE()": "44112ed8",
        "IMPLEMENTATION_VERSION()": "754b377c",
        "IS_IMPERSONATION_MODE()": "a183dc27",
        "SISMO_CONNECT_LIB_VERSION()": "c9512d99",
        "balanceOf(address,uint256)": "00fdd58e",
        "balanceOfBatch(address[],uint256[])": "4e1273f4",
        "balanceOfVaultId(uint256,uint256)": "6bd14dfa",
        "buildSignature(bool)": "49161195",
        "buildSignature(bool,bytes)": "cea8eb4e",
        "buildSignature(bytes,bool,bytes)": "e0689703",
        "buildSignature(bytes,bytes)": "6e01370e",
        "claimWithSismoConnect(bytes,address,uint256)": "01d682dd",
        "config()": "79502c55",
        "getAttestationsRegistry()": "730cb7d5",
        "getAttributeValueForBadge(uint256,uint8)": "aed8c6bc",
        "getAttributesNamesAndValuesForBadge(uint256)": "e37ffe7c",
        "getBadgeExtraData(address,uint256)": "3e1f3c27",
        "getBadgeIssuer(address,uint256)": "0e064366",
        "getBadgeTimestamp(address,uint256)": "ff4468c4",
        "getRoleAdmin(bytes32)": "248a9ca3",
        "getZKBadgeConfig(uint256)": "ac6c3e69",
        "grantRole(bytes32,address)": "2f2ff15d",
        "hasRole(bytes32,address)": "91d14854",
        "initialize(string,address)": "7ab4339d",
        "isApprovedForAll(address,address)": "e985e9c5",
        "isVaultIdUsedForTokenId(uint256,uint256)": "dc0ec5e8",
        "registerZKBadgeConfig(bytes16,bool,string,(uint8,uint256,bool,bool,bool,bytes)[],(uint8,bytes16,bytes16,uint256,bool,bool,bytes)[],address,uint256)": "869f023e",
        "renewWithSismoConnect(bytes,uint256)": "96d75b93",
        "renounceRole(bytes32,address)": "36568abe",
        "revokeRole(bytes32,address)": "d547741f",
        "safeBatchTransferFrom(address,address,uint256[],uint256[],bytes)": "2eb2c2d6",
        "safeTransferFrom(address,address,uint256,uint256,bytes)": "f242432a",
        "setApprovalForAll(address,bool)": "a22cb465",
        "setAttestationsRegistry(address)": "b3c1cb21",
        "setLegacyUri(string)": "cdb7e664",
        "setUri(string)": "9b642de1",
        "supportsInterface(bytes4)": "01ffc9a7",
        "triggerTransferEvent(address,address,address,uint256,uint256)": "710b3096",
        "updateZKBadgeConfig(bytes16,bool,string,(uint8,uint256,bool,bool,bool,bytes)[],(uint8,bytes16,bytes16,uint256,bool,bool,bytes)[],address,uint256)": "a75400b3",
        "uri(uint256)": "0e89341c"
    },
    "id": 58
}