{
  "abi": [
    {
      "inputs": [
        {
          "internalType": "string",
          "name": "legacyUri",
          "type": "string"
        },
        {
          "internalType": "address",
          "name": "owner",
          "type": "address"
        }
      ],
      "stateMutability": "nonpayable",
      "type": "constructor"
    },
    {
      "inputs": [
        {
          "internalType": "enum AuthType",
          "name": "authType",
          "type": "uint8"
        }
      ],
      "name": "AuthTypeNotFoundInVerifiedResult",
      "type": "error"
    },
    {
      "inputs": [],
      "name": "BadgesNonTransferrable",
      "type": "error"
    },
    {
      "inputs": [
        {
          "internalType": "bytes16",
          "name": "appId",
          "type": "bytes16"
        },
        {
          "internalType": "address",
          "name": "configOwner",
          "type": "address"
        },
        {
          "internalType": "address",
          "name": "attacker",
          "type": "address"
        }
      ],
      "name": "NotZKBadgeConfigOwner",
      "type": "error"
    },
    {
      "inputs": [
        {
          "internalType": "uint256",
          "name": "tokenId",
          "type": "uint256"
        }
      ],
      "name": "TokenIdAlreadyUsedFromLegacy",
      "type": "error"
    },
    {
      "inputs": [
        {
          "internalType": "uint256",
          "name": "tokenId",
          "type": "uint256"
        },
        {
          "internalType": "uint256",
          "name": "vaultId",
          "type": "uint256"
        }
      ],
      "name": "VaultIdNotUsedForTokenId",
      "type": "error"
    },
    {
      "inputs": [
        {
          "internalType": "uint256",
          "name": "tokenId",
          "type": "uint256"
        },
        {
          "internalType": "uint256",
          "name": "vaultId",
          "type": "uint256"
        },
        {
          "internalType": "uint256",
          "name": "vaultIdWithZKBadge",
          "type": "uint256"
        }
      ],
      "name": "ZKBadgeAlreadyMintedWithAnotherVaultId",
      "type": "error"
    },
    {
      "inputs": [
        {
          "internalType": "uint256",
          "name": "tokenId",
          "type": "uint256"
        },
        {
          "internalType": "uint256",
          "name": "vaultId",
          "type": "uint256"
        }
      ],
      "name": "ZKBadgeAlreadyMintedWithVaultId",
      "type": "error"
    },
    {
      "inputs": [
        {
          "internalType": "uint256",
          "name": "tokenId",
          "type": "uint256"
        }
      ],
      "name": "ZKBadgeConfigAlreadyRegistered",
      "type": "error"
    },
    {
      "anonymous": false,
      "inputs": [
        {
          "indexed": true,
          "internalType": "address",
          "name": "account",
          "type": "address"
        },
        {
          "indexed": true,
          "internalType": "address",
          "name": "operator",
          "type": "address"
        },
        {
          "indexed": false,
          "internalType": "bool",
          "name": "approved",
          "type": "bool"
        }
      ],
      "name": "ApprovalForAll",
      "type": "event"
    },
    {
      "anonymous": false,
      "inputs": [
        {
          "indexed": false,
          "internalType": "uint8",
          "name": "version",
          "type": "uint8"
        }
      ],
      "name": "Initialized",
      "type": "event"
    },
    {
      "anonymous": false,
      "inputs": [
        {
          "indexed": true,
          "internalType": "bytes32",
          "name": "role",
          "type": "bytes32"
        },
        {
          "indexed": true,
          "internalType": "bytes32",
          "name": "previousAdminRole",
          "type": "bytes32"
        },
        {
          "indexed": true,
          "internalType": "bytes32",
          "name": "newAdminRole",
          "type": "bytes32"
        }
      ],
      "name": "RoleAdminChanged",
      "type": "event"
    },
    {
      "anonymous": false,
      "inputs": [
        {
          "indexed": true,
          "internalType": "bytes32",
          "name": "role",
          "type": "bytes32"
        },
        {
          "indexed": true,
          "internalType": "address",
          "name": "account",
          "type": "address"
        },
        {
          "indexed": true,
          "internalType": "address",
          "name": "sender",
          "type": "address"
        }
      ],
      "name": "RoleGranted",
      "type": "event"
    },
    {
      "anonymous": false,
      "inputs": [
        {
          "indexed": true,
          "internalType": "bytes32",
          "name": "role",
          "type": "bytes32"
        },
        {
          "indexed": true,
          "internalType": "address",
          "name": "account",
          "type": "address"
        },
        {
          "indexed": true,
          "internalType": "address",
          "name": "sender",
          "type": "address"
        }
      ],
      "name": "RoleRevoked",
      "type": "event"
    },
    {
      "anonymous": false,
      "inputs": [
        {
          "indexed": true,
          "internalType": "address",
          "name": "operator",
          "type": "address"
        },
        {
          "indexed": true,
          "internalType": "address",
          "name": "from",
          "type": "address"
        },
        {
          "indexed": true,
          "internalType": "address",
          "name": "to",
          "type": "address"
        },
        {
          "indexed": false,
          "internalType": "uint256[]",
          "name": "ids",
          "type": "uint256[]"
        },
        {
          "indexed": false,
          "internalType": "uint256[]",
          "name": "values",
          "type": "uint256[]"
        }
      ],
      "name": "TransferBatch",
      "type": "event"
    },
    {
      "anonymous": false,
      "inputs": [
        {
          "indexed": true,
          "internalType": "address",
          "name": "operator",
          "type": "address"
        },
        {
          "indexed": true,
          "internalType": "address",
          "name": "from",
          "type": "address"
        },
        {
          "indexed": true,
          "internalType": "address",
          "name": "to",
          "type": "address"
        },
        {
          "indexed": false,
          "internalType": "uint256",
          "name": "id",
          "type": "uint256"
        },
        {
          "indexed": false,
          "internalType": "uint256",
          "name": "value",
          "type": "uint256"
        }
      ],
      "name": "TransferSingle",
      "type": "event"
    },
    {
      "anonymous": false,
      "inputs": [
        {
          "indexed": false,
          "internalType": "string",
          "name": "value",
          "type": "string"
        },
        {
          "indexed": true,
          "internalType": "uint256",
          "name": "id",
          "type": "uint256"
        }
      ],
      "name": "URI",
      "type": "event"
    },
    {
      "anonymous": false,
      "inputs": [
        {
          "indexed": true,
          "internalType": "uint256",
          "name": "tokenId",
          "type": "uint256"
        },
        {
          "components": [
            {
              "components": [
                {
                  "internalType": "bytes16",
                  "name": "appId",
                  "type": "bytes16"
                },
                {
                  "components": [
                    {
                      "internalType": "bool",
                      "name": "isImpersonationMode",
                      "type": "bool"
                    }
                  ],
                  "internalType": "struct VaultConfig",
                  "name": "vault",
                  "type": "tuple"
                }
              ],
              "internalType": "struct SismoConnectConfig",
              "name": "config",
              "type": "tuple"
            },
            {
              "internalType": "string",
              "name": "uri",
              "type": "string"
            },
            {
              "components": [
                {
                  "internalType": "enum AuthType",
                  "name": "authType",
                  "type": "uint8"
                },
                {
                  "internalType": "uint256",
                  "name": "userId",
                  "type": "uint256"
                },
                {
                  "internalType": "bool",
                  "name": "isAnon",
                  "type": "bool"
                },
                {
                  "internalType": "bool",
                  "name": "isOptional",
                  "type": "bool"
                },
                {
                  "internalType": "bool",
                  "name": "isSelectableByUser",
                  "type": "bool"
                },
                {
                  "internalType": "bytes",
                  "name": "extraData",
                  "type": "bytes"
                }
              ],
              "internalType": "struct AuthRequest[]",
              "name": "authRequests",
              "type": "tuple[]"
            },
            {
              "components": [
                {
                  "internalType": "enum ClaimType",
                  "name": "claimType",
                  "type": "uint8"
                },
                {
                  "internalType": "bytes16",
                  "name": "groupId",
                  "type": "bytes16"
                },
                {
                  "internalType": "bytes16",
                  "name": "groupTimestamp",
                  "type": "bytes16"
                },
                {
                  "internalType": "uint256",
                  "name": "value",
                  "type": "uint256"
                },
                {
                  "internalType": "bool",
                  "name": "isOptional",
                  "type": "bool"
                },
                {
                  "internalType": "bool",
                  "name": "isSelectableByUser",
                  "type": "bool"
                },
                {
                  "internalType": "bytes",
                  "name": "extraData",
                  "type": "bytes"
                }
              ],
              "internalType": "struct ClaimRequest[]",
              "name": "claimRequests",
              "type": "tuple[]"
            },
            {
              "internalType": "address",
              "name": "owner",
              "type": "address"
            },
            {
              "internalType": "uint256",
              "name": "tokenId",
              "type": "uint256"
            }
          ],
          "indexed": false,
          "internalType": "struct IZKBadgeMinter.ZKBadgeConfig",
          "name": "config",
          "type": "tuple"
        }
      ],
      "name": "ZKBadgeConfigRegistered",
      "type": "event"
    },
    {
      "anonymous": false,
      "inputs": [
        {
          "indexed": true,
          "internalType": "uint256",
          "name": "tokenId",
          "type": "uint256"
        },
        {
          "components": [
            {
              "components": [
                {
                  "internalType": "bytes16",
                  "name": "appId",
                  "type": "bytes16"
                },
                {
                  "components": [
                    {
                      "internalType": "bool",
                      "name": "isImpersonationMode",
                      "type": "bool"
                    }
                  ],
                  "internalType": "struct VaultConfig",
                  "name": "vault",
                  "type": "tuple"
                }
              ],
              "internalType": "struct SismoConnectConfig",
              "name": "config",
              "type": "tuple"
            },
            {
              "internalType": "string",
              "name": "uri",
              "type": "string"
            },
            {
              "components": [
                {
                  "internalType": "enum AuthType",
                  "name": "authType",
                  "type": "uint8"
                },
                {
                  "internalType": "uint256",
                  "name": "userId",
                  "type": "uint256"
                },
                {
                  "internalType": "bool",
                  "name": "isAnon",
                  "type": "bool"
                },
                {
                  "internalType": "bool",
                  "name": "isOptional",
                  "type": "bool"
                },
                {
                  "internalType": "bool",
                  "name": "isSelectableByUser",
                  "type": "bool"
                },
                {
                  "internalType": "bytes",
                  "name": "extraData",
                  "type": "bytes"
                }
              ],
              "internalType": "struct AuthRequest[]",
              "name": "authRequests",
              "type": "tuple[]"
            },
            {
              "components": [
                {
                  "internalType": "enum ClaimType",
                  "name": "claimType",
                  "type": "uint8"
                },
                {
                  "internalType": "bytes16",
                  "name": "groupId",
                  "type": "bytes16"
                },
                {
                  "internalType": "bytes16",
                  "name": "groupTimestamp",
                  "type": "bytes16"
                },
                {
                  "internalType": "uint256",
                  "name": "value",
                  "type": "uint256"
                },
                {
                  "internalType": "bool",
                  "name": "isOptional",
                  "type": "bool"
                },
                {
                  "internalType": "bool",
                  "name": "isSelectableByUser",
                  "type": "bool"
                },
                {
                  "internalType": "bytes",
                  "name": "extraData",
                  "type": "bytes"
                }
              ],
              "internalType": "struct ClaimRequest[]",
              "name": "claimRequests",
              "type": "tuple[]"
            },
            {
              "internalType": "address",
              "name": "owner",
              "type": "address"
            },
            {
              "internalType": "uint256",
              "name": "tokenId",
              "type": "uint256"
            }
          ],
          "indexed": false,
          "internalType": "struct IZKBadgeMinter.ZKBadgeConfig",
          "name": "config",
          "type": "tuple"
        }
      ],
      "name": "ZKBadgeConfigUpdated",
      "type": "event"
    },
    {
      "anonymous": false,
      "inputs": [
        {
          "indexed": true,
          "internalType": "uint256",
          "name": "tokenId",
          "type": "uint256"
        },
        {
          "indexed": true,
          "internalType": "uint256",
          "name": "vaultId",
          "type": "uint256"
        },
        {
          "components": [
            {
              "internalType": "uint256",
              "name": "balance",
              "type": "uint256"
            },
            {
              "internalType": "address",
              "name": "owner",
              "type": "address"
            },
            {
              "internalType": "uint32",
              "name": "timestamp",
              "type": "uint32"
            }
          ],
          "indexed": false,
          "internalType": "struct IZKBadgeMinter.ZKBadgeData",
          "name": "zkBadgeData",
          "type": "tuple"
        }
      ],
      "name": "ZKBadgeMinted",
      "type": "event"
    },
    {
      "anonymous": false,
      "inputs": [
        {
          "indexed": true,
          "internalType": "uint256",
          "name": "tokenId",
          "type": "uint256"
        },
        {
          "indexed": true,
          "internalType": "uint256",
          "name": "vaultId",
          "type": "uint256"
        },
        {
          "components": [
            {
              "internalType": "uint256",
              "name": "balance",
              "type": "uint256"
            },
            {
              "internalType": "address",
              "name": "owner",
              "type": "address"
            },
            {
              "internalType": "uint32",
              "name": "timestamp",
              "type": "uint32"
            }
          ],
          "indexed": false,
          "internalType": "struct IZKBadgeMinter.ZKBadgeData",
          "name": "zkBadgeData",
          "type": "tuple"
        }
      ],
      "name": "ZKBadgeRenewed",
      "type": "event"
    },
    {
      "inputs": [],
      "name": "ADDRESSES_PROVIDER_V2",
      "outputs": [
        {
          "internalType": "contract IAddressesProvider",
          "name": "",
          "type": "address"
        }
      ],
      "stateMutability": "view",
      "type": "function"
    },
    {
      "inputs": [],
      "name": "APP_ID",
      "outputs": [
        {
          "internalType": "bytes16",
          "name": "",
          "type": "bytes16"
        }
      ],
      "stateMutability": "view",
      "type": "function"
    },
    {
      "inputs": [],
      "name": "CONFIG_REGISTRANT_ROLE",
      "outputs": [
        {
          "internalType": "bytes32",
          "name": "",
          "type": "bytes32"
        }
      ],
      "stateMutability": "view",
      "type": "function"
    },
    {
      "inputs": [],
      "name": "DEFAULT_ADMIN_ROLE",
      "outputs": [
        {
          "internalType": "bytes32",
          "name": "",
          "type": "bytes32"
        }
      ],
      "stateMutability": "view",
      "type": "function"
    },
    {
      "inputs": [],
      "name": "DEFAULT_ZK_BADGE_CONFIG_OWNER",
      "outputs": [
        {
          "internalType": "address",
          "name": "",
          "type": "address"
        }
      ],
      "stateMutability": "view",
      "type": "function"
    },
    {
      "inputs": [],
      "name": "EVENT_TRIGGERER_ROLE",
      "outputs": [
        {
          "internalType": "bytes32",
          "name": "",
          "type": "bytes32"
        }
      ],
      "stateMutability": "view",
      "type": "function"
    },
    {
      "inputs": [],
      "name": "IMPLEMENTATION_VERSION",
      "outputs": [
        {
          "internalType": "uint8",
          "name": "",
          "type": "uint8"
        }
      ],
      "stateMutability": "view",
      "type": "function"
    },
    {
      "inputs": [],
      "name": "IS_IMPERSONATION_MODE",
      "outputs": [
        {
          "internalType": "bool",
          "name": "",
          "type": "bool"
        }
      ],
      "stateMutability": "view",
      "type": "function"
    },
    {
      "inputs": [],
      "name": "SISMO_CONNECT_LIB_VERSION",
      "outputs": [
        {
          "internalType": "uint256",
          "name": "",
          "type": "uint256"
        }
      ],
      "stateMutability": "view",
      "type": "function"
    },
    {
      "inputs": [
        {
          "internalType": "address",
          "name": "account",
          "type": "address"
        },
        {
          "internalType": "uint256",
          "name": "tokenId",
          "type": "uint256"
        }
      ],
      "name": "balanceOf",
      "outputs": [
        {
          "internalType": "uint256",
          "name": "",
          "type": "uint256"
        }
      ],
      "stateMutability": "view",
      "type": "function"
    },
    {
      "inputs": [
        {
          "internalType": "address[]",
          "name": "accounts",
          "type": "address[]"
        },
        {
          "internalType": "uint256[]",
          "name": "ids",
          "type": "uint256[]"
        }
      ],
      "name": "balanceOfBatch",
      "outputs": [
        {
          "internalType": "uint256[]",
          "name": "",
          "type": "uint256[]"
        }
      ],
      "stateMutability": "view",
      "type": "function"
    },
    {
      "inputs": [
        {
          "internalType": "uint256",
          "name": "tokenId",
          "type": "uint256"
        },
        {
          "internalType": "uint256",
          "name": "vaultId",
          "type": "uint256"
        }
      ],
      "name": "balanceOfVaultId",
      "outputs": [
        {
          "internalType": "uint256",
          "name": "",
          "type": "uint256"
        }
      ],
      "stateMutability": "view",
      "type": "function"
    },
    {
      "inputs": [
        {
          "internalType": "bool",
          "name": "isSelectableByUser",
          "type": "bool"
        }
      ],
      "name": "buildSignature",
      "outputs": [
        {
          "components": [
            {
              "internalType": "bytes",
              "name": "message",
              "type": "bytes"
            },
            {
              "internalType": "bool",
              "name": "isSelectableByUser",
              "type": "bool"
            },
            {
              "internalType": "bytes",
              "name": "extraData",
              "type": "bytes"
            }
          ],
          "internalType": "struct SignatureRequest",
          "name": "",
          "type": "tuple"
        }
      ],
      "stateMutability": "view",
      "type": "function"
    },
    {
      "inputs": [
        {
          "internalType": "bytes",
          "name": "message",
          "type": "bytes"
        },
        {
          "internalType": "bytes",
          "name": "extraData",
          "type": "bytes"
        }
      ],
      "name": "buildSignature",
      "outputs": [
        {
          "components": [
            {
              "internalType": "bytes",
              "name": "message",
              "type": "bytes"
            },
            {
              "internalType": "bool",
              "name": "isSelectableByUser",
              "type": "bool"
            },
            {
              "internalType": "bytes",
              "name": "extraData",
              "type": "bytes"
            }
          ],
          "internalType": "struct SignatureRequest",
          "name": "",
          "type": "tuple"
        }
      ],
      "stateMutability": "view",
      "type": "function"
    },
    {
      "inputs": [
        {
          "internalType": "bool",
          "name": "isSelectableByUser",
          "type": "bool"
        },
        {
          "internalType": "bytes",
          "name": "extraData",
          "type": "bytes"
        }
      ],
      "name": "buildSignature",
      "outputs": [
        {
          "components": [
            {
              "internalType": "bytes",
              "name": "message",
              "type": "bytes"
            },
            {
              "internalType": "bool",
              "name": "isSelectableByUser",
              "type": "bool"
            },
            {
              "internalType": "bytes",
              "name": "extraData",
              "type": "bytes"
            }
          ],
          "internalType": "struct SignatureRequest",
          "name": "",
          "type": "tuple"
        }
      ],
      "stateMutability": "view",
      "type": "function"
    },
    {
      "inputs": [
        {
          "internalType": "bytes",
          "name": "message",
          "type": "bytes"
        },
        {
          "internalType": "bool",
          "name": "isSelectableByUser",
          "type": "bool"
        },
        {
          "internalType": "bytes",
          "name": "extraData",
          "type": "bytes"
        }
      ],
      "name": "buildSignature",
      "outputs": [
        {
          "components": [
            {
              "internalType": "bytes",
              "name": "message",
              "type": "bytes"
            },
            {
              "internalType": "bool",
              "name": "isSelectableByUser",
              "type": "bool"
            },
            {
              "internalType": "bytes",
              "name": "extraData",
              "type": "bytes"
            }
          ],
          "internalType": "struct SignatureRequest",
          "name": "",
          "type": "tuple"
        }
      ],
      "stateMutability": "view",
      "type": "function"
    },
    {
      "inputs": [
        {
          "internalType": "bytes",
          "name": "responseBytes",
          "type": "bytes"
        },
        {
          "internalType": "address",
          "name": "to",
          "type": "address"
        },
        {
          "internalType": "uint256",
          "name": "tokenId",
          "type": "uint256"
        }
      ],
      "name": "claimWithSismoConnect",
      "outputs": [],
      "stateMutability": "nonpayable",
      "type": "function"
    },
    {
      "inputs": [],
      "name": "config",
      "outputs": [
        {
          "components": [
            {
              "internalType": "bytes16",
              "name": "appId",
              "type": "bytes16"
            },
            {
              "components": [
                {
                  "internalType": "bool",
                  "name": "isImpersonationMode",
                  "type": "bool"
                }
              ],
              "internalType": "struct VaultConfig",
              "name": "vault",
              "type": "tuple"
            }
          ],
          "internalType": "struct SismoConnectConfig",
          "name": "",
          "type": "tuple"
        }
      ],
      "stateMutability": "view",
      "type": "function"
    },
    {
      "inputs": [],
      "name": "getAttestationsRegistry",
      "outputs": [
        {
          "internalType": "address",
          "name": "",
          "type": "address"
        }
      ],
      "stateMutability": "view",
      "type": "function"
    },
    {
      "inputs": [
        {
          "internalType": "uint256",
          "name": "id",
          "type": "uint256"
        },
        {
          "internalType": "uint8",
          "name": "index",
          "type": "uint8"
        }
      ],
      "name": "getAttributeValueForBadge",
      "outputs": [
        {
          "internalType": "uint8",
          "name": "",
          "type": "uint8"
        }
      ],
      "stateMutability": "view",
      "type": "function"
    },
    {
      "inputs": [
        {
          "internalType": "uint256",
          "name": "id",
          "type": "uint256"
        }
      ],
      "name": "getAttributesNamesAndValuesForBadge",
      "outputs": [
        {
          "internalType": "bytes32[]",
          "name": "",
          "type": "bytes32[]"
        },
        {
          "internalType": "uint8[]",
          "name": "",
          "type": "uint8[]"
        }
      ],
      "stateMutability": "view",
      "type": "function"
    },
    {
      "inputs": [
        {
          "internalType": "address",
          "name": "account",
          "type": "address"
        },
        {
          "internalType": "uint256",
          "name": "id",
          "type": "uint256"
        }
      ],
      "name": "getBadgeExtraData",
      "outputs": [
        {
          "internalType": "bytes",
          "name": "",
          "type": "bytes"
        }
      ],
      "stateMutability": "view",
      "type": "function"
    },
    {
      "inputs": [
        {
          "internalType": "address",
          "name": "account",
          "type": "address"
        },
        {
          "internalType": "uint256",
          "name": "id",
          "type": "uint256"
        }
      ],
      "name": "getBadgeIssuer",
      "outputs": [
        {
          "internalType": "address",
          "name": "",
          "type": "address"
        }
      ],
      "stateMutability": "view",
      "type": "function"
    },
    {
      "inputs": [
        {
          "internalType": "address",
          "name": "account",
          "type": "address"
        },
        {
          "internalType": "uint256",
          "name": "id",
          "type": "uint256"
        }
      ],
      "name": "getBadgeTimestamp",
      "outputs": [
        {
          "internalType": "uint32",
          "name": "",
          "type": "uint32"
        }
      ],
      "stateMutability": "view",
      "type": "function"
    },
    {
      "inputs": [
        {
          "internalType": "bytes32",
          "name": "role",
          "type": "bytes32"
        }
      ],
      "name": "getRoleAdmin",
      "outputs": [
        {
          "internalType": "bytes32",
          "name": "",
          "type": "bytes32"
        }
      ],
      "stateMutability": "view",
      "type": "function"
    },
    {
      "inputs": [
        {
          "internalType": "uint256",
          "name": "tokenId",
          "type": "uint256"
        }
      ],
      "name": "getZKBadgeConfig",
      "outputs": [
        {
          "components": [
            {
              "components": [
                {
                  "internalType": "bytes16",
                  "name": "appId",
                  "type": "bytes16"
                },
                {
                  "components": [
                    {
                      "internalType": "bool",
                      "name": "isImpersonationMode",
                      "type": "bool"
                    }
                  ],
                  "internalType": "struct VaultConfig",
                  "name": "vault",
                  "type": "tuple"
                }
              ],
              "internalType": "struct SismoConnectConfig",
              "name": "config",
              "type": "tuple"
            },
            {
              "internalType": "string",
              "name": "uri",
              "type": "string"
            },
            {
              "components": [
                {
                  "internalType": "enum AuthType",
                  "name": "authType",
                  "type": "uint8"
                },
                {
                  "internalType": "uint256",
                  "name": "userId",
                  "type": "uint256"
                },
                {
                  "internalType": "bool",
                  "name": "isAnon",
                  "type": "bool"
                },
                {
                  "internalType": "bool",
                  "name": "isOptional",
                  "type": "bool"
                },
                {
                  "internalType": "bool",
                  "name": "isSelectableByUser",
                  "type": "bool"
                },
                {
                  "internalType": "bytes",
                  "name": "extraData",
                  "type": "bytes"
                }
              ],
              "internalType": "struct AuthRequest[]",
              "name": "authRequests",
              "type": "tuple[]"
            },
            {
              "components": [
                {
                  "internalType": "enum ClaimType",
                  "name": "claimType",
                  "type": "uint8"
                },
                {
                  "internalType": "bytes16",
                  "name": "groupId",
                  "type": "bytes16"
                },
                {
                  "internalType": "bytes16",
                  "name": "groupTimestamp",
                  "type": "bytes16"
                },
                {
                  "internalType": "uint256",
                  "name": "value",
                  "type": "uint256"
                },
                {
                  "internalType": "bool",
                  "name": "isOptional",
                  "type": "bool"
                },
                {
                  "internalType": "bool",
                  "name": "isSelectableByUser",
                  "type": "bool"
                },
                {
                  "internalType": "bytes",
                  "name": "extraData",
                  "type": "bytes"
                }
              ],
              "internalType": "struct ClaimRequest[]",
              "name": "claimRequests",
              "type": "tuple[]"
            },
            {
              "internalType": "address",
              "name": "owner",
              "type": "address"
            },
            {
              "internalType": "uint256",
              "name": "tokenId",
              "type": "uint256"
            }
          ],
          "internalType": "struct IZKBadgeMinter.ZKBadgeConfig",
          "name": "",
          "type": "tuple"
        }
      ],
      "stateMutability": "view",
      "type": "function"
    },
    {
      "inputs": [
        {
          "internalType": "bytes32",
          "name": "role",
          "type": "bytes32"
        },
        {
          "internalType": "address",
          "name": "account",
          "type": "address"
        }
      ],
      "name": "grantRole",
      "outputs": [],
      "stateMutability": "nonpayable",
      "type": "function"
    },
    {
      "inputs": [
        {
          "internalType": "bytes32",
          "name": "role",
          "type": "bytes32"
        },
        {
          "internalType": "address",
          "name": "account",
          "type": "address"
        }
      ],
      "name": "hasRole",
      "outputs": [
        {
          "internalType": "bool",
          "name": "",
          "type": "bool"
        }
      ],
      "stateMutability": "view",
      "type": "function"
    },
    {
      "inputs": [
        {
          "internalType": "string",
          "name": "newUri",
          "type": "string"
        },
        {
          "internalType": "address",
          "name": "owner",
          "type": "address"
        }
      ],
      "name": "initialize",
      "outputs": [],
      "stateMutability": "nonpayable",
      "type": "function"
    },
    {
      "inputs": [
        {
          "internalType": "address",
          "name": "",
          "type": "address"
        },
        {
          "internalType": "address",
          "name": "",
          "type": "address"
        }
      ],
      "name": "isApprovedForAll",
      "outputs": [
        {
          "internalType": "bool",
          "name": "",
          "type": "bool"
        }
      ],
      "stateMutability": "view",
      "type": "function"
    },
    {
      "inputs": [
        {
          "internalType": "uint256",
          "name": "tokenId",
          "type": "uint256"
        },
        {
          "internalType": "uint256",
          "name": "vaultId",
          "type": "uint256"
        }
      ],
      "name": "isVaultIdUsedForTokenId",
      "outputs": [
        {
          "internalType": "bool",
          "name": "",
          "type": "bool"
        }
      ],
      "stateMutability": "view",
      "type": "function"
    },
    {
      "inputs": [
        {
          "internalType": "bytes16",
          "name": "appId",
          "type": "bytes16"
        },
        {
          "internalType": "bool",
          "name": "isImpersonationMode",
          "type": "bool"
        },
        {
          "internalType": "string",
          "name": "tokenURI",
          "type": "string"
        },
        {
          "components": [
            {
              "internalType": "enum AuthType",
              "name": "authType",
              "type": "uint8"
            },
            {
              "internalType": "uint256",
              "name": "userId",
              "type": "uint256"
            },
            {
              "internalType": "bool",
              "name": "isAnon",
              "type": "bool"
            },
            {
              "internalType": "bool",
              "name": "isOptional",
              "type": "bool"
            },
            {
              "internalType": "bool",
              "name": "isSelectableByUser",
              "type": "bool"
            },
            {
              "internalType": "bytes",
              "name": "extraData",
              "type": "bytes"
            }
          ],
          "internalType": "struct AuthRequest[]",
          "name": "authRequests",
          "type": "tuple[]"
        },
        {
          "components": [
            {
              "internalType": "enum ClaimType",
              "name": "claimType",
              "type": "uint8"
            },
            {
              "internalType": "bytes16",
              "name": "groupId",
              "type": "bytes16"
            },
            {
              "internalType": "bytes16",
              "name": "groupTimestamp",
              "type": "bytes16"
            },
            {
              "internalType": "uint256",
              "name": "value",
              "type": "uint256"
            },
            {
              "internalType": "bool",
              "name": "isOptional",
              "type": "bool"
            },
            {
              "internalType": "bool",
              "name": "isSelectableByUser",
              "type": "bool"
            },
            {
              "internalType": "bytes",
              "name": "extraData",
              "type": "bytes"
            }
          ],
          "internalType": "struct ClaimRequest[]",
          "name": "claimRequests",
          "type": "tuple[]"
        },
        {
          "internalType": "address",
          "name": "owner",
          "type": "address"
        },
        {
          "internalType": "uint256",
          "name": "tokenId",
          "type": "uint256"
        }
      ],
      "name": "registerZKBadgeConfig",
      "outputs": [],
      "stateMutability": "nonpayable",
      "type": "function"
    },
    {
      "inputs": [
        {
          "internalType": "bytes",
          "name": "responseBytes",
          "type": "bytes"
        },
        {
          "internalType": "uint256",
          "name": "tokenId",
          "type": "uint256"
        }
      ],
      "name": "renewWithSismoConnect",
      "outputs": [],
      "stateMutability": "nonpayable",
      "type": "function"
    },
    {
      "inputs": [
        {
          "internalType": "bytes32",
          "name": "role",
          "type": "bytes32"
        },
        {
          "internalType": "address",
          "name": "account",
          "type": "address"
        }
      ],
      "name": "renounceRole",
      "outputs": [],
      "stateMutability": "nonpayable",
      "type": "function"
    },
    {
      "inputs": [
        {
          "internalType": "bytes32",
          "name": "role",
          "type": "bytes32"
        },
        {
          "internalType": "address",
          "name": "account",
          "type": "address"
        }
      ],
      "name": "revokeRole",
      "outputs": [],
      "stateMutability": "nonpayable",
      "type": "function"
    },
    {
      "inputs": [
        {
          "internalType": "address",
          "name": "from",
          "type": "address"
        },
        {
          "internalType": "address",
          "name": "to",
          "type": "address"
        },
        {
          "internalType": "uint256[]",
          "name": "ids",
          "type": "uint256[]"
        },
        {
          "internalType": "uint256[]",
          "name": "amounts",
          "type": "uint256[]"
        },
        {
          "internalType": "bytes",
          "name": "data",
          "type": "bytes"
        }
      ],
      "name": "safeBatchTransferFrom",
      "outputs": [],
      "stateMutability": "nonpayable",
      "type": "function"
    },
    {
      "inputs": [
        {
          "internalType": "address",
          "name": "from",
          "type": "address"
        },
        {
          "internalType": "address",
          "name": "to",
          "type": "address"
        },
        {
          "internalType": "uint256",
          "name": "id",
          "type": "uint256"
        },
        {
          "internalType": "uint256",
          "name": "amount",
          "type": "uint256"
        },
        {
          "internalType": "bytes",
          "name": "data",
          "type": "bytes"
        }
      ],
      "name": "safeTransferFrom",
      "outputs": [],
      "stateMutability": "nonpayable",
      "type": "function"
    },
    {
      "inputs": [
        {
          "internalType": "address",
          "name": "",
          "type": "address"
        },
        {
          "internalType": "bool",
          "name": "",
          "type": "bool"
        }
      ],
      "name": "setApprovalForAll",
      "outputs": [],
      "stateMutability": "nonpayable",
      "type": "function"
    },
    {
      "inputs": [
        {
          "internalType": "address",
          "name": "attestationsRegistry",
          "type": "address"
        }
      ],
      "name": "setAttestationsRegistry",
      "outputs": [],
      "stateMutability": "nonpayable",
      "type": "function"
    },
    {
      "inputs": [
        {
          "internalType": "string",
          "name": "legacyUri",
          "type": "string"
        }
      ],
      "name": "setLegacyUri",
      "outputs": [],
      "stateMutability": "nonpayable",
      "type": "function"
    },
    {
      "inputs": [
        {
          "internalType": "string",
          "name": "newUri",
          "type": "string"
        }
      ],
      "name": "setUri",
      "outputs": [],
      "stateMutability": "nonpayable",
      "type": "function"
    },
    {
      "inputs": [
        {
          "internalType": "bytes4",
          "name": "interfaceId",
          "type": "bytes4"
        }
      ],
      "name": "supportsInterface",
      "outputs": [
        {
          "internalType": "bool",
          "name": "",
          "type": "bool"
        }
      ],
      "stateMutability": "view",
      "type": "function"
    },
    {
      "inputs": [
        {
          "internalType": "address",
          "name": "operator",
          "type": "address"
        },
        {
          "internalType": "address",
          "name": "from",
          "type": "address"
        },
        {
          "internalType": "address",
          "name": "to",
          "type": "address"
        },
        {
          "internalType": "uint256",
          "name": "id",
          "type": "uint256"
        },
        {
          "internalType": "uint256",
          "name": "value",
          "type": "uint256"
        }
      ],
      "name": "triggerTransferEvent",
      "outputs": [],
      "stateMutability": "nonpayable",
      "type": "function"
    },
    {
      "inputs": [
        {
          "internalType": "bytes16",
          "name": "appId",
          "type": "bytes16"
        },
        {
          "internalType": "bool",
          "name": "isImpersonationMode",
          "type": "bool"
        },
        {
          "internalType": "string",
          "name": "tokenURI",
          "type": "string"
        },
        {
          "components": [
            {
              "internalType": "enum AuthType",
              "name": "authType",
              "type": "uint8"
            },
            {
              "internalType": "uint256",
              "name": "userId",
              "type": "uint256"
            },
            {
              "internalType": "bool",
              "name": "isAnon",
              "type": "bool"
            },
            {
              "internalType": "bool",
              "name": "isOptional",
              "type": "bool"
            },
            {
              "internalType": "bool",
              "name": "isSelectableByUser",
              "type": "bool"
            },
            {
              "internalType": "bytes",
              "name": "extraData",
              "type": "bytes"
            }
          ],
          "internalType": "struct AuthRequest[]",
          "name": "authRequests",
          "type": "tuple[]"
        },
        {
          "components": [
            {
              "internalType": "enum ClaimType",
              "name": "claimType",
              "type": "uint8"
            },
            {
              "internalType": "bytes16",
              "name": "groupId",
              "type": "bytes16"
            },
            {
              "internalType": "bytes16",
              "name": "groupTimestamp",
              "type": "bytes16"
            },
            {
              "internalType": "uint256",
              "name": "value",
              "type": "uint256"
            },
            {
              "internalType": "bool",
              "name": "isOptional",
              "type": "bool"
            },
            {
              "internalType": "bool",
              "name": "isSelectableByUser",
              "type": "bool"
            },
            {
              "internalType": "bytes",
              "name": "extraData",
              "type": "bytes"
            }
          ],
          "internalType": "struct ClaimRequest[]",
          "name": "claimRequests",
          "type": "tuple[]"
        },
        {
          "internalType": "address",
          "name": "owner",
          "type": "address"
        },
        {
          "internalType": "uint256",
          "name": "tokenId",
          "type": "uint256"
        }
      ],
      "name": "updateZKBadgeConfig",
      "outputs": [],
      "stateMutability": "nonpayable",
      "type": "function"
    },
    {
      "inputs": [
        {
          "internalType": "uint256",
          "name": "tokenId",
          "type": "uint256"
        }
      ],
      "name": "uri",
      "outputs": [
        {
          "internalType": "string",
          "name": "",
          "type": "string"
        }
      ],
      "stateMutability": "view",
      "type": "function"
    }
  ],
  "bytecode": {
    "object": "0x6101606040523480156200001257600080fd5b506040516200692a3803806200692a833981016040819052620000359162000731565b6200004260008062000425565b826200004e8162000487565b5080516001600160801b0319166101205260208082015151151561014052604080518082018252601981527f7369736d6f436f6e6e65637456657269666965722d76312e3100000000000000928101929092525163349f642f60e11b8152733cd5334eb64ebbd4003b72022cc25465f1bfcee69163693ec85e91620000d79190600401620007fe565b602060405180830381865afa158015620000f5573d6000803e3d6000fd5b505050506040513d601f19601f820116820180604052508101906200011b919062000833565b6001600160a01b0316608052604080518082018252601781527f61757468526571756573744275696c6465722d76312e310000000000000000006020820152905163349f642f60e11b8152733cd5334eb64ebbd4003b72022cc25465f1bfcee69163693ec85e91620001919190600401620007fe565b602060405180830381865afa158015620001af573d6000803e3d6000fd5b505050506040513d601f19601f82011682018060405250810190620001d5919062000833565b6001600160a01b031660a052604080518082018252601881527f636c61696d526571756573744275696c6465722d76312e3100000000000000006020820152905163349f642f60e11b8152733cd5334eb64ebbd4003b72022cc25465f1bfcee69163693ec85e916200024b9190600401620007fe565b602060405180830381865afa15801562000269573d6000803e3d6000fd5b505050506040513d601f19601f820116820180604052508101906200028f919062000833565b6001600160a01b031660c052604080518082018252601581527f7369676e61747572654275696c6465722d76312e3100000000000000000000006020820152905163349f642f60e11b8152733cd5334eb64ebbd4003b72022cc25465f1bfcee69163693ec85e91620003059190600401620007fe565b602060405180830381865afa15801562000323573d6000803e3d6000fd5b505050506040513d601f19601f8201168201806040525081019062000349919062000833565b6001600160a01b031660e052604080518082018252601381527f726571756573744275696c6465722d76312e31000000000000000000000000006020820152905163349f642f60e11b8152733cd5334eb64ebbd4003b72022cc25465f1bfcee69163693ec85e91620003bf9190600401620007fe565b602060405180830381865afa158015620003dd573d6000803e3d6000fd5b505050506040513d601f19601f8201168201806040525081019062000403919062000833565b6001600160a01b031661010052506200041d828262000499565b5050620009b3565b6200044c604080518082018252600080825282516020818101909452908152909182015290565b506040805180820182526001600160801b03199390931683528051602080820183526000909152815180820190925291151581529082015290565b6004620004958282620008e7565b5050565b600054600490610100900460ff16158015620004bc575060005460ff8083169116105b620005245760405162461bcd60e51b815260206004820152602e60248201527f496e697469616c697a61626c653a20636f6e747261637420697320616c72656160448201526d191e481a5b9a5d1a585b1a5e995960921b606482015260840160405180910390fd5b6000805461ffff191660ff8316176101001781556200054390620005b4565b511580620005505750303b155b156200056e57620005618362000487565b6200056e60008362000650565b6000805461ff001916905560405160ff821681527f7f26b83ff96e1f2b6a682f133852f6798a09c465da95921460cefb38474024989060200160405180910390a1505050565b606060048054620005c59062000858565b80601f0160208091040260200160405190810160405280929190818152602001828054620005f39062000858565b8015620006445780601f10620006185761010080835404028352916020019162000644565b820191906000526020600020905b8154815290600101906020018083116200062657829003601f168201915b50505050509050919050565b60008281526001602090815260408083206001600160a01b038516845290915290205460ff16620004955760008281526001602081815260408084206001600160a01b0386168086529252808420805460ff19169093179092559051339285917f2f8788117e7eff1d82e926ec794901d17c78024a50270940304540a733656f0d9190a45050565b634e487b7160e01b600052604160045260246000fd5b60005b838110156200070b578181015183820152602001620006f1565b50506000910152565b80516001600160a01b03811681146200072c57600080fd5b919050565b600080604083850312156200074557600080fd5b82516001600160401b03808211156200075d57600080fd5b818501915085601f8301126200077257600080fd5b815181811115620007875762000787620006d8565b604051601f8201601f19908116603f01168101908382118183101715620007b257620007b2620006d8565b81604052828152886020848701011115620007cc57600080fd5b620007df836020830160208801620006ee565b8096505050505050620007f56020840162000714565b90509250929050565b60208152600082518060208401526200081f816040850160208701620006ee565b601f01601f19169190910160400192915050565b6000602082840312156200084657600080fd5b620008518262000714565b9392505050565b600181811c908216806200086d57607f821691505b6020821081036200088e57634e487b7160e01b600052602260045260246000fd5b50919050565b601f821115620008e257600081815260208120601f850160051c81016020861015620008bd5750805b601f850160051c820191505b81811015620008de57828155600101620008c9565b5050505b505050565b81516001600160401b03811115620009035762000903620006d8565b6200091b8162000914845462000858565b8462000894565b602080601f8311600181146200095357600084156200093a5750858301515b600019600386901b1c1916600185901b178555620008de565b600085815260208120601f198616915b82811015620009845788860151825594840194600190910190840162000963565b5085821015620009a35787850151600019600388901b60f8161c191681555b5050505050600190811b01905550565b60805160a05160c05160e051610100516101205161014051615ef162000a396000396000818161055401526115e00152600081816105ef01526115bf015260006126910152600081816112be0152818161147e0152818161239f0152818161242b01526126350152600050506000505060008181610c660152611c080152615ef16000f3fe608060405234801561001057600080fd5b506004361061027e5760003560e01c80637ab4339d1161015c578063b3c1cb21116100ce578063dc0ec5e811610087578063dc0ec5e81461066b578063e0689703146106a8578063e37ffe7c146106bb578063e985e9c5146106dc578063f242432a146106ef578063ff4468c41461070257600080fd5b8063b3c1cb21146105d7578063c187bbc1146105ea578063c9512d991461062a578063cdb7e66414610632578063cea8eb4e14610645578063d547741f1461065857600080fd5b8063a183dc2711610120578063a183dc271461054f578063a217fddf14610576578063a22cb4651461057e578063a75400b314610591578063ac6c3e69146105a4578063aed8c6bc146105c457600080fd5b80637ab4339d146104f0578063869f023e1461050357806391d148541461051657806396d75b93146105295780639b642de11461053c57600080fd5b806344112ed8116101f55780636bd14dfa116101b95780636bd14dfa1461045f5780636e01370e1461048a578063710b30961461049d578063730cb7d5146104b0578063754b377c146104c157806379502c55146104db57600080fd5b806344112ed8146103b657806346916301146103dd57806349161195146103f85780634e1273f4146104185780635a3285961461043857600080fd5b8063248a9ca311610247578063248a9ca31461032c5780632eb2c2d6146103505780632f2ff15d1461036357806336568abe146103765780633e1f3c27146103895780633eca99831461039c57600080fd5b8062fdd58e1461028357806301d682dd146102a957806301ffc9a7146102be5780630e064366146102e15780630e89341c1461030c575b600080fd5b610296610291366004613549565b61072a565b6040519081526020015b60405180910390f35b6102bc6102b73660046136e0565b6107f8565b005b6102d16102cc36600461374f565b610f6f565b60405190151581526020016102a0565b6102f46102ef366004613549565b610f7a565b6040516001600160a01b0390911681526020016102a0565b61031f61031a36600461376c565b610ff7565b6040516102a091906137d5565b61029661033a36600461376c565b6000908152600160208190526040909120015490565b6102bc61035e36600461387c565b611118565b6102bc610371366004613929565b611164565b6102bc610384366004613929565b61118f565b61031f610397366004613549565b61120d565b6102f472c92065f759c3d1c94d08c27a2ab97a1c874cbc81565b6102967fe6cd5415a09470f57cb652d653ef635ecd9a997fef2537decaf18eb7545b7fa481565b6102f4733cd5334eb64ebbd4003b72022cc25465f1bfcee681565b61040b610406366004613972565b611287565b6040516102a091906139d2565b61042b6104263660046139e5565b61132e565b6040516102a09190613aec565b6102967f401f66d300c59cfc80f7c726a9eb9d21ee04bdd3629511a0cfec7a609c00328581565b61029661046d366004613aff565b600091825260086020908152604080842092845291905290205490565b61040b610498366004613b21565b611457565b6102bc6104ab366004613b7a565b611502565b6005546001600160a01b03166102f4565b6104c9600481565b60405160ff90911681526020016102a0565b6104e3611594565b6040516102a09190613bd5565b6102bc6104fe366004613bf9565b611609565b6102bc610511366004613ecc565b611716565b6102d1610524366004613929565b611795565b6102bc610537366004613f93565b6117c0565b6102bc61054a366004613fd7565b611d9a565b6102d17f000000000000000000000000000000000000000000000000000000000000000081565b610296600081565b6102bc61058c36600461400b565b611dae565b6102bc61059f366004613ecc565b611dc7565b6105b76105b236600461376c565b611e86565b6040516102a091906141bb565b6104c96105d236600461426d565b6122bf565b6102bc6105e5366004614292565b612336565b6106117f000000000000000000000000000000000000000000000000000000000000000081565b6040516001600160801b031990911681526020016102a0565b610296600281565b6102bc610640366004613fd7565b612364565b61040b6106533660046142af565b612378565b6102bc610666366004613929565b6123de565b6102d1610679366004613aff565b6000918252600860209081526040808420928452919052902060010154600160a01b900463ffffffff16151590565b61040b6106b63660046142f4565b612404565b6106ce6106c936600461376c565b6124b9565b6040516102a092919061436b565b6102d16106ea3660046143e9565b612538565b6102bc6106fd366004614417565b612553565b610715610710366004613549565b612598565b60405163ffffffff90911681526020016102a0565b6000610739826302625a001190565b156107ba5760055460405163461e4f1960e11b8152600481018490526001600160a01b03858116602483015290911690638c3c9e3290604401602060405180830381865afa15801561078f573d6000803e3d6000fd5b505050506040513d601f19601f820116820180604052508101906107b3919061447f565b90506107f2565b5060008181526009602090815260408083206001600160a01b0386168452825280832054848452600883528184209084529091529020545b92915050565b600060019050600084806020019051810190610814919061486e565b6000848152600760209081526040808320815161010081018352815460801b6001600160801b03191660c082019081528351808601909452600183015460ff161515845260e082019390935291825260028101805495965093949193909284019161087e90614930565b80601f01602080910402602001604051908101604052809291908181526020018280546108aa90614930565b80156108f75780601f106108cc576101008083540402835291602001916108f7565b820191906000526020600020905b8154815290600101906020018083116108da57829003601f168201915b5050505050815260200160038201805480602002602001604051908101604052809291908181526020016000905b82821015610a51576000848152602090206040805160c08101909152600484029091018054829060ff16600581111561096057610960614039565b600581111561097157610971614039565b815260018201546020820152600282015460ff80821615156040840152610100820481161515606084015262010000909104161515608082015260038201805460a0909201916109c090614930565b80601f01602080910402602001604051908101604052809291908181526020018280546109ec90614930565b8015610a395780601f10610a0e57610100808354040283529160200191610a39565b820191906000526020600020905b815481529060010190602001808311610a1c57829003601f168201915b50505050508152505081526020019060010190610925565b50505050815260200160048201805480602002602001604051908101604052809291908181526020016000905b82821015610bc7576000848152602090206040805160e08101909152600584029091018054829060ff166004811115610ab957610ab9614039565b6004811115610aca57610aca614039565b8152815461010090819004608090811b6001600160801b031990811660208501526001850154821b16604084015260028401546060840152600384015460ff8082161515928501929092529190910416151560a082015260048201805460c090920191610b3690614930565b80601f0160208091040260200160405190810160405280929190818152602001828054610b6290614930565b8015610baf5780601f10610b8457610100808354040283529160200191610baf565b820191906000526020600020905b815481529060010190602001808311610b9257829003601f168201915b50505050508152505081526020019060010190610a7e565b5050509082525060058201546001600160a01b03908116602080840191909152600690930154604092830152838201516060808601518451938c1695840195909552928201899052939450600091610c3c9185918591610c3791015b60405160208183030381529060405261260e565b612672565b60008881526007602052604080822090516312b037ff60e01b815292935090916001600160a01b037f000000000000000000000000000000000000000000000000000000000000000016916312b037ff91610c9e918a91879190600401614a63565b6000604051808303816000875af1158015610cbd573d6000803e3d6000fd5b505050506040513d6000823e601f3d908101601f19168201604052610ce59190810190614e81565b90506000610cf3828261270f565b60008a8152600860209081526040808320848452909152902060010154909150600160a01b900463ffffffff1615610d4d576040516384e5f13b60e01b8152600481018a9052602481018290526044015b60405180910390fd5b610d578a8a61072a565b15610dab5760008981526009602090815260408083206001600160a01b038e168452909152908190205490516313c35aa360e11b8152600481018b9052602481018390526044810191909152606401610d44565b60405180606001604052808981526020018b6001600160a01b031681526020014263ffffffff16815250600860008b815260200190815260200160002060008381526020019081526020016000206000820151816000015560208201518160010160006101000a8154816001600160a01b0302191690836001600160a01b0316021790555060408201518160010160146101000a81548163ffffffff021916908363ffffffff16021790555090505080600960008b815260200190815260200160002060008c6001600160a01b03166001600160a01b031681526020019081526020016000208190555080897f151b096e8a345f14b4b6978a01ec99e538cea7208101aca08ab7582edc14a7aa600860008d81526020019081526020016000206000858152602001908152602001600020604051610f119190815481526001909101546001600160a01b038116602083015260a01c63ffffffff16604082015260600190565b60405180910390a3604080518a8152602081018a90526001600160a01b038c169160009130917fc3d58168c5ae7397731d063d5bbf3d657854427343f4c083240f7aacaa2d0f62910160405180910390a45050505050505050505050565b60006107f2826127c2565b6005546040516363ed4d5360e11b8152600481018390526001600160a01b038481166024830152600092169063c7da9aa690604401602060405180830381865afa158015610fcc573d6000803e3d6000fd5b505050506040513d601f19601f82011682018060405250810190610ff09190614f61565b9392505050565b6060611006826302625a001190565b15611014576107f282612802565b60408051602080820183526000918290528482526007905281902090517fc5d2460186f7233c927e7db2dcc703c0e500b653ca82273b7bfad8045d85a4709161106291600290910190614f7e565b604051809103902014611085576000828152600760205260409020600201611088565b60065b805461109390614930565b80601f01602080910402602001604051908101604052809291908181526020018280546110bf90614930565b801561110c5780601f106110e15761010080835404028352916020019161110c565b820191906000526020600020905b8154815290600101906020018083116110ef57829003601f168201915b50505050509050919050565b6001600160a01b03851633148061113457506111348533612538565b6111505760405162461bcd60e51b8152600401610d4490614ff4565b61115d8585858585612811565b5050505050565b60008281526001602081905260409091200154611180816129ff565b61118a8383612a0c565b505050565b6001600160a01b03811633146111ff5760405162461bcd60e51b815260206004820152602f60248201527f416363657373436f6e74726f6c3a2063616e206f6e6c792072656e6f756e636560448201526e103937b632b9903337b91039b2b63360891b6064820152608401610d44565b6112098282612a77565b5050565b600554604051636d7fbb6760e01b8152600481018390526001600160a01b0384811660248301526060921690636d7fbb6790604401600060405180830381865afa15801561125f573d6000803e3d6000fd5b505050506040513d6000823e601f3d908101601f19168201604052610ff09190810190615042565b604080516060808201835280825260006020830152818301529051631f6c2b9760e11b815282151560048201526001600160a01b037f00000000000000000000000000000000000000000000000000000000000000001690633ed8572e906024015b600060405180830381865afa158015611306573d6000803e3d6000fd5b505050506040513d6000823e601f3d908101601f191682016040526107f29190810190615115565b606081518351146113935760405162461bcd60e51b815260206004820152602960248201527f455243313135353a206163636f756e747320616e6420696473206c656e677468604482015268040dad2e6dac2e8c6d60bb1b6064820152608401610d44565b600083516001600160401b038111156113ae576113ae613575565b6040519080825280602002602001820160405280156113d7578160200160208202803683370190505b50905060005b845181101561144f576114228582815181106113fb576113fb615149565b602002602001015185838151811061141557611415615149565b602002602001015161072a565b82828151811061143457611434615149565b602090810291909101015261144881615175565b90506113dd565b509392505050565b604080516060808201835280825260006020830152818301529051631778ed1360e21b81527f00000000000000000000000000000000000000000000000000000000000000006001600160a01b031690635de3b44c906114bd908690869060040161518e565b600060405180830381865afa1580156114da573d6000803e3d6000fd5b505050506040513d6000823e601f3d908101601f19168201604052610ff09190810190615115565b7fe6cd5415a09470f57cb652d653ef635ecd9a997fef2537decaf18eb7545b7fa461152c816129ff565b836001600160a01b0316856001600160a01b0316876001600160a01b03167fc3d58168c5ae7397731d063d5bbf3d657854427343f4c083240f7aacaa2d0f628686604051611584929190918252602082015260400190565b60405180910390a4505050505050565b6115ba604080518082018252600080825282516020818101909452908152909182015290565b6116047f00000000000000000000000000000000000000000000000000000000000000007f0000000000000000000000000000000000000000000000000000000000000000612ade565b905090565b600054600490610100900460ff1615801561162b575060005460ff8083169116105b61168e5760405162461bcd60e51b815260206004820152602e60248201527f496e697469616c697a61626c653a20636f6e747261637420697320616c72656160448201526d191e481a5b9a5d1a585b1a5e995960921b6064820152608401610d44565b6000805461ffff191660ff8316176101001781556116ab90612802565b5115806116b75750303b155b156116d0576116c583612b4c565b6116d0600083612a0c565b6000805461ff001916905560405160ff821681527f7f26b83ff96e1f2b6a682f133852f6798a09c465da95921460cefb38474024989060200160405180910390a1505050565b7f401f66d300c59cfc80f7c726a9eb9d21ee04bdd3629511a0cfec7a609c003285611740816129ff565b6000828152600760205260409020600501546001600160a01b03161561177c57604051639c454f9760e01b815260048101839052602401610d44565b61178b88888888888888612b58565b5050505050505050565b60009182526001602090815260408084206001600160a01b0393909316845291905290205460ff1690565b6000828060200190518101906117d6919061486e565b6000838152600760209081526040808320815161010081018352815460801b6001600160801b03191660c082019081528351808601909452600183015460ff161515845260e082019390935291825260028101805495965093949193909284019161184090614930565b80601f016020809104026020016040519081016040528092919081815260200182805461186c90614930565b80156118b95780601f1061188e576101008083540402835291602001916118b9565b820191906000526020600020905b81548152906001019060200180831161189c57829003601f168201915b5050505050815260200160038201805480602002602001604051908101604052809291908181526020016000905b82821015611a13576000848152602090206040805160c08101909152600484029091018054829060ff16600581111561192257611922614039565b600581111561193357611933614039565b815260018201546020820152600282015460ff80821615156040840152610100820481161515606084015262010000909104161515608082015260038201805460a09092019161198290614930565b80601f01602080910402602001604051908101604052809291908181526020018280546119ae90614930565b80156119fb5780601f106119d0576101008083540402835291602001916119fb565b820191906000526020600020905b8154815290600101906020018083116119de57829003601f168201915b505050505081525050815260200190600101906118e7565b50505050815260200160048201805480602002602001604051908101604052809291908181526020016000905b82821015611b89576000848152602090206040805160e08101909152600584029091018054829060ff166004811115611a7b57611a7b614039565b6004811115611a8c57611a8c614039565b8152815461010090819004608090811b6001600160801b031990811660208501526001850154821b16604084015260028401546060840152600384015460ff8082161515928501929092529190910416151560a082015260048201805460c090920191611af890614930565b80601f0160208091040260200160405190810160405280929190818152602001828054611b2490614930565b8015611b715780601f10611b4657610100808354040283529160200191611b71565b820191906000526020600020905b815481529060010190602001808311611b5457829003601f168201915b50505050508152505081526020019060010190611a40565b5050509082525060058201546001600160a01b031660208083019190915260069092015460409182015282810151606084015182519384018890529394509291600091611bde9185918591610c379101610c23565b60008781526007602052604080822090516312b037ff60e01b815292935090916001600160a01b037f000000000000000000000000000000000000000000000000000000000000000016916312b037ff91611c40918a91879190600401614a63565b6000604051808303816000875af1158015611c5f573d6000803e3d6000fd5b505050506040513d6000823e601f3d908101601f19168201604052611c879190810190614e81565b90506000611c95828261270f565b6000898152600860209081526040808320848452909152812060010154919250600160a01b90910463ffffffff169003611cec5760405163e39a92b760e01b81526004810189905260248101829052604401610d44565b600088815260086020908152604080832084845280835281842060018101805463ffffffff4216600160a01b0263ffffffff60a01b19909116179055938590529091525182918a917f143614a05a1facad63ed89ba02e510ec8c36cdc2e98a186044de5d3c30195a4391611d8791815481526001909101546001600160a01b038116602083015260a01c63ffffffff16604082015260600190565b60405180910390a3505050505050505050565b6000611da5816129ff565b61120982612bc3565b6040516309a711b960e31b815260040160405180910390fd5b6000818152600760205260409020600501546001600160a01b0316338114611e23576040516327310c2560e21b81526001600160801b0319891660048201526001600160a01b0382166024820152336044820152606401610d44565b611e3288888888888888612bcf565b817f8ed7a0bc75f77e269c7a6adb735cfc724fd2c5d7e57df975414e59e9c2592a7b60076000858152602001908152602001600020604051611e749190615306565b60405180910390a25050505050505050565b611ee66040805161010081018252600060c0820181815283516020810190945290835260e0820192909252908190815260200160608152602001606081526020016060815260200160006001600160a01b03168152602001600081525090565b600082815260076020908152604091829020825161010081018452815460801b6001600160801b03191660c082019081528451808501909552600183015460ff161515855260e08201949094529283526002810180549192840191611f4a90614930565b80601f0160208091040260200160405190810160405280929190818152602001828054611f7690614930565b8015611fc35780601f10611f9857610100808354040283529160200191611fc3565b820191906000526020600020905b815481529060010190602001808311611fa657829003601f168201915b5050505050815260200160038201805480602002602001604051908101604052809291908181526020016000905b8282101561211d576000848152602090206040805160c08101909152600484029091018054829060ff16600581111561202c5761202c614039565b600581111561203d5761203d614039565b815260018201546020820152600282015460ff80821615156040840152610100820481161515606084015262010000909104161515608082015260038201805460a09092019161208c90614930565b80601f01602080910402602001604051908101604052809291908181526020018280546120b890614930565b80156121055780601f106120da57610100808354040283529160200191612105565b820191906000526020600020905b8154815290600101906020018083116120e857829003601f168201915b50505050508152505081526020019060010190611ff1565b50505050815260200160048201805480602002602001604051908101604052809291908181526020016000905b82821015612293576000848152602090206040805160e08101909152600584029091018054829060ff16600481111561218557612185614039565b600481111561219657612196614039565b8152815461010090819004608090811b6001600160801b031990811660208501526001850154821b16604084015260028401546060840152600384015460ff8082161515928501929092529190910416151560a082015260048201805460c09092019161220290614930565b80601f016020809104026020016040519081016040528092919081815260200182805461222e90614930565b801561227b5780601f106122505761010080835404028352916020019161227b565b820191906000526020600020905b81548152906001019060200180831161225e57829003601f168201915b5050505050815250508152602001906001019061214a565b5050509082525060058201546001600160a01b0316602082015260069091015460409091015292915050565b600554604051630e972f9160e41b81526004810184905260ff831660248201526000916001600160a01b03169063e972f91090604401602060405180830381865afa158015612312573d6000803e3d6000fd5b505050506040513d601f19601f82011682018060405250810190610ff0919061545d565b6000612341816129ff565b50600580546001600160a01b0319166001600160a01b0392909216919091179055565b600061236f816129ff565b61120982612b4c565b604080516060808201835280825260006020830152818301529051631d1db46b60e21b81527f00000000000000000000000000000000000000000000000000000000000000006001600160a01b031690637476d1ac906114bd908690869060040161547a565b600082815260016020819052604090912001546123fa816129ff565b61118a8383612a77565b604080516060808201835280825260006020830152818301529051631f785c9560e01b81527f00000000000000000000000000000000000000000000000000000000000000006001600160a01b031690631f785c959061246c90879087908790600401615495565b600060405180830381865afa158015612489573d6000803e3d6000fd5b505050506040513d6000823e601f3d908101601f191682016040526124b19190810190615115565b949350505050565b600554604051632b2bf81b60e11b81526004810183905260609182916001600160a01b0390911690635657f03690602401600060405180830381865afa158015612507573d6000803e3d6000fd5b505050506040513d6000823e601f3d908101601f1916820160405261252f919081019061553b565b91509150915091565b60006040516309a711b960e31b815260040160405180910390fd5b6001600160a01b03851633148061256f575061256f8533612538565b61258b5760405162461bcd60e51b8152600401610d4490614ff4565b61115d8585858585612c84565b6005546040516314067f8b60e01b8152600481018390526001600160a01b03848116602483015260009216906314067f8b90604401602060405180830381865afa1580156125ea573d6000803e3d6000fd5b505050506040513d601f19601f82011682018060405250810190610ff091906155f7565b604080516060808201835280825260006020830152818301529051631a0d7ccb60e21b81527f00000000000000000000000000000000000000000000000000000000000000006001600160a01b031690636835f32c906112e99085906004016137d5565b61267a6134d4565b604051634c92019b60e11b81526001600160a01b037f000000000000000000000000000000000000000000000000000000000000000016906399240336906126ca908790879087906004016156c6565b600060405180830381865afa1580156126e7573d6000803e3d6000fd5b505050506040513d6000823e601f3d908101601f191682016040526124b191908101906159c9565b6000805b8360600151518110156127a65782600581111561273257612732614039565b8460600151828151811061274857612748615149565b602002602001015160000151600581111561276557612765614039565b03612794578360600151818151811061278057612780615149565b6020026020010151604001519150506107f2565b8061279e81615175565b915050612713565b508160405163267ac2cf60e01b8152600401610d449190615a92565b60006001600160e01b03198216636cdb3d1360e11b14806127f357506001600160e01b031982166303a24d0760e21b145b806107f257506107f282612dc0565b60606004805461109390614930565b81518351146128735760405162461bcd60e51b815260206004820152602860248201527f455243313135353a2069647320616e6420616d6f756e7473206c656e677468206044820152670dad2e6dac2e8c6d60c31b6064820152608401610d44565b6001600160a01b0384166128995760405162461bcd60e51b8152600401610d4490615aa0565b336128a8818787878787611dae565b60005b84518110156129915760008582815181106128c8576128c8615149565b6020026020010151905060008583815181106128e6576128e6615149565b60209081029190910181015160008481526002835260408082206001600160a01b038e1683529093529190912054909150818110156129375760405162461bcd60e51b8152600401610d4490615ae5565b60008381526002602090815260408083206001600160a01b038e8116855292528083208585039055908b16825281208054849290612976908490615b2f565b925050819055505050508061298a90615175565b90506128ab565b50846001600160a01b0316866001600160a01b0316826001600160a01b03167f4a39dc06d4c0dbc64b70af90fd698a233a518aa5d07e595d983b8c0526c8f7fb87876040516129e1929190615b42565b60405180910390a46129f7818787878787612df5565b505050505050565b612a098133612f59565b50565b612a168282611795565b6112095760008281526001602081815260408084206001600160a01b0386168086529252808420805460ff19169093179092559051339285917f2f8788117e7eff1d82e926ec794901d17c78024a50270940304540a733656f0d9190a45050565b612a818282611795565b156112095760008281526001602090815260408083206001600160a01b0385168085529252808320805460ff1916905551339285917ff6391f5c32d9c69d2a47ea670b442974b53935d1edc7fd64eb21e047a839171b9190a45050565b612b04604080518082018252600080825282516020818101909452908152909182015290565b6040518060400160405280846001600160801b0319168152602001612b4384604080516020808201835260009091528151908101909152901515815290565b90529392505050565b60046112098282615bad565b612b6181612fb2565b612b7087878787878787612bcf565b807f2ca78c31fd1a7ac9bf2b3458f3f8376fa02d7b7022de5b91be03587a3619fc7e60076000848152602001908152602001600020604051612bb29190615306565b60405180910390a250505050505050565b60066112098282615bad565b600081815260076020526040902080546001600160801b031916608089901c17815560018101805460ff1916881515179055600201612c0e8682615bad565b50612c198185612ff4565b612c2381846130f7565b6001600160a01b03821615612c385781612c4d565b72c92065f759c3d1c94d08c27a2ab97a1c874cbc5b60009182526007602052604090912060050180546001600160a01b0319166001600160a01b03909216919091179055505050505050565b6001600160a01b038416612caa5760405162461bcd60e51b8152600401610d4490615aa0565b336000612cb68561321c565b90506000612cc38561321c565b9050612cd3838989858589611dae565b60008681526002602090815260408083206001600160a01b038c16845290915290205485811015612d165760405162461bcd60e51b8152600401610d4490615ae5565b60008781526002602090815260408083206001600160a01b038d8116855292528083208985039055908a16825281208054889290612d55908490615b2f565b909155505060408051888152602081018890526001600160a01b03808b16928c821692918816917fc3d58168c5ae7397731d063d5bbf3d657854427343f4c083240f7aacaa2d0f62910160405180910390a4612db5848a8a8a8a8a613267565b505050505050505050565b60006001600160e01b03198216637965db0b60e01b14806107f257506301ffc9a760e01b6001600160e01b03198316146107f2565b6001600160a01b0384163b156129f75760405163bc197c8160e01b81526001600160a01b0385169063bc197c8190612e399089908990889088908890600401615c6c565b6020604051808303816000875af1925050508015612e74575060408051601f3d908101601f19168201909252612e7191810190615cca565b60015b612f2057612e80615ce7565b806308c379a003612eb95750612e94615d02565b80612e9f5750612ebb565b8060405162461bcd60e51b8152600401610d4491906137d5565b505b60405162461bcd60e51b815260206004820152603460248201527f455243313135353a207472616e7366657220746f206e6f6e2d455243313135356044820152732932b1b2b4bb32b91034b6b83632b6b2b73a32b960611b6064820152608401610d44565b6001600160e01b0319811663bc197c8160e01b14612f505760405162461bcd60e51b8152600401610d4490615d8b565b50505050505050565b612f638282611795565b61120957612f7081613322565b612f7b836020613334565b604051602001612f8c929190615dd3565b60408051601f198184030181529082905262461bcd60e51b8252610d44916004016137d5565b612fbf816302625a001190565b15612fe05760405163b061c8d760e01b815260048101829052602401610d44565b600081815260076020526040902060060155565b6000828152600760205260408120600301905b82518110156130f1578183828151811061302357613023615149565b60209081029190910181015182546001818101855560009485529290932081516004909402018054919390929091839160ff199091169083600581111561306c5761306c614039565b0217905550602082015160018201556040820151600282018054606085015160808601511515620100000262ff0000199115156101000261ff00199515159590951661ffff1990931692909217939093179290921691909117905560a082015160038201906130db9082615bad565b50505080806130e990615175565b915050613007565b50505050565b6000828152600760205260408120600401905b82518110156130f1578183828151811061312657613126615149565b60209081029190910181015182546001818101855560009485529290932081516005909402018054919390929091839160ff199091169083600481111561316f5761316f614039565b02179055506020820151815470ffffffffffffffffffffffffffffffff001916610100608092831c810291909117835560408401516001840180546001600160801b03191691841c919091179055606084015160028401559083015160038301805460a086015161ffff1990911692151561ff0019169290921791151590920217905560c082015160048201906132069082615bad565b505050808061321490615175565b91505061310a565b6040805160018082528183019092526060916000919060208083019080368337019050509050828160008151811061325657613256615149565b602090810291909101015292915050565b6001600160a01b0384163b156129f75760405163f23a6e6160e01b81526001600160a01b0385169063f23a6e61906132ab9089908990889088908890600401615e48565b6020604051808303816000875af19250505080156132e6575060408051601f3d908101601f191682019092526132e391810190615cca565b60015b6132f257612e80615ce7565b6001600160e01b0319811663f23a6e6160e01b14612f505760405162461bcd60e51b8152600401610d4490615d8b565b60606107f26001600160a01b03831660145b60606000613343836002615e8d565b61334e906002615b2f565b6001600160401b0381111561336557613365613575565b6040519080825280601f01601f19166020018201604052801561338f576020820181803683370190505b509050600360fc1b816000815181106133aa576133aa615149565b60200101906001600160f81b031916908160001a905350600f60fb1b816001815181106133d9576133d9615149565b60200101906001600160f81b031916908160001a90535060006133fd846002615e8d565b613408906001615b2f565b90505b6001811115613480576f181899199a1a9b1b9c1cb0b131b232b360811b85600f166010811061343c5761343c615149565b1a60f81b82828151811061345257613452615149565b60200101906001600160f81b031916908160001a90535060049490941c9361347981615ea4565b905061340b565b508315610ff05760405162461bcd60e51b815260206004820181905260248201527f537472696e67733a20686578206c656e67746820696e73756666696369656e746044820152606401610d44565b905290565b604051806080016040528060006001600160801b031916815260200160608152602001606081526020016134cf604051806060016040528060608152602001600015158152602001606081525090565b6001600160a01b0381168114612a0957600080fd5b803561354481613524565b919050565b6000806040838503121561355c57600080fd5b823561356781613524565b946020939093013593505050565b634e487b7160e01b600052604160045260246000fd5b60c081018181106001600160401b03821117156135aa576135aa613575565b60405250565b60a081018181106001600160401b03821117156135aa576135aa613575565b608081018181106001600160401b03821117156135aa576135aa613575565b601f8201601f191681016001600160401b038111828210171561361357613613613575565b6040525050565b60405160e081016001600160401b038111828210171561363c5761363c613575565b60405290565b60405161364e816135b0565b90565b60405161364e8161358b565b60006001600160401b0382111561367657613676613575565b50601f01601f191660200190565b600082601f83011261369557600080fd5b81356136a08161365d565b6040516136ad82826135ee565b8281528560208487010111156136c257600080fd5b82602086016020830137600092810160200192909252509392505050565b6000806000606084860312156136f557600080fd5b83356001600160401b0381111561370b57600080fd5b61371786828701613684565b935050602084013561372881613524565b929592945050506040919091013590565b6001600160e01b031981168114612a0957600080fd5b60006020828403121561376157600080fd5b8135610ff081613739565b60006020828403121561377e57600080fd5b5035919050565b60005b838110156137a0578181015183820152602001613788565b50506000910152565b600081518084526137c1816020860160208601613785565b601f01601f19169290920160200192915050565b602081526000610ff060208301846137a9565b60006001600160401b0382111561380157613801613575565b5060051b60200190565b600082601f83011261381c57600080fd5b81356020613829826137e8565b60405161383682826135ee565b83815260059390931b850182019282810191508684111561385657600080fd5b8286015b84811015613871578035835291830191830161385a565b509695505050505050565b600080600080600060a0868803121561389457600080fd5b853561389f81613524565b945060208601356138af81613524565b935060408601356001600160401b03808211156138cb57600080fd5b6138d789838a0161380b565b945060608801359150808211156138ed57600080fd5b6138f989838a0161380b565b9350608088013591508082111561390f57600080fd5b5061391c88828901613684565b9150509295509295909350565b6000806040838503121561393c57600080fd5b82359150602083013561394e81613524565b809150509250929050565b8015158114612a0957600080fd5b803561354481613959565b60006020828403121561398457600080fd5b8135610ff081613959565b60008151606084526139a460608501826137a9565b9050602083015115156020850152604083015184820360408601526139c982826137a9565b95945050505050565b602081526000610ff0602083018461398f565b600080604083850312156139f857600080fd5b82356001600160401b0380821115613a0f57600080fd5b818501915085601f830112613a2357600080fd5b81356020613a30826137e8565b604051613a3d82826135ee565b83815260059390931b8501820192828101915089841115613a5d57600080fd5b948201945b83861015613a84578535613a7581613524565b82529482019490820190613a62565b96505086013592505080821115613a9a57600080fd5b50613aa78582860161380b565b9150509250929050565b600081518084526020808501945080840160005b83811015613ae157815187529582019590820190600101613ac5565b509495945050505050565b602081526000610ff06020830184613ab1565b60008060408385031215613b1257600080fd5b50508035926020909101359150565b60008060408385031215613b3457600080fd5b82356001600160401b0380821115613b4b57600080fd5b613b5786838701613684565b93506020850135915080821115613b6d57600080fd5b50613aa785828601613684565b600080600080600060a08688031215613b9257600080fd5b8535613b9d81613524565b94506020860135613bad81613524565b93506040860135613bbd81613524565b94979396509394606081013594506080013592915050565b81516001600160801b031916815260208083015151151590820152604081016107f2565b60008060408385031215613c0c57600080fd5b82356001600160401b03811115613c2257600080fd5b613c2e85828601613684565b925050602083013561394e81613524565b6001600160801b031981168114612a0957600080fd5b803561354481613c3f565b60068110612a0957600080fd5b600082601f830112613c7e57600080fd5b81356020613c8b826137e8565b60408051613c9983826135ee565b84815260059490941b8601830193838101925087851115613cb957600080fd5b8387015b85811015613d835780356001600160401b0380821115613cdd5760008081fd5b9089019060c0828c03601f1901811315613cf75760008081fd5b8551613d028161358b565b88840135613d0f81613c60565b815283870135898201526060613d26818601613967565b888301526080613d37818701613967565b8284015260a09150613d4a828701613967565b90830152918401359183831115613d615760008081fd5b613d6f8e8b85880101613684565b908201528752505050928401928401613cbd565b50979650505050505050565b60058110612a0957600080fd5b803561354481613d8f565b600082601f830112613db857600080fd5b81356020613dc5826137e8565b60408051613dd383826135ee565b84815260059490941b8601830193838101925087851115613df357600080fd5b8387015b85811015613d835780356001600160401b0380821115613e175760008081fd5b9089019060e0828c03601f1901811315613e315760008081fd5b613e3961361a565b613e44898501613d9c565b8152613e51878501613c55565b898201526060613e62818601613c55565b888301526080808601358284015260a09150613e7f828701613967565b9083015260c0613e90868201613967565b83830152928501359284841115613ea957600091508182fd5b613eb78f8c86890101613684565b90830152508752505050928401928401613df7565b600080600080600080600060e0888a031215613ee757600080fd5b8735613ef281613c3f565b96506020880135613f0281613959565b955060408801356001600160401b0380821115613f1e57600080fd5b613f2a8b838c01613684565b965060608a0135915080821115613f4057600080fd5b613f4c8b838c01613c6d565b955060808a0135915080821115613f6257600080fd5b50613f6f8a828b01613da7565b935050613f7e60a08901613539565b915060c0880135905092959891949750929550565b60008060408385031215613fa657600080fd5b82356001600160401b03811115613fbc57600080fd5b613fc885828601613684565b95602094909401359450505050565b600060208284031215613fe957600080fd5b81356001600160401b03811115613fff57600080fd5b6124b184828501613684565b6000806040838503121561401e57600080fd5b823561402981613524565b9150602083013561394e81613959565b634e487b7160e01b600052602160045260246000fd5b6006811061405f5761405f614039565b9052565b600081518084526020808501808196508360051b8101915082860160005b858110156140f5578284038952815160c061409d86835161404f565b818701518688015260408083015115159087015260608083015115159087015260808083015115159087015260a0918201519186018190526140e1818701836137a9565b9a87019a9550505090840190600101614081565b5091979650505050505050565b6005811061405f5761405f614039565b600081518084526020808501808196508360051b8101915082860160005b858110156140f5578284038952815160e061414c868351614102565b818701516001600160801b031990811687890152604080840151909116908701526060808301519087015260808083015115159087015260a08083015115159087015260c0918201519186018190526141a7818701836137a9565b9a87019a9550505090840190600101614130565b6020808252825180516001600160801b03191683830152015151151560408201526000602083015160e060608401526141f86101008401826137a9565b90506040840151601f19808584030160808601526142168383614063565b925060608601519150808584030160a0860152506142348282614112565b60808601516001600160a01b031660c086015260a09095015160e090940193909352509192915050565b60ff81168114612a0957600080fd5b6000806040838503121561428057600080fd5b82359150602083013561394e8161425e565b6000602082840312156142a457600080fd5b8135610ff081613524565b600080604083850312156142c257600080fd5b82356142cd81613959565b915060208301356001600160401b038111156142e857600080fd5b613aa785828601613684565b60008060006060848603121561430957600080fd5b83356001600160401b038082111561432057600080fd5b61432c87838801613684565b94506020860135915061433e82613959565b9092506040850135908082111561435457600080fd5b5061436186828701613684565b9150509250925092565b604080825283519082018190526000906020906060840190828701845b828110156143a457815184529284019290840190600101614388565b5050508381038285015284518082528583019183019060005b818110156143dc57835160ff16835292840192918401916001016143bd565b5090979650505050505050565b600080604083850312156143fc57600080fd5b823561440781613524565b9150602083013561394e81613524565b600080600080600060a0868803121561442f57600080fd5b853561443a81613524565b9450602086013561444a81613524565b9350604086013592506060860135915060808601356001600160401b0381111561447357600080fd5b61391c88828901613684565b60006020828403121561449157600080fd5b5051919050565b805161354481613c3f565b600082601f8301126144b457600080fd5b81516144bf8161365d565b6040516144cc82826135ee565b8281528560208487010111156144e157600080fd5b6139c9836020830160208801613785565b805161354481613959565b600082601f83011261450e57600080fd5b8151602061451b826137e8565b6040805161452983826135ee565b84815260059490941b860183019383810192508785111561454957600080fd5b8387015b85811015613d835780516001600160401b038082111561456d5760008081fd5b9089019060a0828c03601f19018113156145875760008081fd5b8551614592816135b0565b8884015161459f81613c60565b8152838701516145ae81613959565b818a01526060848101516145c181613959565b82890152608085810151828401529285015192848411156145e457600091508182fd5b6145f28f8c868901016144a3565b9083015250875250505092840192840161454d565b805161354481613d8f565b600082601f83011261462357600080fd5b81516020614630826137e8565b6040805161463e83826135ee565b84815260059490941b860183019383810192508785111561465e57600080fd5b8387015b85811015613d835780516001600160401b03808211156146825760008081fd5b9089019060c0828c03601f190181131561469c5760008081fd5b85516146a78161358b565b888401516146b481613d8f565b81526146c1848801614498565b8982015260606146d2818601614498565b8883015260806146e38187016144f2565b8284015260a09150818601518184015250828501519250838311156147085760008081fd5b6147168e8b858801016144a3565b908201528752505050928401928401614662565b600082601f83011261473b57600080fd5b81516020614748826137e8565b60405161475582826135ee565b83815260059390931b850182019282810191508684111561477557600080fd5b8286015b848110156138715780516001600160401b03808211156147995760008081fd5b9088019060a0828b03601f19018113156147b35760008081fd5b6147bb613642565b87840151838111156147cd5760008081fd5b6147db8d8a838801016144fd565b8252506040840151838111156147f15760008081fd5b6147ff8d8a83880101614612565b89830152506060808501516040830152608080860151858111156148235760008081fd5b6148318f8c838a01016144a3565b848401525092850151928484111561484b57600091508182fd5b6148598e8b868901016144a3565b90830152508652505050918301918301614779565b60006020828403121561488057600080fd5b81516001600160401b038082111561489757600080fd5b9083019060a082860312156148ab57600080fd5b6040516148b7816135b0565b82516148c281613c3f565b81526148d060208401614498565b6020820152604083015160408201526060830151828111156148f157600080fd5b6148fd878286016144a3565b60608301525060808301518281111561491557600080fd5b6149218782860161472a565b60808301525095945050505050565b600181811c9082168061494457607f821691505b60208210810361496457634e487b7160e01b600052602260045260246000fd5b50919050565b600081518084526020808501808196508360051b8101915082860160005b858110156140f5578284038952815160c06149a4868351614102565b818701516001600160801b031990811687890152604080840151909116908701526060808301511515908701526080808301519087015260a0918201519186018190526149f3818701836137a9565b9a87019a9550505090840190600101614988565b6001600160801b031981511682526000602082015160806020850152614a306080850182614063565b905060408301518482036040860152614a498282614112565b915050606083015184820360608601526139c9828261398f565b600060808083526001600160801b0319808751168285015260208088015182811660a087015250604088015191508160c08601526060880151915060a060e0860152614ab36101208601836137a9565b88840151868203607f1901610100880152805180835291935082019082840190600581901b8501840160005b82811015614bec57601f198783030184528451805160a0808552815190850181905260c0600582901b86018101928a01919086019060005b81811015614b815760bf198886030183528351614b3586825161404f565b8c81015115158d870152604081015115156040870152606081015160608701528e810151905060a08f870152614b6e60a08701826137a9565b955050928b0192918b0191600101614b17565b505050508782015184820389860152614b9a828261496a565b9150506040820151604085015260608201518482036060860152614bbe82826137a9565b9150508982015191508381038a850152614bd881836137a9565b968801969588019593505050600101614adf565b50888103858a0152614bfe818c614a07565b9750505050505050506124b16040830184805460801b6001600160801b03191682526001015460ff161515602090910152565b600082601f830112614c4257600080fd5b81516020614c4f826137e8565b60408051614c5d83826135ee565b84815260059490941b8601830193838101925087851115614c7d57600080fd5b8387015b85811015613d835780516001600160401b0380821115614ca057600080fd5b9089019060a0828c03601f19011215614cb95760008081fd5b8451614cc4816135b0565b87830151614cd181613c60565b8152614cde8387016144f2565b888201526060808401518783015260808085015184811115614d005760008081fd5b614d0e8f8c838901016144a3565b838501525060a0850151915083821115614d285760008081fd5b614d368e8b848801016144a3565b908301525086525050928401928401614c81565b600082601f830112614d5b57600080fd5b81516020614d68826137e8565b604051614d7582826135ee565b83815260059390931b8501820192828101915086841115614d9557600080fd5b8286015b848110156138715780516001600160401b0380821115614db95760008081fd5b9088019060e0828b03601f1901811315614dd35760008081fd5b614ddb61361a565b614de6888501614607565b8152614df460408501614498565b888201526060614e05818601614498565b60408301526080808601518284015260a091508186015185811115614e2a5760008081fd5b614e388f8c838a01016144a3565b82850152505060c0808601518284015283860151935084841115614e5e57600091508182fd5b614e6c8e8b868901016144a3565b90830152508652505050918301918301614d99565b600060208284031215614e9357600080fd5b81516001600160401b0380821115614eaa57600080fd5b9083019060c08286031215614ebe57600080fd5b614ec6613651565b614ecf83614498565b8152614edd60208401614498565b602082015260408301516040820152606083015182811115614efe57600080fd5b614f0a87828601614c31565b606083015250608083015182811115614f2257600080fd5b614f2e87828601614d4a565b60808301525060a083015182811115614f4657600080fd5b614f52878286016144a3565b60a08301525095945050505050565b600060208284031215614f7357600080fd5b8151610ff081613524565b6000808354614f8c81614930565b60018281168015614fa45760018114614fb957614fe8565b60ff1984168752821515830287019450614fe8565b8760005260208060002060005b85811015614fdf5781548a820152908401908201614fc6565b50505082870194505b50929695505050505050565b6020808252602e908201527f455243313135353a2063616c6c6572206973206e6f7420746f6b656e206f776e60408201526d195c881bdc88185c1c1c9bdd995960921b606082015260800190565b60006020828403121561505457600080fd5b81516001600160401b0381111561506a57600080fd5b6124b1848285016144a3565b60006060828403121561508857600080fd5b604051606081016001600160401b0382821081831117156150ab576150ab613575565b8160405282935084519150808211156150c357600080fd5b6150cf868387016144a3565b8352602085015191506150e182613959565b81602084015260408501519150808211156150fb57600080fd5b50615108858286016144a3565b6040830152505092915050565b60006020828403121561512757600080fd5b81516001600160401b0381111561513d57600080fd5b6124b184828501615076565b634e487b7160e01b600052603260045260246000fd5b634e487b7160e01b600052601160045260246000fd5b6000600182016151875761518761515f565b5060010190565b6040815260006151a160408301856137a9565b82810360208401526139c981856137a9565b600081546151c081614930565b8085526020600183811680156151dd57600181146151f757615225565b60ff1985168884015283151560051b880183019550615225565b866000528260002060005b8581101561521d5781548a8201860152908301908401615202565b890184019650505b505050505092915050565b600081548084526020808501808196506005915083821b8101866000528360002060005b868110156152f8578383038a5260e0825460ff61527386828416614102565b607882901b6001600160801b031916868a0152600185015460801b6001600160801b03198116604088015291506002850154606087015260038501548181161515608088015291506152ce60a08701828460081c1615159052565b50508060c08501526152e5818501600485016151b3565b9a87019a93505090840190600101615254565b509098975050505050505050565b6000602080835261533681840185805460801b6001600160801b03191682526001015460ff161515602090910152565b606060e08185015261534f6101008501600287016151b3565b6003808701601f1960808189860301818a01528483548087528887019150888160051b8801018560005289600020955060005b82811015615404578589830301845260c060ff6153a284828b541661404f565b60018901548d850152600289015481811615156040860152818160081c1615158d8601526153d8888601838360101c1615159052565b50508060a08401526153ee8184018a8a016151b3565b60049890980197948c0194925050600101615382565b50848c82030160a08d015261541c8160048f01615230565b995050505050505050505061543b60058501546001600160a01b031690565b6001600160a01b031660c08401526006939093015460e0909201919091525090565b60006020828403121561546f57600080fd5b8151610ff08161425e565b82151581526040602082015260006124b160408301846137a9565b6060815260006154a860608301866137a9565b841515602084015282810360408401526154c281856137a9565b9695505050505050565b600082601f8301126154dd57600080fd5b815160206154ea826137e8565b6040516154f782826135ee565b83815260059390931b850182019282810191508684111561551757600080fd5b8286015b8481101561387157805161552e8161425e565b835291830191830161551b565b6000806040838503121561554e57600080fd5b82516001600160401b038082111561556557600080fd5b818501915085601f83011261557957600080fd5b81516020615586826137e8565b60405161559382826135ee565b83815260059390931b85018201928281019150898411156155b357600080fd5b948201945b838610156155d1578551825294820194908201906155b8565b918801519196509093505050808211156155ea57600080fd5b50613aa7858286016154cc565b60006020828403121561560957600080fd5b815163ffffffff81168114610ff057600080fd5b600081518084526020808501808196508360051b8101915082860160005b858110156140f5578284038952815160e0615657868351614102565b818701516001600160801b031990811687890152604080840151909116908701526060808301519087015260808083015115159087015260a08083015115159087015260c0918201519186018190526156b2818701836137a9565b9a87019a955050509084019060010161563b565b60006060808301818452808751808352608092508286019150828160051b8701016020808b0160005b8481101561576357607f198a8503018652815160c061570f86835161404f565b81850151868601526040808301511515908701528982015115158a8701528882015115158987015260a09182015191860181905261574f818701836137a9565b9785019795505050908201906001016156ef565b505087820390880152615776818a61561d565b94505050505082810360408401526154c2818561398f565b600082601f83011261579f57600080fd5b815160206157ac826137e8565b604080516157ba83826135ee565b84815260059490941b86018301938381019250878511156157da57600080fd5b8387015b85811015613d835780516001600160401b03808211156157fe5760008081fd5b9089019060c0828c03601f19018113156158185760008081fd5b85516158238161358b565b8884015161583081613c60565b8152838701518982015260606158478186016144f2565b8883015260806158588187016144f2565b8284015260a0915061586b8287016144f2565b908301529184015191838311156158825760008081fd5b6158908e8b858801016144a3565b9082015287525050509284019284016157de565b600082601f8301126158b557600080fd5b815160206158c2826137e8565b604080516158d083826135ee565b84815260059490941b86018301938381019250878511156158f057600080fd5b8387015b85811015613d835780516001600160401b03808211156159145760008081fd5b9089019060e0828c03601f190181131561592e5760008081fd5b61593661361a565b615941898501614607565b815261594e878501614498565b89820152606061595f818601614498565b888301526080808601518284015260a0915061597c8287016144f2565b9083015260c061598d8682016144f2565b838301529285015192848411156159a657600091508182fd5b6159b48f8c868901016144a3565b908301525087525050509284019284016158f4565b6000602082840312156159db57600080fd5b81516001600160401b03808211156159f257600080fd5b9083019060808286031215615a0657600080fd5b604051615a12816135cf565b615a1b83614498565b8152602083015182811115615a2f57600080fd5b615a3b8782860161578e565b602083015250604083015182811115615a5357600080fd5b615a5f878286016158a4565b604083015250606083015182811115615a7757600080fd5b615a8387828601615076565b60608301525095945050505050565b602081016107f2828461404f565b60208082526025908201527f455243313135353a207472616e7366657220746f20746865207a65726f206164604082015264647265737360d81b606082015260800190565b6020808252602a908201527f455243313135353a20696e73756666696369656e742062616c616e636520666f60408201526939103a3930b739b332b960b11b606082015260800190565b808201808211156107f2576107f261515f565b604081526000615b556040830185613ab1565b82810360208401526139c98185613ab1565b601f82111561118a57600081815260208120601f850160051c81016020861015615b8e5750805b601f850160051c820191505b818110156129f757828155600101615b9a565b81516001600160401b03811115615bc657615bc6613575565b615bda81615bd48454614930565b84615b67565b602080601f831160018114615c0f5760008415615bf75750858301515b600019600386901b1c1916600185901b1785556129f7565b600085815260208120601f198616915b82811015615c3e57888601518255948401946001909101908401615c1f565b5085821015615c5c5787850151600019600388901b60f8161c191681555b5050505050600190811b01905550565b6001600160a01b0386811682528516602082015260a060408201819052600090615c9890830186613ab1565b8281036060840152615caa8186613ab1565b90508281036080840152615cbe81856137a9565b98975050505050505050565b600060208284031215615cdc57600080fd5b8151610ff081613739565b600060033d111561364e5760046000803e5060005160e01c90565b600060443d1015615d105790565b6040516003193d81016004833e81513d6001600160401b038160248401118184111715615d3f57505050505090565b8285019150815181811115615d575750505050505090565b843d8701016020828501011115615d715750505050505090565b615d80602082860101876135ee565b509095945050505050565b60208082526028908201527f455243313135353a204552433131353552656365697665722072656a656374656040820152676420746f6b656e7360c01b606082015260800190565b7f416363657373436f6e74726f6c3a206163636f756e7420000000000000000000815260008351615e0b816017850160208801613785565b7001034b99036b4b9b9b4b733903937b6329607d1b6017918401918201528351615e3c816028840160208801613785565b01602801949350505050565b6001600160a01b03868116825285166020820152604081018490526060810183905260a060808201819052600090615e82908301846137a9565b979650505050505050565b80820281158282048414176107f2576107f261515f565b600081615eb357615eb361515f565b50600019019056fea2646970667358221220adde2e1dd9a1202e759cd46bd652c2ab3195df9a6118a93465b2df4a049b3ea664736f6c63430008140033",
    "linkReferences": {}
  },
  "methodIdentifiers": {
    "ADDRESSES_PROVIDER_V2()": "46916301",
    "APP_ID()": "c187bbc1",
    "CONFIG_REGISTRANT_ROLE()": "5a328596",
    "DEFAULT_ADMIN_ROLE()": "a217fddf",
    "DEFAULT_ZK_BADGE_CONFIG_OWNER()": "3eca9983",
    "EVENT_TRIGGERER_ROLE()": "44112ed8",
    "IMPLEMENTATION_VERSION()": "754b377c",
    "IS_IMPERSONATION_MODE()": "a183dc27",
    "SISMO_CONNECT_LIB_VERSION()": "c9512d99",
    "balanceOf(address,uint256)": "00fdd58e",
    "balanceOfBatch(address[],uint256[])": "4e1273f4",
    "balanceOfVaultId(uint256,uint256)": "6bd14dfa",
    "buildSignature(bool)": "49161195",
    "buildSignature(bool,bytes)": "cea8eb4e",
    "buildSignature(bytes,bool,bytes)": "e0689703",
    "buildSignature(bytes,bytes)": "6e01370e",
    "claimWithSismoConnect(bytes,address,uint256)": "01d682dd",
    "config()": "79502c55",
    "getAttestationsRegistry()": "730cb7d5",
    "getAttributeValueForBadge(uint256,uint8)": "aed8c6bc",
    "getAttributesNamesAndValuesForBadge(uint256)": "e37ffe7c",
    "getBadgeExtraData(address,uint256)": "3e1f3c27",
    "getBadgeIssuer(address,uint256)": "0e064366",
    "getBadgeTimestamp(address,uint256)": "ff4468c4",
    "getRoleAdmin(bytes32)": "248a9ca3",
    "getZKBadgeConfig(uint256)": "ac6c3e69",
    "grantRole(bytes32,address)": "2f2ff15d",
    "hasRole(bytes32,address)": "91d14854",
    "initialize(string,address)": "7ab4339d",
    "isApprovedForAll(address,address)": "e985e9c5",
    "isVaultIdUsedForTokenId(uint256,uint256)": "dc0ec5e8",
    "registerZKBadgeConfig(bytes16,bool,string,(uint8,uint256,bool,bool,bool,bytes)[],(uint8,bytes16,bytes16,uint256,bool,bool,bytes)[],address,uint256)": "869f023e",
    "renewWithSismoConnect(bytes,uint256)": "96d75b93",
    "renounceRole(bytes32,address)": "36568abe",
    "revokeRole(bytes32,address)": "d547741f",
    "safeBatchTransferFrom(address,address,uint256[],uint256[],bytes)": "2eb2c2d6",
    "safeTransferFrom(address,address,uint256,uint256,bytes)": "f242432a",
    "setApprovalForAll(address,bool)": "a22cb465",
    "setAttestationsRegistry(address)": "b3c1cb21",
    "setLegacyUri(string)": "cdb7e664",
    "setUri(string)": "9b642de1",
    "supportsInterface(bytes4)": "01ffc9a7",
    "triggerTransferEvent(address,address,address,uint256,uint256)": "710b3096",
    "updateZKBadgeConfig(bytes16,bool,string,(uint8,uint256,bool,bool,bool,bytes)[],(uint8,bytes16,bytes16,uint256,bool,bool,bytes)[],address,uint256)": "a75400b3",
    "uri(uint256)": "0e89341c"
  },
  "id": 58
}