{
    "abi": [
        {
            "inputs": [
                {
                    "internalType": "string",
                    "name": "name_",
                    "type": "string"
                },
                {
                    "internalType": "string",
                    "name": "symbol_",
                    "type": "string"
                },
                {
                    "internalType": "string",
                    "name": "baseURI_",
                    "type": "string"
                },
                {
                    "internalType": "bytes16",
                    "name": "appId_",
                    "type": "bytes16"
                },
                {
                    "internalType": "bool",
                    "name": "isImpersonationMode_",
                    "type": "bool"
                },
                {
                    "components": [
                        {
                            "internalType": "enum AuthType",
                            "name": "authType",
                            "type": "uint8"
                        },
                        {
                            "internalType": "uint256",
                            "name": "userId",
                            "type": "uint256"
                        },
                        {
                            "internalType": "bool",
                            "name": "isAnon",
                            "type": "bool"
                        },
                        {
                            "internalType": "bool",
                            "name": "isOptional",
                            "type": "bool"
                        },
                        {
                            "internalType": "bool",
                            "name": "isSelectableByUser",
                            "type": "bool"
                        },
                        {
                            "internalType": "bytes",
                            "name": "extraData",
                            "type": "bytes"
                        }
                    ],
                    "internalType": "struct AuthRequest[]",
                    "name": "authRequests_",
                    "type": "tuple[]"
                },
                {
                    "components": [
                        {
                            "internalType": "enum ClaimType",
                            "name": "claimType",
                            "type": "uint8"
                        },
                        {
                            "internalType": "bytes16",
                            "name": "groupId",
                            "type": "bytes16"
                        },
                        {
                            "internalType": "bytes16",
                            "name": "groupTimestamp",
                            "type": "bytes16"
                        },
                        {
                            "internalType": "uint256",
                            "name": "value",
                            "type": "uint256"
                        },
                        {
                            "internalType": "bool",
                            "name": "isOptional",
                            "type": "bool"
                        },
                        {
                            "internalType": "bool",
                            "name": "isSelectableByUser",
                            "type": "bool"
                        },
                        {
                            "internalType": "bytes",
                            "name": "extraData",
                            "type": "bytes"
                        }
                    ],
                    "internalType": "struct ClaimRequest[]",
                    "name": "claimRequests_",
                    "type": "tuple[]"
                },
                {
                    "internalType": "address",
                    "name": "owner_",
                    "type": "address"
                },
                {
                    "internalType": "bool",
                    "name": "isNonTransferable_",
                    "type": "bool"
                }
            ],
            "stateMutability": "nonpayable",
            "type": "constructor"
        },
        {
            "inputs": [
                {
                    "internalType": "enum AuthType",
                    "name": "authType",
                    "type": "uint8"
                }
            ],
            "name": "AuthTypeNotFoundInVerifiedResult",
            "type": "error"
        },
        {
            "inputs": [],
            "name": "ERC721NonTransferable",
            "type": "error"
        },
        {
            "anonymous": false,
            "inputs": [
                {
                    "indexed": true,
                    "internalType": "address",
                    "name": "owner",
                    "type": "address"
                },
                {
                    "indexed": true,
                    "internalType": "address",
                    "name": "approved",
                    "type": "address"
                },
                {
                    "indexed": true,
                    "internalType": "uint256",
                    "name": "tokenId",
                    "type": "uint256"
                }
            ],
            "name": "Approval",
            "type": "event"
        },
        {
            "anonymous": false,
            "inputs": [
                {
                    "indexed": true,
                    "internalType": "address",
                    "name": "owner",
                    "type": "address"
                },
                {
                    "indexed": true,
                    "internalType": "address",
                    "name": "operator",
                    "type": "address"
                },
                {
                    "indexed": false,
                    "internalType": "bool",
                    "name": "approved",
                    "type": "bool"
                }
            ],
            "name": "ApprovalForAll",
            "type": "event"
        },
        {
            "anonymous": false,
            "inputs": [
                {
                    "indexed": false,
                    "internalType": "string",
                    "name": "baseTokenURI",
                    "type": "string"
                }
            ],
            "name": "BaseTokenURISet",
            "type": "event"
        },
        {
            "anonymous": false,
            "inputs": [
                {
                    "indexed": true,
                    "internalType": "address",
                    "name": "previousOwner",
                    "type": "address"
                },
                {
                    "indexed": true,
                    "internalType": "address",
                    "name": "newOwner",
                    "type": "address"
                }
            ],
            "name": "OwnershipTransferred",
            "type": "event"
        },
        {
            "anonymous": false,
            "inputs": [
                {
                    "indexed": true,
                    "internalType": "address",
                    "name": "from",
                    "type": "address"
                },
                {
                    "indexed": true,
                    "internalType": "address",
                    "name": "to",
                    "type": "address"
                },
                {
                    "indexed": true,
                    "internalType": "uint256",
                    "name": "tokenId",
                    "type": "uint256"
                }
            ],
            "name": "Transfer",
            "type": "event"
        },
        {
            "inputs": [],
            "name": "ADDRESSES_PROVIDER_V2",
            "outputs": [
                {
                    "internalType": "contract IAddressesProvider",
                    "name": "",
                    "type": "address"
                }
            ],
            "stateMutability": "view",
            "type": "function"
        },
        {
            "inputs": [],
            "name": "APP_ID",
            "outputs": [
                {
                    "internalType": "bytes16",
                    "name": "",
                    "type": "bytes16"
                }
            ],
            "stateMutability": "view",
            "type": "function"
        },
        {
            "inputs": [],
            "name": "IMPLEMENTATION_VERSION",
            "outputs": [
                {
                    "internalType": "uint8",
                    "name": "",
                    "type": "uint8"
                }
            ],
            "stateMutability": "view",
            "type": "function"
        },
        {
            "inputs": [],
            "name": "IS_IMPERSONATION_MODE",
            "outputs": [
                {
                    "internalType": "bool",
                    "name": "",
                    "type": "bool"
                }
            ],
            "stateMutability": "view",
            "type": "function"
        },
        {
            "inputs": [],
            "name": "IS_NON_TRANSFERABLE",
            "outputs": [
                {
                    "internalType": "bool",
                    "name": "",
                    "type": "bool"
                }
            ],
            "stateMutability": "view",
            "type": "function"
        },
        {
            "inputs": [],
            "name": "SISMO_CONNECT_LIB_VERSION",
            "outputs": [
                {
                    "internalType": "uint256",
                    "name": "",
                    "type": "uint256"
                }
            ],
            "stateMutability": "view",
            "type": "function"
        },
        {
            "inputs": [
                {
                    "internalType": "address",
                    "name": "to",
                    "type": "address"
                },
                {
                    "internalType": "uint256",
                    "name": "tokenId",
                    "type": "uint256"
                }
            ],
            "name": "approve",
            "outputs": [],
            "stateMutability": "nonpayable",
            "type": "function"
        },
        {
            "inputs": [
                {
                    "internalType": "address",
                    "name": "owner",
                    "type": "address"
                }
            ],
            "name": "balanceOf",
            "outputs": [
                {
                    "internalType": "uint256",
                    "name": "",
                    "type": "uint256"
                }
            ],
            "stateMutability": "view",
            "type": "function"
        },
        {
            "inputs": [
                {
                    "internalType": "bool",
                    "name": "isSelectableByUser",
                    "type": "bool"
                }
            ],
            "name": "buildSignature",
            "outputs": [
                {
                    "components": [
                        {
                            "internalType": "bytes",
                            "name": "message",
                            "type": "bytes"
                        },
                        {
                            "internalType": "bool",
                            "name": "isSelectableByUser",
                            "type": "bool"
                        },
                        {
                            "internalType": "bytes",
                            "name": "extraData",
                            "type": "bytes"
                        }
                    ],
                    "internalType": "struct SignatureRequest",
                    "name": "",
                    "type": "tuple"
                }
            ],
            "stateMutability": "view",
            "type": "function"
        },
        {
            "inputs": [
                {
                    "internalType": "bytes",
                    "name": "message",
                    "type": "bytes"
                },
                {
                    "internalType": "bytes",
                    "name": "extraData",
                    "type": "bytes"
                }
            ],
            "name": "buildSignature",
            "outputs": [
                {
                    "components": [
                        {
                            "internalType": "bytes",
                            "name": "message",
                            "type": "bytes"
                        },
                        {
                            "internalType": "bool",
                            "name": "isSelectableByUser",
                            "type": "bool"
                        },
                        {
                            "internalType": "bytes",
                            "name": "extraData",
                            "type": "bytes"
                        }
                    ],
                    "internalType": "struct SignatureRequest",
                    "name": "",
                    "type": "tuple"
                }
            ],
            "stateMutability": "view",
            "type": "function"
        },
        {
            "inputs": [
                {
                    "internalType": "bool",
                    "name": "isSelectableByUser",
                    "type": "bool"
                },
                {
                    "internalType": "bytes",
                    "name": "extraData",
                    "type": "bytes"
                }
            ],
            "name": "buildSignature",
            "outputs": [
                {
                    "components": [
                        {
                            "internalType": "bytes",
                            "name": "message",
                            "type": "bytes"
                        },
                        {
                            "internalType": "bool",
                            "name": "isSelectableByUser",
                            "type": "bool"
                        },
                        {
                            "internalType": "bytes",
                            "name": "extraData",
                            "type": "bytes"
                        }
                    ],
                    "internalType": "struct SignatureRequest",
                    "name": "",
                    "type": "tuple"
                }
            ],
            "stateMutability": "view",
            "type": "function"
        },
        {
            "inputs": [
                {
                    "internalType": "bytes",
                    "name": "message",
                    "type": "bytes"
                },
                {
                    "internalType": "bool",
                    "name": "isSelectableByUser",
                    "type": "bool"
                },
                {
                    "internalType": "bytes",
                    "name": "extraData",
                    "type": "bytes"
                }
            ],
            "name": "buildSignature",
            "outputs": [
                {
                    "components": [
                        {
                            "internalType": "bytes",
                            "name": "message",
                            "type": "bytes"
                        },
                        {
                            "internalType": "bool",
                            "name": "isSelectableByUser",
                            "type": "bool"
                        },
                        {
                            "internalType": "bytes",
                            "name": "extraData",
                            "type": "bytes"
                        }
                    ],
                    "internalType": "struct SignatureRequest",
                    "name": "",
                    "type": "tuple"
                }
            ],
            "stateMutability": "view",
            "type": "function"
        },
        {
            "inputs": [
                {
                    "internalType": "bytes",
                    "name": "responseBytes",
                    "type": "bytes"
                },
                {
                    "internalType": "address",
                    "name": "to",
                    "type": "address"
                }
            ],
            "name": "claimWithSismoConnect",
            "outputs": [],
            "stateMutability": "nonpayable",
            "type": "function"
        },
        {
            "inputs": [],
            "name": "config",
            "outputs": [
                {
                    "components": [
                        {
                            "internalType": "bytes16",
                            "name": "appId",
                            "type": "bytes16"
                        },
                        {
                            "components": [
                                {
                                    "internalType": "bool",
                                    "name": "isImpersonationMode",
                                    "type": "bool"
                                }
                            ],
                            "internalType": "struct VaultConfig",
                            "name": "vault",
                            "type": "tuple"
                        }
                    ],
                    "internalType": "struct SismoConnectConfig",
                    "name": "",
                    "type": "tuple"
                }
            ],
            "stateMutability": "view",
            "type": "function"
        },
        {
            "inputs": [
                {
                    "internalType": "uint256",
                    "name": "tokenId",
                    "type": "uint256"
                }
            ],
            "name": "getApproved",
            "outputs": [
                {
                    "internalType": "address",
                    "name": "",
                    "type": "address"
                }
            ],
            "stateMutability": "view",
            "type": "function"
        },
        {
            "inputs": [],
            "name": "getRequests",
            "outputs": [
                {
                    "components": [
                        {
                            "components": [
                                {
                                    "internalType": "enum AuthType",
                                    "name": "authType",
                                    "type": "uint8"
                                },
                                {
                                    "internalType": "uint256",
                                    "name": "userId",
                                    "type": "uint256"
                                },
                                {
                                    "internalType": "bool",
                                    "name": "isAnon",
                                    "type": "bool"
                                },
                                {
                                    "internalType": "bool",
                                    "name": "isOptional",
                                    "type": "bool"
                                },
                                {
                                    "internalType": "bool",
                                    "name": "isSelectableByUser",
                                    "type": "bool"
                                },
                                {
                                    "internalType": "bytes",
                                    "name": "extraData",
                                    "type": "bytes"
                                }
                            ],
                            "internalType": "struct AuthRequest[]",
                            "name": "auths",
                            "type": "tuple[]"
                        },
                        {
                            "components": [
                                {
                                    "internalType": "enum ClaimType",
                                    "name": "claimType",
                                    "type": "uint8"
                                },
                                {
                                    "internalType": "bytes16",
                                    "name": "groupId",
                                    "type": "bytes16"
                                },
                                {
                                    "internalType": "bytes16",
                                    "name": "groupTimestamp",
                                    "type": "bytes16"
                                },
                                {
                                    "internalType": "uint256",
                                    "name": "value",
                                    "type": "uint256"
                                },
                                {
                                    "internalType": "bool",
                                    "name": "isOptional",
                                    "type": "bool"
                                },
                                {
                                    "internalType": "bool",
                                    "name": "isSelectableByUser",
                                    "type": "bool"
                                },
                                {
                                    "internalType": "bytes",
                                    "name": "extraData",
                                    "type": "bytes"
                                }
                            ],
                            "internalType": "struct ClaimRequest[]",
                            "name": "claims",
                            "type": "tuple[]"
                        }
                    ],
                    "internalType": "struct ZKDrop.Requests",
                    "name": "",
                    "type": "tuple"
                }
            ],
            "stateMutability": "view",
            "type": "function"
        },
        {
            "inputs": [
                {
                    "internalType": "address",
                    "name": "owner",
                    "type": "address"
                },
                {
                    "internalType": "address",
                    "name": "operator",
                    "type": "address"
                }
            ],
            "name": "isApprovedForAll",
            "outputs": [
                {
                    "internalType": "bool",
                    "name": "",
                    "type": "bool"
                }
            ],
            "stateMutability": "view",
            "type": "function"
        },
        {
            "inputs": [],
            "name": "name",
            "outputs": [
                {
                    "internalType": "string",
                    "name": "",
                    "type": "string"
                }
            ],
            "stateMutability": "view",
            "type": "function"
        },
        {
            "inputs": [],
            "name": "owner",
            "outputs": [
                {
                    "internalType": "address",
                    "name": "",
                    "type": "address"
                }
            ],
            "stateMutability": "view",
            "type": "function"
        },
        {
            "inputs": [
                {
                    "internalType": "uint256",
                    "name": "tokenId",
                    "type": "uint256"
                }
            ],
            "name": "ownerOf",
            "outputs": [
                {
                    "internalType": "address",
                    "name": "",
                    "type": "address"
                }
            ],
            "stateMutability": "view",
            "type": "function"
        },
        {
            "inputs": [],
            "name": "renounceOwnership",
            "outputs": [],
            "stateMutability": "nonpayable",
            "type": "function"
        },
        {
            "inputs": [
                {
                    "internalType": "address",
                    "name": "from",
                    "type": "address"
                },
                {
                    "internalType": "address",
                    "name": "to",
                    "type": "address"
                },
                {
                    "internalType": "uint256",
                    "name": "tokenId",
                    "type": "uint256"
                }
            ],
            "name": "safeTransferFrom",
            "outputs": [],
            "stateMutability": "nonpayable",
            "type": "function"
        },
        {
            "inputs": [
                {
                    "internalType": "address",
                    "name": "from",
                    "type": "address"
                },
                {
                    "internalType": "address",
                    "name": "to",
                    "type": "address"
                },
                {
                    "internalType": "uint256",
                    "name": "tokenId",
                    "type": "uint256"
                },
                {
                    "internalType": "bytes",
                    "name": "data",
                    "type": "bytes"
                }
            ],
            "name": "safeTransferFrom",
            "outputs": [],
            "stateMutability": "nonpayable",
            "type": "function"
        },
        {
            "inputs": [
                {
                    "internalType": "address",
                    "name": "operator",
                    "type": "address"
                },
                {
                    "internalType": "bool",
                    "name": "approved",
                    "type": "bool"
                }
            ],
            "name": "setApprovalForAll",
            "outputs": [],
            "stateMutability": "nonpayable",
            "type": "function"
        },
        {
            "inputs": [
                {
                    "internalType": "string",
                    "name": "baseUri",
                    "type": "string"
                }
            ],
            "name": "setBaseTokenUri",
            "outputs": [],
            "stateMutability": "nonpayable",
            "type": "function"
        },
        {
            "inputs": [
                {
                    "internalType": "bytes4",
                    "name": "interfaceId",
                    "type": "bytes4"
                }
            ],
            "name": "supportsInterface",
            "outputs": [
                {
                    "internalType": "bool",
                    "name": "",
                    "type": "bool"
                }
            ],
            "stateMutability": "view",
            "type": "function"
        },
        {
            "inputs": [],
            "name": "symbol",
            "outputs": [
                {
                    "internalType": "string",
                    "name": "",
                    "type": "string"
                }
            ],
            "stateMutability": "view",
            "type": "function"
        },
        {
            "inputs": [
                {
                    "internalType": "uint256",
                    "name": "",
                    "type": "uint256"
                }
            ],
            "name": "tokenURI",
            "outputs": [
                {
                    "internalType": "string",
                    "name": "",
                    "type": "string"
                }
            ],
            "stateMutability": "view",
            "type": "function"
        },
        {
            "inputs": [
                {
                    "internalType": "address",
                    "name": "from",
                    "type": "address"
                },
                {
                    "internalType": "address",
                    "name": "to",
                    "type": "address"
                },
                {
                    "internalType": "uint256",
                    "name": "tokenId",
                    "type": "uint256"
                }
            ],
            "name": "transferFrom",
            "outputs": [],
            "stateMutability": "nonpayable",
            "type": "function"
        },
        {
            "inputs": [
                {
                    "internalType": "address",
                    "name": "newOwner",
                    "type": "address"
                }
            ],
            "name": "transferOwnership",
            "outputs": [],
            "stateMutability": "nonpayable",
            "type": "function"
        }
    ],
    "bytecode": {
        "object": "0x6101806040523480156200001257600080fd5b50604051620046d5380380620046d5833981016040819052620000359162000ba7565b62000041868662000471565b8989600062000051838262000d62565b50600162000060828262000d62565b505081516001600160801b031916610120525060208082015151151561014052604080518082018252601981527f7369736d6f436f6e6e65637456657269666965722d76312e3100000000000000928101929092525163349f642f60e11b8152733cd5334eb64ebbd4003b72022cc25465f1bfcee69163693ec85e91620000eb919060040162000e2e565b602060405180830381865afa15801562000109573d6000803e3d6000fd5b505050506040513d601f19601f820116820180604052508101906200012f919062000e63565b6001600160a01b0316608052604080518082018252601781527f61757468526571756573744275696c6465722d76312e310000000000000000006020820152905163349f642f60e11b8152733cd5334eb64ebbd4003b72022cc25465f1bfcee69163693ec85e91620001a5919060040162000e2e565b602060405180830381865afa158015620001c3573d6000803e3d6000fd5b505050506040513d601f19601f82011682018060405250810190620001e9919062000e63565b6001600160a01b031660a052604080518082018252601881527f636c61696d526571756573744275696c6465722d76312e3100000000000000006020820152905163349f642f60e11b8152733cd5334eb64ebbd4003b72022cc25465f1bfcee69163693ec85e916200025f919060040162000e2e565b602060405180830381865afa1580156200027d573d6000803e3d6000fd5b505050506040513d601f19601f82011682018060405250810190620002a3919062000e63565b6001600160a01b031660c052604080518082018252601581527f7369676e61747572654275696c6465722d76312e3100000000000000000000006020820152905163349f642f60e11b8152733cd5334eb64ebbd4003b72022cc25465f1bfcee69163693ec85e9162000319919060040162000e2e565b602060405180830381865afa15801562000337573d6000803e3d6000fd5b505050506040513d601f19601f820116820180604052508101906200035d919062000e63565b6001600160a01b031660e052604080518082018252601381527f726571756573744275696c6465722d76312e31000000000000000000000000006020820152905163349f642f60e11b8152733cd5334eb64ebbd4003b72022cc25465f1bfcee69163693ec85e91620003d3919060040162000e2e565b602060405180830381865afa158015620003f1573d6000803e3d6000fd5b505050506040513d601f19601f8201168201806040525081019062000417919062000e63565b6001600160a01b031661010052506200043033620004d3565b6200043b82620004d3565b620004468762000525565b620004518462000570565b6200045c8362000671565b1515610160525062000edc9650505050505050565b62000498604080518082018252600080825282516020818101909452908152909182015290565b506040805180820182526001600160801b03199390931683528051602080820183526000909152815180820190925291151581529082015290565b600680546001600160a01b038381166001600160a01b0319831681179093556040519116919082907f8be0079c531659141344cd1fd0a4f28419497f9722a3daafe3b4186f6b6457e090600090a35050565b600762000533828262000d62565b507f2e9b34e5ec7377754a85ec13c1e9a442a00db0c46dbdefbb143dd0371fd20c1c8160405162000565919062000e2e565b60405180910390a150565b60005b81518110156200066d57600860000182828151811062000597576200059762000e88565b60209081029190910181015182546001818101855560009485529290932081516004909402018054919390929091839160ff1990911690836005811115620005e357620005e362000e9e565b0217905550602082015160018201556040820151600282018054606085015160808601511515620100000262ff0000199115156101000261ff00199515159590951661ffff1990931692909217939093179290921691909117905560a0820151600382019062000654908262000d62565b5050508080620006649062000eb4565b91505062000573565b5050565b60005b81518110156200066d57600860010182828151811062000698576200069862000e88565b60209081029190910181015182546001818101855560009485529290932081516005909402018054919390929091839160ff1990911690836004811115620006e457620006e462000e9e565b021790555060208201518154610100600160881b031916610100608092831c810291909117835560408401516001840180546001600160801b03191691841c919091179055606084015160028401559083015160038301805460a086015161ffff1990911692151561ff0019169290921791151590920217905560c0820151600482019062000774908262000d62565b5050508080620007849062000eb4565b91505062000674565b634e487b7160e01b600052604160045260246000fd5b60405160c081016001600160401b0381118282101715620007c857620007c86200078d565b60405290565b60405160e081016001600160401b0381118282101715620007c857620007c86200078d565b604051601f8201601f191681016001600160401b03811182821017156200081e576200081e6200078d565b604052919050565b60005b838110156200084357818101518382015260200162000829565b50506000910152565b600082601f8301126200085e57600080fd5b81516001600160401b038111156200087a576200087a6200078d565b6200088f601f8201601f1916602001620007f3565b818152846020838601011115620008a557600080fd5b620008b882602083016020870162000826565b949350505050565b80516001600160801b031981168114620008d957600080fd5b919050565b80518015158114620008d957600080fd5b60006001600160401b038211156200090b576200090b6200078d565b5060051b60200190565b600082601f8301126200092757600080fd5b81516020620009406200093a83620008ef565b620007f3565b82815260059290921b840181019181810190868411156200096057600080fd5b8286015b8481101562000a415780516001600160401b0380821115620009865760008081fd5b9088019060c0828b03601f1901811315620009a15760008081fd5b620009ab620007a3565b8784015160068110620009be5760008081fd5b8152604084810151898301526060620009d9818701620008de565b8284015260809150620009ee828701620008de565b9083015260a062000a01868201620008de565b8383015292850151928484111562000a1b57600091508182fd5b62000a2b8e8b868901016200084c565b9083015250865250505091830191830162000964565b509695505050505050565b805160058110620008d957600080fd5b600082601f83011262000a6e57600080fd5b8151602062000a816200093a83620008ef565b82815260059290921b8401810191818101908684111562000aa157600080fd5b8286015b8481101562000a415780516001600160401b038082111562000ac75760008081fd5b9088019060e0828b03601f190181131562000ae25760008081fd5b62000aec620007ce565b62000af988850162000a4c565b8152604062000b0a818601620008c0565b89830152606062000b1d818701620008c0565b828401526080915081860151818401525060a062000b3d818701620008de565b8284015260c0915062000b52828701620008de565b9083015291840151918383111562000b6a5760008081fd5b62000b7a8d8a858801016200084c565b90820152865250505091830191830162000aa5565b80516001600160a01b0381168114620008d957600080fd5b60008060008060008060008060006101208a8c03121562000bc757600080fd5b89516001600160401b038082111562000bdf57600080fd5b62000bed8d838e016200084c565b9a5060208c015191508082111562000c0457600080fd5b62000c128d838e016200084c565b995060408c015191508082111562000c2957600080fd5b62000c378d838e016200084c565b985062000c4760608d01620008c0565b975062000c5760808d01620008de565b965060a08c015191508082111562000c6e57600080fd5b62000c7c8d838e0162000915565b955060c08c015191508082111562000c9357600080fd5b5062000ca28c828d0162000a5c565b93505062000cb360e08b0162000b8f565b915062000cc46101008b01620008de565b90509295985092959850929598565b600181811c9082168062000ce857607f821691505b60208210810362000d0957634e487b7160e01b600052602260045260246000fd5b50919050565b601f82111562000d5d57600081815260208120601f850160051c8101602086101562000d385750805b601f850160051c820191505b8181101562000d595782815560010162000d44565b5050505b505050565b81516001600160401b0381111562000d7e5762000d7e6200078d565b62000d968162000d8f845462000cd3565b8462000d0f565b602080601f83116001811462000dce576000841562000db55750858301515b600019600386901b1c1916600185901b17855562000d59565b600085815260208120601f198616915b8281101562000dff5788860151825594840194600190910190840162000dde565b508582101562000e1e5787850151600019600388901b60f8161c191681555b5050505050600190811b01905550565b602081526000825180602084015262000e4f81604085016020870162000826565b601f01601f19169190910160400192915050565b60006020828403121562000e7657600080fd5b62000e818262000b8f565b9392505050565b634e487b7160e01b600052603260045260246000fd5b634e487b7160e01b600052602160045260246000fd5b60006001820162000ed557634e487b7160e01b600052601160045260246000fd5b5060010190565b60805160a05160c05160e0516101005161012051610140516101605161375a62000f7b600039600081816104210152818161100b0152818161123b0152611ba70152600081816103940152610cd30152600081816103e10152610cb201526000611b27015260008181610a6b01528181610b6201528181611143015281816111a901526113430152600050506000505060006113da015261375a6000f3fe608060405234801561001057600080fd5b50600436106101da5760003560e01c80638813ce1211610104578063c187bbc1116100a2578063cea8eb4e11610071578063cea8eb4e1461045e578063e068970314610471578063e985e9c514610484578063f2fde38b1461049757600080fd5b8063c187bbc1146103dc578063c4b2e8ff1461041c578063c87b56dd14610443578063c9512d991461045657600080fd5b806395d89b41116100de57806395d89b4114610387578063a183dc271461038f578063a22cb465146103b6578063b88d4fde146103c957600080fd5b80638813ce121461034e5780638da5cb5b1461036357806395652cfa1461037457600080fd5b8063469163011161017c57806370a082311161014b57806370a08231146102f6578063715018a614610317578063754b377c1461031f57806379502c551461033957600080fd5b8063469163011461029557806349161195146102b05780636352211e146102d05780636e01370e146102e357600080fd5b8063081812fc116101b8578063081812fc14610231578063095ea7b31461025c57806323b872dd1461026f57806342842e0e1461028257600080fd5b806301ffc9a7146101df57806306fdde031461020757806307c8064f1461021c575b600080fd5b6101f26101ed366004611e20565b6104aa565b60405190151581526020015b60405180910390f35b61020f6104fc565b6040516101fe9190611e8d565b61022f61022a366004612015565b61058e565b005b61024461023f366004612062565b6108a7565b6040516001600160a01b0390911681526020016101fe565b61022f61026a36600461207b565b6108ce565b61022f61027d3660046120a5565b6109e8565b61022f6102903660046120a5565b610a19565b610244733cd5334eb64ebbd4003b72022cc25465f1bfcee681565b6102c36102be3660046120ef565b610a34565b6040516101fe919061214f565b6102446102de366004612062565b610adb565b6102c36102f1366004612162565b610b3b565b6103096103043660046121c5565b610bed565b6040519081526020016101fe565b61022f610c73565b610327600181565b60405160ff90911681526020016101fe565b610341610c87565b6040516101fe91906121e0565b610356610cfc565b6040516101fe9190612386565b6006546001600160a01b0316610244565b61022f6103823660046123bf565b610fe6565b61020f610ffa565b6101f27f000000000000000000000000000000000000000000000000000000000000000081565b61022f6103c4366004612407565b611009565b61022f6103d736600461243e565b611056565b6104037f000000000000000000000000000000000000000000000000000000000000000081565b6040516001600160801b031990911681526020016101fe565b6101f27f000000000000000000000000000000000000000000000000000000000000000081565b61020f610451366004612062565b611088565b610309600281565b6102c361046c3660046124a5565b61111c565b6102c361047f3660046124ea565b611182565b6101f2610492366004612561565b611237565b61022f6104a53660046121c5565b6112a6565b60006001600160e01b031982166380ac58cd60e01b14806104db57506001600160e01b03198216635b5e139f60e01b145b806104f657506301ffc9a760e01b6001600160e01b03198316145b92915050565b60606000805461050b9061258b565b80601f01602080910402602001604051908101604052809291908181526020018280546105379061258b565b80156105845780601f1061055957610100808354040283529160200191610584565b820191906000526020600020905b81548152906001019060200180831161056757829003601f168201915b5050505050905090565b6008805460408051602080840282018101909252828152600093610887938793869084015b828210156106df576000848152602090206040805160c08101909152600484029091018054829060ff1660058111156105ee576105ee612204565b60058111156105ff576105ff612204565b815260018201546020820152600282015460ff80821615156040840152610100820481161515606084015262010000909104161515608082015260038201805460a09092019161064e9061258b565b80601f016020809104026020016040519081016040528092919081815260200182805461067a9061258b565b80156106c75780601f1061069c576101008083540402835291602001916106c7565b820191906000526020600020905b8154815290600101906020018083116106aa57829003601f168201915b505050505081525050815260200190600101906105b3565b505050506008600101805480602002602001604051908101604052809291908181526020016000905b82821015610851576000848152602090206040805160e08101909152600584029091018054829060ff16600481111561074357610743612204565b600481111561075457610754612204565b8152815461010090819004608090811b6001600160801b031990811660208501526001850154821b16604084015260028401546060840152600384015460ff8082161515928501929092529190910416151560a082015260048201805460c0909201916107c09061258b565b80601f01602080910402602001604051908101604052809291908181526020018280546107ec9061258b565b80156108395780601f1061080e57610100808354040283529160200191610839565b820191906000526020600020905b81548152906001019060200180831161081c57829003601f168201915b50505050508152505081526020019060010190610708565b5050604080516001600160a01b038a166020820152610882935001905060405160208183030381529060405261131c565b611380565b905060006108958282611481565b90506108a18382611534565b50505050565b60006108b2826116cd565b506000908152600460205260409020546001600160a01b031690565b60006108d982610adb565b9050806001600160a01b0316836001600160a01b03160361094b5760405162461bcd60e51b815260206004820152602160248201527f4552433732313a20617070726f76616c20746f2063757272656e74206f776e656044820152603960f91b60648201526084015b60405180910390fd5b336001600160a01b038216148061096757506109678133611237565b6109d95760405162461bcd60e51b815260206004820152603d60248201527f4552433732313a20617070726f76652063616c6c6572206973206e6f7420746f60448201527f6b656e206f776e6572206f7220617070726f76656420666f7220616c6c0000006064820152608401610942565b6109e3838361172c565b505050565b6109f2338261179a565b610a0e5760405162461bcd60e51b8152600401610942906125c5565b6109e38383836117f8565b6109e383838360405180602001604052806000815250611056565b604080516060808201835280825260006020830152818301529051631f6c2b9760e11b815282151560048201526001600160a01b037f00000000000000000000000000000000000000000000000000000000000000001690633ed8572e906024015b600060405180830381865afa158015610ab3573d6000803e3d6000fd5b505050506040513d6000823e601f3d908101601f191682016040526104f69190810190612701565b6000818152600260205260408120546001600160a01b0316806104f65760405162461bcd60e51b8152602060048201526018602482015277115490cdcc8c4e881a5b9d985b1a59081d1bdad95b88125160421b6044820152606401610942565b604080516060808201835280825260006020830152818301529051631778ed1360e21b81527f00000000000000000000000000000000000000000000000000000000000000006001600160a01b031690635de3b44c90610ba19086908690600401612735565b600060405180830381865afa158015610bbe573d6000803e3d6000fd5b505050506040513d6000823e601f3d908101601f19168201604052610be69190810190612701565b9392505050565b60006001600160a01b038216610c575760405162461bcd60e51b815260206004820152602960248201527f4552433732313a2061646472657373207a65726f206973206e6f7420612076616044820152683634b21037bbb732b960b91b6064820152608401610942565b506001600160a01b031660009081526003602052604090205490565b610c7b611969565b610c8560006119c3565b565b610cad604080518082018252600080825282516020818101909452908152909182015290565b610cf77f00000000000000000000000000000000000000000000000000000000000000007f0000000000000000000000000000000000000000000000000000000000000000611a15565b905090565b6040805180820190915260608082526020820152604080516008805460606020820284018101855293830181815260009484928491879085015b82821015610e62576000848152602090206040805160c08101909152600484029091018054829060ff166005811115610d7157610d71612204565b6005811115610d8257610d82612204565b815260018201546020820152600282015460ff80821615156040840152610100820481161515606084015262010000909104161515608082015260038201805460a090920191610dd19061258b565b80601f0160208091040260200160405190810160405280929190818152602001828054610dfd9061258b565b8015610e4a5780601f10610e1f57610100808354040283529160200191610e4a565b820191906000526020600020905b815481529060010190602001808311610e2d57829003601f168201915b50505050508152505081526020019060010190610d36565b50505050815260200160018201805480602002602001604051908101604052809291908181526020016000905b82821015610fd8576000848152602090206040805160e08101909152600584029091018054829060ff166004811115610eca57610eca612204565b6004811115610edb57610edb612204565b8152815461010090819004608090811b6001600160801b031990811660208501526001850154821b16604084015260028401546060840152600384015460ff8082161515928501929092529190910416151560a082015260048201805460c090920191610f479061258b565b80601f0160208091040260200160405190810160405280929190818152602001828054610f739061258b565b8015610fc05780601f10610f9557610100808354040283529160200191610fc0565b820191906000526020600020905b815481529060010190602001808311610fa357829003601f168201915b50505050508152505081526020019060010190610e8f565b505050915250909392505050565b610fee611969565b610ff781611a83565b50565b60606001805461050b9061258b565b7f00000000000000000000000000000000000000000000000000000000000000001561104857604051632630e0df60e11b815260040160405180910390fd5b6110528282611aca565b5050565b611060338361179a565b61107c5760405162461bcd60e51b8152600401610942906125c5565b6108a184848484611ad5565b6060600780546110979061258b565b80601f01602080910402602001604051908101604052809291908181526020018280546110c39061258b565b80156111105780601f106110e557610100808354040283529160200191611110565b820191906000526020600020905b8154815290600101906020018083116110f357829003601f168201915b50505050509050919050565b604080516060808201835280825260006020830152818301529051631d1db46b60e21b81527f00000000000000000000000000000000000000000000000000000000000000006001600160a01b031690637476d1ac90610ba1908690869060040161275a565b604080516060808201835280825260006020830152818301529051631f785c9560e01b81527f00000000000000000000000000000000000000000000000000000000000000006001600160a01b031690631f785c95906111ea90879087908790600401612775565b600060405180830381865afa158015611207573d6000803e3d6000fd5b505050506040513d6000823e601f3d908101601f1916820160405261122f9190810190612701565b949350505050565b60007f00000000000000000000000000000000000000000000000000000000000000001561127857604051632630e0df60e11b815260040160405180910390fd5b6001600160a01b0380841660009081526005602090815260408083209386168352929052205460ff16610be6565b6112ae611969565b6001600160a01b0381166113135760405162461bcd60e51b815260206004820152602660248201527f4f776e61626c653a206e6577206f776e657220697320746865207a65726f206160448201526564647265737360d01b6064820152608401610942565b610ff7816119c3565b604080516060808201835280825260006020830152818301529051631a0d7ccb60e21b81527f00000000000000000000000000000000000000000000000000000000000000006001600160a01b031690636835f32c90610a96908590600401611e8d565b6040805160c0810182526000808252602082018190529181019190915260608082018190526080820181905260a08201526000858060200190518101906113c79190612a1a565b905060006113d6868686611b08565b90507f00000000000000000000000000000000000000000000000000000000000000006001600160a01b03166312b037ff8383611411610c87565b6040518463ffffffff1660e01b815260040161142f93929190612cf0565b6000604051808303816000875af115801561144e573d6000803e3d6000fd5b505050506040513d6000823e601f3d908101601f1916820160405261147691908101906130f6565b979650505050505050565b6000805b836060015151811015611518578260058111156114a4576114a4612204565b846060015182815181106114ba576114ba6131d6565b60200260200101516000015160058111156114d7576114d7612204565b0361150657836060015181815181106114f2576114f26131d6565b6020026020010151604001519150506104f6565b80611510816131ec565b915050611485565b508160405163267ac2cf60e01b81526004016109429190613213565b6001600160a01b03821661158a5760405162461bcd60e51b815260206004820181905260248201527f4552433732313a206d696e7420746f20746865207a65726f20616464726573736044820152606401610942565b6000818152600260205260409020546001600160a01b0316156115ef5760405162461bcd60e51b815260206004820152601c60248201527f4552433732313a20746f6b656e20616c7265616479206d696e746564000000006044820152606401610942565b6115fd600083836001611ba5565b6000818152600260205260409020546001600160a01b0316156116625760405162461bcd60e51b815260206004820152601c60248201527f4552433732313a20746f6b656e20616c7265616479206d696e746564000000006044820152606401610942565b6001600160a01b038216600081815260036020908152604080832080546001019055848352600290915280822080546001600160a01b0319168417905551839291907fddf252ad1be2c89b69c2b068fc378daa952ba7f163c4a11628f55a4df523b3ef908290a45050565b6000818152600260205260409020546001600160a01b0316610ff75760405162461bcd60e51b8152602060048201526018602482015277115490cdcc8c4e881a5b9d985b1a59081d1bdad95b88125160421b6044820152606401610942565b600081815260046020526040902080546001600160a01b0319166001600160a01b038416908117909155819061176182610adb565b6001600160a01b03167f8c5be1e5ebec7d5bd14f71427d1e84f3dd0314c0f7b2291e5b200ac8c7c3b92560405160405180910390a45050565b6000806117a683610adb565b9050806001600160a01b0316846001600160a01b031614806117cd57506117cd8185611237565b8061122f5750836001600160a01b03166117e6846108a7565b6001600160a01b031614949350505050565b826001600160a01b031661180b82610adb565b6001600160a01b0316146118315760405162461bcd60e51b815260040161094290613221565b6001600160a01b0382166118935760405162461bcd60e51b8152602060048201526024808201527f4552433732313a207472616e7366657220746f20746865207a65726f206164646044820152637265737360e01b6064820152608401610942565b6118a08383836001611ba5565b826001600160a01b03166118b382610adb565b6001600160a01b0316146118d95760405162461bcd60e51b815260040161094290613221565b600081815260046020908152604080832080546001600160a01b03199081169091556001600160a01b0387811680865260038552838620805460001901905590871680865283862080546001019055868652600290945282852080549092168417909155905184937fddf252ad1be2c89b69c2b068fc378daa952ba7f163c4a11628f55a4df523b3ef91a4505050565b6006546001600160a01b03163314610c855760405162461bcd60e51b815260206004820181905260248201527f4f776e61626c653a2063616c6c6572206973206e6f7420746865206f776e65726044820152606401610942565b600680546001600160a01b038381166001600160a01b0319831681179093556040519116919082907f8be0079c531659141344cd1fd0a4f28419497f9722a3daafe3b4186f6b6457e090600090a35050565b611a3b604080518082018252600080825282516020818101909452908152909182015290565b6040518060400160405280846001600160801b0319168152602001611a7a84604080516020808201835260009091528151908101909152901515815290565b90529392505050565b6007611a8f82826132b4565b507f2e9b34e5ec7377754a85ec13c1e9a442a00db0c46dbdefbb143dd0371fd20c1c81604051611abf9190611e8d565b60405180910390a150565b611052338383611be9565b611ae08484846117f8565b611aec84848484611cb7565b6108a15760405162461bcd60e51b815260040161094290613373565b611b10611dba565b604051634c92019b60e11b81526001600160a01b037f00000000000000000000000000000000000000000000000000000000000000001690639924033690611b60908790879087906004016133c5565b600060405180830381865afa158015611b7d573d6000803e3d6000fd5b505050506040513d6000823e601f3d908101601f1916820160405261122f9190810190613519565b7f000000000000000000000000000000000000000000000000000000000000000015611be457604051632630e0df60e11b815260040160405180910390fd5b6108a1565b816001600160a01b0316836001600160a01b031603611c4a5760405162461bcd60e51b815260206004820152601960248201527f4552433732313a20617070726f766520746f2063616c6c6572000000000000006044820152606401610942565b6001600160a01b03838116600081815260056020908152604080832094871680845294825291829020805460ff191686151590811790915591519182527f17307eab39ab6107e8899845ad3d59bd9653f200f220920489ca2b5937696c31910160405180910390a3505050565b60006001600160a01b0384163b15611dad57604051630a85bd0160e11b81526001600160a01b0385169063150b7a0290611cfb9033908990889088906004016136d4565b6020604051808303816000875af1925050508015611d36575060408051601f3d908101601f19168201909252611d3391810190613707565b60015b611d93573d808015611d64576040519150601f19603f3d011682016040523d82523d6000602084013e611d69565b606091505b508051600003611d8b5760405162461bcd60e51b815260040161094290613373565b805181602001fd5b6001600160e01b031916630a85bd0160e11b14905061122f565b50600161122f565b905290565b604051806080016040528060006001600160801b03191681526020016060815260200160608152602001611db5604051806060016040528060608152602001600015158152602001606081525090565b6001600160e01b031981168114610ff757600080fd5b600060208284031215611e3257600080fd5b8135610be681611e0a565b60005b83811015611e58578181015183820152602001611e40565b50506000910152565b60008151808452611e79816020860160208601611e3d565b601f01601f19169290920160200192915050565b602081526000610be66020830184611e61565b634e487b7160e01b600052604160045260246000fd5b60405160a081016001600160401b0381118282101715611ed857611ed8611ea0565b60405290565b60405160c081016001600160401b0381118282101715611ed857611ed8611ea0565b60405160e081016001600160401b0381118282101715611ed857611ed8611ea0565b604051608081016001600160401b0381118282101715611ed857611ed8611ea0565b604051601f8201601f191681016001600160401b0381118282101715611f6c57611f6c611ea0565b604052919050565b60006001600160401b03821115611f8d57611f8d611ea0565b50601f01601f191660200190565b6000611fae611fa984611f74565b611f44565b9050828152838383011115611fc257600080fd5b828260208301376000602084830101529392505050565b600082601f830112611fea57600080fd5b610be683833560208501611f9b565b80356001600160a01b038116811461201057600080fd5b919050565b6000806040838503121561202857600080fd5b82356001600160401b0381111561203e57600080fd5b61204a85828601611fd9565b92505061205960208401611ff9565b90509250929050565b60006020828403121561207457600080fd5b5035919050565b6000806040838503121561208e57600080fd5b61209783611ff9565b946020939093013593505050565b6000806000606084860312156120ba57600080fd5b6120c384611ff9565b92506120d160208501611ff9565b9150604084013590509250925092565b8015158114610ff757600080fd5b60006020828403121561210157600080fd5b8135610be6816120e1565b60008151606084526121216060850182611e61565b9050602083015115156020850152604083015184820360408601526121468282611e61565b95945050505050565b602081526000610be6602083018461210c565b6000806040838503121561217557600080fd5b82356001600160401b038082111561218c57600080fd5b61219886838701611fd9565b935060208501359150808211156121ae57600080fd5b506121bb85828601611fd9565b9150509250929050565b6000602082840312156121d757600080fd5b610be682611ff9565b81516001600160801b031916815260208083015151151590820152604081016104f6565b634e487b7160e01b600052602160045260246000fd5b6006811061222a5761222a612204565b9052565b600082825180855260208086019550808260051b84010181860160005b848110156122c357601f19868403018952815160c061226b85835161221a565b818601518587015260408083015115159086015260608083015115159086015260808083015115159086015260a0918201519185018190526122af81860183611e61565b9a86019a945050509083019060010161224b565b5090979650505050505050565b6005811061222a5761222a612204565b6000815180845260208085019450848260051b860182860160005b858110156122c3578383038952815160e06123178583516122d0565b818701516001600160801b031990811686890152604080840151909116908601526060808301519086015260808083015115159086015260a08083015115159086015260c09182015191850181905261237281860183611e61565b9a87019a94505050908401906001016122fb565b6020815260008251604060208401526123a2606084018261222e565b90506020840151601f1984830301604085015261214682826122e0565b6000602082840312156123d157600080fd5b81356001600160401b038111156123e757600080fd5b8201601f810184136123f857600080fd5b61122f84823560208401611f9b565b6000806040838503121561241a57600080fd5b61242383611ff9565b91506020830135612433816120e1565b809150509250929050565b6000806000806080858703121561245457600080fd5b61245d85611ff9565b935061246b60208601611ff9565b92506040850135915060608501356001600160401b0381111561248d57600080fd5b61249987828801611fd9565b91505092959194509250565b600080604083850312156124b857600080fd5b82356124c3816120e1565b915060208301356001600160401b038111156124de57600080fd5b6121bb85828601611fd9565b6000806000606084860312156124ff57600080fd5b83356001600160401b038082111561251657600080fd5b61252287838801611fd9565b945060208601359150612534826120e1565b9092506040850135908082111561254a57600080fd5b5061255786828701611fd9565b9150509250925092565b6000806040838503121561257457600080fd5b61257d83611ff9565b915061205960208401611ff9565b600181811c9082168061259f57607f821691505b6020821081036125bf57634e487b7160e01b600052602260045260246000fd5b50919050565b6020808252602d908201527f4552433732313a2063616c6c6572206973206e6f7420746f6b656e206f776e6560408201526c1c881bdc88185c1c1c9bdd9959609a1b606082015260800190565b600082601f83011261262357600080fd5b8151612631611fa982611f74565b81815284602083860101111561264657600080fd5b61122f826020830160208701611e3d565b8051612010816120e1565b60006060828403121561267457600080fd5b604051606081016001600160401b03828210818311171561269757612697611ea0565b8160405282935084519150808211156126af57600080fd5b6126bb86838701612612565b8352602085015191506126cd826120e1565b81602084015260408501519150808211156126e757600080fd5b506126f485828601612612565b6040830152505092915050565b60006020828403121561271357600080fd5b81516001600160401b0381111561272957600080fd5b61122f84828501612662565b6040815260006127486040830185611e61565b82810360208401526121468185611e61565b821515815260406020820152600061122f6040830184611e61565b6060815260006127886060830186611e61565b841515602084015282810360408401526127a28185611e61565b9695505050505050565b80516001600160801b03198116811461201057600080fd5b60006001600160401b038211156127dd576127dd611ea0565b5060051b60200190565b80516006811061201057600080fd5b600082601f83011261280757600080fd5b81516020612817611fa9836127c4565b82815260059290921b8401810191818101908684111561283657600080fd5b8286015b848110156128f45780516001600160401b038082111561285a5760008081fd5b9088019060a0828b03601f19018113156128745760008081fd5b61287c611eb6565b6128878885016127e7565b8152604080850151612898816120e1565b828a01526060858101516128ab816120e1565b80838501525060809150818601518184015250828501519250838311156128d25760008081fd5b6128e08d8a85880101612612565b90820152865250505091830191830161283a565b509695505050505050565b80516005811061201057600080fd5b600082601f83011261291f57600080fd5b8151602061292f611fa9836127c4565b82815260059290921b8401810191818101908684111561294e57600080fd5b8286015b848110156128f45780516001600160401b03808211156129725760008081fd5b9088019060c0828b03601f190181131561298c5760008081fd5b612994611ede565b61299f8885016128ff565b815260406129ae8186016127ac565b8983015260606129bf8187016127ac565b8284015260809150818601516129d4816120e1565b9083015260a085810151828401529285015192848411156129f757600091508182fd5b612a058e8b86890101612612565b90830152508652505050918301918301612952565b60006020808385031215612a2d57600080fd5b82516001600160401b0380821115612a4457600080fd5b9084019060a08287031215612a5857600080fd5b612a60611eb6565b612a69836127ac565b8152612a768484016127ac565b8482015260408301516040820152606083015182811115612a9657600080fd5b612aa288828601612612565b60608301525060808084015183811115612abb57600080fd5b80850194505087601f850112612ad057600080fd5b8351612ade611fa9826127c4565b81815260059190911b8501860190868101908a831115612afd57600080fd5b8787015b83811015612be557805187811115612b195760008081fd5b880160a0818e03601f19011215612b305760008081fd5b612b38611eb6565b8a82015189811115612b4a5760008081fd5b612b588f8d838601016127f6565b825250604082015189811115612b6e5760008081fd5b612b7c8f8d8386010161290e565b8c83015250606082015160408201528682015189811115612b9d5760008081fd5b612bab8f8d83860101612612565b60608301525060a082015189811115612bc45760008081fd5b612bd28f8d83860101612612565b8289015250845250918801918801612b01565b50928401929092525090979650505050505050565b6000815180845260208085019450848260051b860182860160005b858110156122c3578383038952815160c0612c318583516122d0565b818701516001600160801b031990811686890152604080840151909116908601526060808301511515908601526080808301519086015260a091820151918501819052612c8081860183611e61565b9a87019a9450505090840190600101612c15565b6001600160801b031981511682526000602082015160806020850152612cbd608085018261222e565b905060408301518482036040860152612cd682826122e0565b91505060608301518482036060860152612146828261210c565b600060808083526001600160801b0319808751168285015260208088015182811660a087015250604088015191508160c08601526060880151915060a060e0860152612d40610120860183611e61565b88840151868203607f1901610100880152805180835291935082019082840190600581901b8501840160005b82811015612e7957601f198783030184528451805160a0808552815190850181905260c0600582901b86018101928a01919086019060005b81811015612e0e5760bf198886030183528351612dc286825161221a565b8c81015115158d870152604081015115156040870152606081015160608701528e810151905060a08f870152612dfb60a0870182611e61565b955050928b0192918b0191600101612da4565b505050508782015184820389860152612e278282612bfa565b9150506040820151604085015260608201518482036060860152612e4b8282611e61565b9150508982015191508381038a850152612e658183611e61565b968801969588019593505050600101612d6c565b50888103858a0152612e8b818c612c94565b8a516001600160801b03191660408b015260208b015151151560608b0152975061122f9650505050505050565b600082601f830112612ec957600080fd5b81516020612ed9611fa9836127c4565b82815260059290921b84018101918181019086841115612ef857600080fd5b8286015b848110156128f45780516001600160401b0380821115612f1c5760008081fd5b9088019060a0828b03601f1901811315612f365760008081fd5b612f3e611eb6565b612f498885016127e7565b8152604080850151612f5a816120e1565b808a8401525060608086015182840152608091508186015185811115612f805760008081fd5b612f8e8f8c838a0101612612565b82850152505082850151925083831115612fa85760008081fd5b612fb68d8a85880101612612565b908201528652505050918301918301612efc565b600082601f830112612fdb57600080fd5b81516020612feb611fa9836127c4565b82815260059290921b8401810191818101908684111561300a57600080fd5b8286015b848110156128f45780516001600160401b038082111561302e5760008081fd5b9088019060e0828b03601f19018113156130485760008081fd5b613050611f00565b61305b8885016128ff565b8152604061306a8186016127ac565b89830152606061307b8187016127ac565b828401526080915081860151818401525060a080860151858111156130a05760008081fd5b6130ae8f8c838a0101612612565b838501525060c09150818601518184015250828501519250838311156130d45760008081fd5b6130e28d8a85880101612612565b90820152865250505091830191830161300e565b60006020828403121561310857600080fd5b81516001600160401b038082111561311f57600080fd5b9083019060c0828603121561313357600080fd5b61313b611ede565b613144836127ac565b8152613152602084016127ac565b60208201526040830151604082015260608301518281111561317357600080fd5b61317f87828601612eb8565b60608301525060808301518281111561319757600080fd5b6131a387828601612fca565b60808301525060a0830151828111156131bb57600080fd5b6131c787828601612612565b60a08301525095945050505050565b634e487b7160e01b600052603260045260246000fd5b60006001820161320c57634e487b7160e01b600052601160045260246000fd5b5060010190565b602081016104f6828461221a565b60208082526025908201527f4552433732313a207472616e736665722066726f6d20696e636f72726563742060408201526437bbb732b960d91b606082015260800190565b601f8211156109e357600081815260208120601f850160051c8101602086101561328d5750805b601f850160051c820191505b818110156132ac57828155600101613299565b505050505050565b81516001600160401b038111156132cd576132cd611ea0565b6132e1816132db845461258b565b84613266565b602080601f83116001811461331657600084156132fe5750858301515b600019600386901b1c1916600185901b1785556132ac565b600085815260208120601f198616915b8281101561334557888601518255948401946001909101908401613326565b50858210156133635787850151600019600388901b60f8161c191681555b5050505050600190811b01905550565b60208082526032908201527f4552433732313a207472616e7366657220746f206e6f6e20455243373231526560408201527131b2b4bb32b91034b6b83632b6b2b73a32b960711b606082015260800190565b6060815260006133d8606083018661222e565b82810360208401526133ea81866122e0565b905082810360408401526127a2818561210c565b600082601f83011261340f57600080fd5b8151602061341f611fa9836127c4565b82815260059290921b8401810191818101908684111561343e57600080fd5b8286015b848110156128f45780516001600160401b03808211156134625760008081fd5b9088019060e0828b03601f190181131561347c5760008081fd5b613484611f00565b61348f8885016128ff565b8152604061349e8186016127ac565b8983015260606134af8187016127ac565b828401526080915081860151818401525060a06134cd818701612657565b8284015260c091506134e0828701612657565b908301529184015191838311156134f75760008081fd5b6135058d8a85880101612612565b908201528652505050918301918301613442565b6000602080838503121561352c57600080fd5b82516001600160401b038082111561354357600080fd5b908401906080828703121561355757600080fd5b61355f611f22565b613568836127ac565b8152838301518281111561357b57600080fd5b8301601f8101881361358c57600080fd5b805161359a611fa9826127c4565b81815260059190911b8201860190868101908a8311156135b957600080fd5b8784015b83811015613676578051878111156135d457600080fd5b850160c0818e03601f190112156135ea57600080fd5b6135f2611ede565b6135fd8b83016127e7565b815260408201518b8201526060820151613616816120e1565b60408201526080820151613629816120e1565b606082015260a082015161363c816120e1565b608082015260c0820151898111156136545760008081fd5b6136628f8d83860101612612565b60a0830152508452509188019188016135bd565b50808886015250505050604083015193508184111561369457600080fd5b6136a0878585016133fe565b604082015260608301519350818411156136b957600080fd5b6136c587858501612662565b60608201529695505050505050565b6001600160a01b03858116825284166020820152604081018390526080606082018190526000906127a290830184611e61565b60006020828403121561371957600080fd5b8151610be681611e0a56fea2646970667358221220951f770327b0f3c4c923ab0c5ab39b6259e0990664bc13501bf0f2c1cf10535864736f6c63430008140033",
        "linkReferences": {}
    },
    "methodIdentifiers": {
        "ADDRESSES_PROVIDER_V2()": "46916301",
        "APP_ID()": "c187bbc1",
        "IMPLEMENTATION_VERSION()": "754b377c",
        "IS_IMPERSONATION_MODE()": "a183dc27",
        "IS_NON_TRANSFERABLE()": "c4b2e8ff",
        "SISMO_CONNECT_LIB_VERSION()": "c9512d99",
        "approve(address,uint256)": "095ea7b3",
        "balanceOf(address)": "70a08231",
        "buildSignature(bool)": "49161195",
        "buildSignature(bool,bytes)": "cea8eb4e",
        "buildSignature(bytes,bool,bytes)": "e0689703",
        "buildSignature(bytes,bytes)": "6e01370e",
        "claimWithSismoConnect(bytes,address)": "07c8064f",
        "config()": "79502c55",
        "getApproved(uint256)": "081812fc",
        "getRequests()": "8813ce12",
        "isApprovedForAll(address,address)": "e985e9c5",
        "name()": "06fdde03",
        "owner()": "8da5cb5b",
        "ownerOf(uint256)": "6352211e",
        "renounceOwnership()": "715018a6",
        "safeTransferFrom(address,address,uint256)": "42842e0e",
        "safeTransferFrom(address,address,uint256,bytes)": "b88d4fde",
        "setApprovalForAll(address,bool)": "a22cb465",
        "setBaseTokenUri(string)": "95652cfa",
        "supportsInterface(bytes4)": "01ffc9a7",
        "symbol()": "95d89b41",
        "tokenURI(uint256)": "c87b56dd",
        "transferFrom(address,address,uint256)": "23b872dd",
        "transferOwnership(address)": "f2fde38b"
    },
    "id": 54
}